{
	"token.sol": {
		"Phoenix": {
			"abi": [
				{
					"inputs": [],
					"stateMutability": "nonpayable",
					"type": "constructor"
				},
				{
					"inputs": [],
					"name": "InvalidShortString",
					"type": "error"
				},
				{
					"inputs": [
						{
							"internalType": "string",
							"name": "str",
							"type": "string"
						}
					],
					"name": "StringTooLong",
					"type": "error"
				},
				{
					"anonymous": false,
					"inputs": [
						{
							"indexed": true,
							"internalType": "address",
							"name": "owner",
							"type": "address"
						},
						{
							"indexed": true,
							"internalType": "address",
							"name": "spender",
							"type": "address"
						},
						{
							"indexed": false,
							"internalType": "uint256",
							"name": "value",
							"type": "uint256"
						}
					],
					"name": "Approval",
					"type": "event"
				},
				{
					"anonymous": false,
					"inputs": [],
					"name": "EIP712DomainChanged",
					"type": "event"
				},
				{
					"anonymous": false,
					"inputs": [
						{
							"indexed": true,
							"internalType": "address",
							"name": "previousOwner",
							"type": "address"
						},
						{
							"indexed": true,
							"internalType": "address",
							"name": "newOwner",
							"type": "address"
						}
					],
					"name": "OwnershipTransferred",
					"type": "event"
				},
				{
					"anonymous": false,
					"inputs": [
						{
							"indexed": true,
							"internalType": "address",
							"name": "from",
							"type": "address"
						},
						{
							"indexed": true,
							"internalType": "address",
							"name": "to",
							"type": "address"
						},
						{
							"indexed": false,
							"internalType": "uint256",
							"name": "value",
							"type": "uint256"
						}
					],
					"name": "Transfer",
					"type": "event"
				},
				{
					"inputs": [],
					"name": "DOMAIN_SEPARATOR",
					"outputs": [
						{
							"internalType": "bytes32",
							"name": "",
							"type": "bytes32"
						}
					],
					"stateMutability": "view",
					"type": "function"
				},
				{
					"inputs": [
						{
							"internalType": "address",
							"name": "owner",
							"type": "address"
						},
						{
							"internalType": "address",
							"name": "spender",
							"type": "address"
						}
					],
					"name": "allowance",
					"outputs": [
						{
							"internalType": "uint256",
							"name": "",
							"type": "uint256"
						}
					],
					"stateMutability": "view",
					"type": "function"
				},
				{
					"inputs": [
						{
							"internalType": "address",
							"name": "spender",
							"type": "address"
						},
						{
							"internalType": "uint256",
							"name": "amount",
							"type": "uint256"
						}
					],
					"name": "approve",
					"outputs": [
						{
							"internalType": "bool",
							"name": "",
							"type": "bool"
						}
					],
					"stateMutability": "nonpayable",
					"type": "function"
				},
				{
					"inputs": [
						{
							"internalType": "address",
							"name": "account",
							"type": "address"
						}
					],
					"name": "balanceOf",
					"outputs": [
						{
							"internalType": "uint256",
							"name": "",
							"type": "uint256"
						}
					],
					"stateMutability": "view",
					"type": "function"
				},
				{
					"inputs": [
						{
							"internalType": "uint256",
							"name": "amount",
							"type": "uint256"
						}
					],
					"name": "burn",
					"outputs": [],
					"stateMutability": "nonpayable",
					"type": "function"
				},
				{
					"inputs": [
						{
							"internalType": "address",
							"name": "account",
							"type": "address"
						},
						{
							"internalType": "uint256",
							"name": "amount",
							"type": "uint256"
						}
					],
					"name": "burnFrom",
					"outputs": [],
					"stateMutability": "nonpayable",
					"type": "function"
				},
				{
					"inputs": [],
					"name": "decimals",
					"outputs": [
						{
							"internalType": "uint8",
							"name": "",
							"type": "uint8"
						}
					],
					"stateMutability": "view",
					"type": "function"
				},
				{
					"inputs": [
						{
							"internalType": "address",
							"name": "spender",
							"type": "address"
						},
						{
							"internalType": "uint256",
							"name": "subtractedValue",
							"type": "uint256"
						}
					],
					"name": "decreaseAllowance",
					"outputs": [
						{
							"internalType": "bool",
							"name": "",
							"type": "bool"
						}
					],
					"stateMutability": "nonpayable",
					"type": "function"
				},
				{
					"inputs": [],
					"name": "eip712Domain",
					"outputs": [
						{
							"internalType": "bytes1",
							"name": "fields",
							"type": "bytes1"
						},
						{
							"internalType": "string",
							"name": "name",
							"type": "string"
						},
						{
							"internalType": "string",
							"name": "version",
							"type": "string"
						},
						{
							"internalType": "uint256",
							"name": "chainId",
							"type": "uint256"
						},
						{
							"internalType": "address",
							"name": "verifyingContract",
							"type": "address"
						},
						{
							"internalType": "bytes32",
							"name": "salt",
							"type": "bytes32"
						},
						{
							"internalType": "uint256[]",
							"name": "extensions",
							"type": "uint256[]"
						}
					],
					"stateMutability": "view",
					"type": "function"
				},
				{
					"inputs": [
						{
							"internalType": "address",
							"name": "spender",
							"type": "address"
						},
						{
							"internalType": "uint256",
							"name": "addedValue",
							"type": "uint256"
						}
					],
					"name": "increaseAllowance",
					"outputs": [
						{
							"internalType": "bool",
							"name": "",
							"type": "bool"
						}
					],
					"stateMutability": "nonpayable",
					"type": "function"
				},
				{
					"inputs": [],
					"name": "name",
					"outputs": [
						{
							"internalType": "string",
							"name": "",
							"type": "string"
						}
					],
					"stateMutability": "view",
					"type": "function"
				},
				{
					"inputs": [
						{
							"internalType": "address",
							"name": "owner",
							"type": "address"
						}
					],
					"name": "nonces",
					"outputs": [
						{
							"internalType": "uint256",
							"name": "",
							"type": "uint256"
						}
					],
					"stateMutability": "view",
					"type": "function"
				},
				{
					"inputs": [],
					"name": "owner",
					"outputs": [
						{
							"internalType": "address",
							"name": "",
							"type": "address"
						}
					],
					"stateMutability": "view",
					"type": "function"
				},
				{
					"inputs": [
						{
							"internalType": "address",
							"name": "owner",
							"type": "address"
						},
						{
							"internalType": "address",
							"name": "spender",
							"type": "address"
						},
						{
							"internalType": "uint256",
							"name": "value",
							"type": "uint256"
						},
						{
							"internalType": "uint256",
							"name": "deadline",
							"type": "uint256"
						},
						{
							"internalType": "uint8",
							"name": "v",
							"type": "uint8"
						},
						{
							"internalType": "bytes32",
							"name": "r",
							"type": "bytes32"
						},
						{
							"internalType": "bytes32",
							"name": "s",
							"type": "bytes32"
						}
					],
					"name": "permit",
					"outputs": [],
					"stateMutability": "nonpayable",
					"type": "function"
				},
				{
					"inputs": [],
					"name": "renounceOwnership",
					"outputs": [],
					"stateMutability": "nonpayable",
					"type": "function"
				},
				{
					"inputs": [],
					"name": "symbol",
					"outputs": [
						{
							"internalType": "string",
							"name": "",
							"type": "string"
						}
					],
					"stateMutability": "view",
					"type": "function"
				},
				{
					"inputs": [],
					"name": "totalSupply",
					"outputs": [
						{
							"internalType": "uint256",
							"name": "",
							"type": "uint256"
						}
					],
					"stateMutability": "view",
					"type": "function"
				},
				{
					"inputs": [
						{
							"internalType": "address",
							"name": "to",
							"type": "address"
						},
						{
							"internalType": "uint256",
							"name": "amount",
							"type": "uint256"
						}
					],
					"name": "transfer",
					"outputs": [
						{
							"internalType": "bool",
							"name": "",
							"type": "bool"
						}
					],
					"stateMutability": "nonpayable",
					"type": "function"
				},
				{
					"inputs": [
						{
							"internalType": "address",
							"name": "from",
							"type": "address"
						},
						{
							"internalType": "address",
							"name": "to",
							"type": "address"
						},
						{
							"internalType": "uint256",
							"name": "amount",
							"type": "uint256"
						}
					],
					"name": "transferFrom",
					"outputs": [
						{
							"internalType": "bool",
							"name": "",
							"type": "bool"
						}
					],
					"stateMutability": "nonpayable",
					"type": "function"
				},
				{
					"inputs": [
						{
							"internalType": "address",
							"name": "newOwner",
							"type": "address"
						}
					],
					"name": "transferOwnership",
					"outputs": [],
					"stateMutability": "nonpayable",
					"type": "function"
				}
			],
			"devdoc": {
				"events": {
					"Approval(address,address,uint256)": {
						"details": "Emitted when the allowance of a `spender` for an `owner` is set by a call to {approve}. `value` is the new allowance."
					},
					"EIP712DomainChanged()": {
						"details": "MAY be emitted to signal that the domain could have changed."
					},
					"Transfer(address,address,uint256)": {
						"details": "Emitted when `value` tokens are moved from one account (`from`) to another (`to`). Note that `value` may be zero."
					}
				},
				"kind": "dev",
				"methods": {
					"DOMAIN_SEPARATOR()": {
						"details": "See {IERC20Permit-DOMAIN_SEPARATOR}."
					},
					"allowance(address,address)": {
						"details": "See {IERC20-allowance}."
					},
					"approve(address,uint256)": {
						"details": "See {IERC20-approve}. NOTE: If `amount` is the maximum `uint256`, the allowance is not updated on `transferFrom`. This is semantically equivalent to an infinite approval. Requirements: - `spender` cannot be the zero address."
					},
					"balanceOf(address)": {
						"details": "See {IERC20-balanceOf}."
					},
					"burn(uint256)": {
						"details": "Destroys `amount` tokens from the caller. See {ERC20-_burn}."
					},
					"burnFrom(address,uint256)": {
						"details": "Destroys `amount` tokens from `account`, deducting from the caller's allowance. See {ERC20-_burn} and {ERC20-allowance}. Requirements: - the caller must have allowance for ``accounts``'s tokens of at least `amount`."
					},
					"decimals()": {
						"details": "Returns the number of decimals used to get its user representation. For example, if `decimals` equals `2`, a balance of `505` tokens should be displayed to a user as `5.05` (`505 / 10 ** 2`). Tokens usually opt for a value of 18, imitating the relationship between Ether and Wei. This is the default value returned by this function, unless it's overridden. NOTE: This information is only used for _display_ purposes: it in no way affects any of the arithmetic of the contract, including {IERC20-balanceOf} and {IERC20-transfer}."
					},
					"decreaseAllowance(address,uint256)": {
						"details": "Atomically decreases the allowance granted to `spender` by the caller. This is an alternative to {approve} that can be used as a mitigation for problems described in {IERC20-approve}. Emits an {Approval} event indicating the updated allowance. Requirements: - `spender` cannot be the zero address. - `spender` must have allowance for the caller of at least `subtractedValue`."
					},
					"eip712Domain()": {
						"details": "See {EIP-5267}. _Available since v4.9._"
					},
					"increaseAllowance(address,uint256)": {
						"details": "Atomically increases the allowance granted to `spender` by the caller. This is an alternative to {approve} that can be used as a mitigation for problems described in {IERC20-approve}. Emits an {Approval} event indicating the updated allowance. Requirements: - `spender` cannot be the zero address."
					},
					"name()": {
						"details": "Returns the name of the token."
					},
					"nonces(address)": {
						"details": "See {IERC20Permit-nonces}."
					},
					"owner()": {
						"details": "Returns the address of the current owner."
					},
					"permit(address,address,uint256,uint256,uint8,bytes32,bytes32)": {
						"details": "See {IERC20Permit-permit}."
					},
					"renounceOwnership()": {
						"details": "Leaves the contract without owner. It will not be possible to call `onlyOwner` functions. Can only be called by the current owner. NOTE: Renouncing ownership will leave the contract without an owner, thereby disabling any functionality that is only available to the owner."
					},
					"symbol()": {
						"details": "Returns the symbol of the token, usually a shorter version of the name."
					},
					"totalSupply()": {
						"details": "See {IERC20-totalSupply}."
					},
					"transfer(address,uint256)": {
						"details": "See {IERC20-transfer}. Requirements: - `to` cannot be the zero address. - the caller must have a balance of at least `amount`."
					},
					"transferFrom(address,address,uint256)": {
						"details": "See {IERC20-transferFrom}. Emits an {Approval} event indicating the updated allowance. This is not required by the EIP. See the note at the beginning of {ERC20}. NOTE: Does not update the allowance if the current allowance is the maximum `uint256`. Requirements: - `from` and `to` cannot be the zero address. - `from` must have a balance of at least `amount`. - the caller must have allowance for ``from``'s tokens of at least `amount`."
					},
					"transferOwnership(address)": {
						"details": "Transfers ownership of the contract to a new account (`newOwner`). Can only be called by the current owner."
					}
				},
				"version": 1
			},
			"evm": {
				"assembly": "    /* \"token.sol\":212:415  contract Phoenix is ERC20, ERC20Burnable, ERC20Permit, Ownable {... */\n  mstore(0x40, 0x0160)\n    /* \"token.sol\":281:413  constructor() ERC20(\"Phoenix\", \"PHNX\") ERC20Permit(\"Phoenix\") {... */\n  callvalue\n  dup1\n  iszero\n  tag_1\n  jumpi\n  0x00\n  dup1\n  revert\ntag_1:\n  pop\n    /* \"ERC20Permit.sol\":1773:1825  constructor(string memory name) EIP712(name, \"1\") {} */\n  mload(0x40)\n  dup1\n  0x40\n  add\n  0x40\n  mstore\n  dup1\n  0x07\n  dup2\n  mstore\n  0x20\n  add\n  shl(0xcb, 0x0a0d0decadcd2f)\n  dup2\n  mstore\n  pop\n    /* \"ERC20Permit.sol\":1812:1816  name */\n  dup1\n    /* \"EIP712.sol\":3184:3615  constructor(string memory name, string memory version) {... */\n  mload(0x40)\n  dup1\n  0x40\n  add\n  0x40\n  mstore\n  dup1\n  0x01\n  dup2\n  mstore\n  0x20\n  add\n  shl(0xf8, 0x31)\n  dup2\n  mstore\n  pop\n    /* \"ERC20.sol\":1959:2072  constructor(string memory name_, string memory symbol_) {... */\n  mload(0x40)\n  dup1\n  0x40\n  add\n  0x40\n  mstore\n  dup1\n  0x07\n  dup2\n  mstore\n  0x20\n  add\n  shl(0xcb, 0x0a0d0decadcd2f)\n  dup2\n  mstore\n  pop\n  mload(0x40)\n  dup1\n  0x40\n  add\n  0x40\n  mstore\n  dup1\n  0x04\n  dup2\n  mstore\n  0x20\n  add\n  shl(0xe3, 0x0a0909cb)\n  dup2\n  mstore\n  pop\n    /* \"ERC20.sol\":2033:2038  name_ */\n  dup2\n    /* \"ERC20.sol\":2025:2030  _name */\n  0x03\n    /* \"ERC20.sol\":2025:2038  _name = name_ */\n  swap1\n  dup2\n  tag_8\n  swap2\n  swap1\n  tag_9\n  jump\t// in\ntag_8:\n  pop\n    /* \"ERC20.sol\":2048:2055  _symbol */\n  0x04\n    /* \"ERC20.sol\":2048:2065  _symbol = symbol_ */\n  tag_10\n    /* \"ERC20.sol\":2058:2065  symbol_ */\n  dup3\n    /* \"ERC20.sol\":2048:2055  _symbol */\n  dup3\n    /* \"ERC20.sol\":2048:2065  _symbol = symbol_ */\n  tag_9\n  jump\t// in\ntag_10:\n  pop\n    /* \"EIP712.sol\":3257:3302  name.toShortStringWithFallback(_nameFallback) */\n  tag_12\n  swap2\n  pop\n    /* \"EIP712.sol\":3257:3261  name */\n  dup4\n  swap1\n  pop\n    /* \"EIP712.sol\":3288:3301  _nameFallback */\n  0x05\n    /* \"EIP712.sol\":3257:3287  name.toShortStringWithFallback */\n  tag_13\n    /* \"EIP712.sol\":3257:3302  name.toShortStringWithFallback(_nameFallback) */\n  jump\t// in\ntag_12:\n    /* \"EIP712.sol\":3249:3302  _name = name.toShortStringWithFallback(_nameFallback) */\n  0x0120\n  mstore\n    /* \"EIP712.sol\":3323:3374  version.toShortStringWithFallback(_versionFallback) */\n  tag_14\n    /* \"EIP712.sol\":3323:3330  version */\n  dup2\n    /* \"EIP712.sol\":3357:3373  _versionFallback */\n  0x06\n    /* \"EIP712.sol\":3323:3356  version.toShortStringWithFallback */\n  tag_13\n    /* \"EIP712.sol\":3323:3374  version.toShortStringWithFallback(_versionFallback) */\n  jump\t// in\ntag_14:\n    /* \"EIP712.sol\":3312:3374  _version = version.toShortStringWithFallback(_versionFallback) */\n  0x0140\n  mstore\n    /* \"EIP712.sol\":3398:3420  keccak256(bytes(name)) */\n  dup2\n  mload\n  0x20\n  dup1\n  dup5\n  add\n  swap2\n  swap1\n  swap2\n  keccak256\n    /* \"EIP712.sol\":3384:3420  _hashedName = keccak256(bytes(name)) */\n  0xe0\n  mstore\n    /* \"EIP712.sol\":3447:3472  keccak256(bytes(version)) */\n  dup2\n  mload\n  swap1\n  dup3\n  add\n  keccak256\n    /* \"EIP712.sol\":3430:3472  _hashedVersion = keccak256(bytes(version)) */\n  0x0100\n  mstore\n    /* \"EIP712.sol\":3500:3513  block.chainid */\n  chainid\n    /* \"EIP712.sol\":3483:3513  _cachedChainId = block.chainid */\n  0xa0\n  mstore\n    /* \"EIP712.sol\":3548:3571  _buildDomainSeparator() */\n  tag_15\n    /* \"EIP712.sol\":4153:4164  _hashedName */\n  mload(0xe0)\n    /* \"EIP712.sol\":4186:4200  _hashedVersion */\n  mload(0x0100)\n    /* \"EIP712.sol\":4089:4288  abi.encode(... */\n  0x40\n  dup1\n  mload\n    /* \"EIP712.sol\":1913:2030  keccak256(... */\n  0x8b73c3c69bb8fe3d512ecc4cf759cc79239f7b179b0ffacaa9a75d522b39400f\n    /* \"EIP712.sol\":4089:4288  abi.encode(... */\n  0x20\n  dup3\n  add\n    /* \"#utility.yul\":4682:4707   */\n  mstore\n    /* \"#utility.yul\":4723:4741   */\n  swap1\n  dup2\n  add\n    /* \"#utility.yul\":4716:4750   */\n  swap3\n  swap1\n  swap3\n  mstore\n    /* \"#utility.yul\":4766:4784   */\n  0x60\n  dup3\n  add\n    /* \"#utility.yul\":4759:4793   */\n  mstore\n    /* \"EIP712.sol\":4222:4235  block.chainid */\n  chainid\n    /* \"#utility.yul\":4809:4827   */\n  0x80\n  dup3\n  add\n    /* \"#utility.yul\":4802:4836   */\n  mstore\n    /* \"EIP712.sol\":4265:4269  this */\n  address\n    /* \"#utility.yul\":4852:4871   */\n  0xa0\n  dup3\n  add\n    /* \"#utility.yul\":4845:4906   */\n  mstore\n    /* \"EIP712.sol\":4024:4031  bytes32 */\n  0x00\n  swap1\n    /* \"#utility.yul\":4654:4673   */\n  0xc0\n  add\n    /* \"EIP712.sol\":4089:4288  abi.encode(... */\n  mload(0x40)\n  0x20\n  dup2\n  dup4\n  sub\n  sub\n  dup2\n  mstore\n  swap1\n  0x40\n  mstore\n    /* \"EIP712.sol\":4062:4302  keccak256(... */\n  dup1\n  mload\n  swap1\n  0x20\n  add\n  keccak256\n    /* \"EIP712.sol\":4043:4302  return... */\n  swap1\n  pop\n    /* \"EIP712.sol\":3969:4309  function _buildDomainSeparator() private view returns (bytes32) {... */\n  swap1\n  jump\n    /* \"EIP712.sol\":3548:3571  _buildDomainSeparator() */\ntag_15:\n    /* \"EIP712.sol\":3523:3571  _cachedDomainSeparator = _buildDomainSeparator() */\n  0x80\n  mstore\n  pop\n  pop\n    /* \"EIP712.sol\":3603:3607  this */\n  address\n    /* \"EIP712.sol\":3581:3608  _cachedThis = address(this) */\n  0xc0\n  mstore\n  pop\n    /* \"Ownable.sol\":951:983  _transferOwnership(_msgSender()) */\n  tag_19\n    /* \"Context.sol\":719:729  msg.sender */\n  caller\n    /* \"Ownable.sol\":951:969  _transferOwnership */\n  tag_22\n    /* \"Ownable.sol\":951:983  _transferOwnership(_msgSender()) */\n  jump\t// in\ntag_19:\n    /* \"token.sol\":353:406  _mint(msg.sender, 100000000000000 * 10 ** decimals()) */\n  tag_24\n    /* \"token.sol\":359:369  msg.sender */\n  caller\n    /* \"token.sol\":389:405  10 ** decimals() */\n  tag_27\n    /* \"ERC20.sol\":3165:3167  18 */\n  0x12\n    /* \"token.sol\":389:391  10 */\n  0x0a\n    /* \"token.sol\":389:405  10 ** decimals() */\n  tag_28\n  jump\t// in\ntag_27:\n    /* \"token.sol\":371:405  100000000000000 * 10 ** decimals() */\n  tag_29\n  swap1\n    /* \"token.sol\":371:386  100000000000000 */\n  0x5af3107a4000\n    /* \"token.sol\":371:405  100000000000000 * 10 ** decimals() */\n  tag_30\n  jump\t// in\ntag_29:\n    /* \"token.sol\":353:358  _mint */\n  tag_31\n    /* \"token.sol\":353:406  _mint(msg.sender, 100000000000000 * 10 ** decimals()) */\n  jump\t// in\ntag_24:\n    /* \"token.sol\":212:415  contract Phoenix is ERC20, ERC20Burnable, ERC20Permit, Ownable {... */\n  jump(tag_76)\n    /* \"ShortStrings.sol\":2895:3236  function toShortStringWithFallback(string memory value, string storage store) internal returns (ShortString) {... */\ntag_13:\n    /* \"ShortStrings.sol\":2991:3002  ShortString */\n  0x00\n    /* \"ShortStrings.sol\":3040:3042  32 */\n  0x20\n    /* \"ShortStrings.sol\":3024:3029  value */\n  dup4\n    /* \"ShortStrings.sol\":3018:3037  bytes(value).length */\n  mload\n    /* \"ShortStrings.sol\":3018:3042  bytes(value).length < 32 */\n  lt\n    /* \"ShortStrings.sol\":3014:3230  if (bytes(value).length < 32) {... */\n  iszero\n  tag_34\n  jumpi\n    /* \"ShortStrings.sol\":3065:3085  toShortString(value) */\n  tag_35\n    /* \"ShortStrings.sol\":3079:3084  value */\n  dup4\n    /* \"ShortStrings.sol\":3065:3078  toShortString */\n  tag_36\n    /* \"ShortStrings.sol\":3065:3085  toShortString(value) */\n  jump\t// in\ntag_35:\n    /* \"ShortStrings.sol\":3058:3085  return toShortString(value) */\n  swap1\n  pop\n  jump(tag_37)\n    /* \"ShortStrings.sol\":3014:3230  if (bytes(value).length < 32) {... */\ntag_34:\n    /* \"ShortStrings.sol\":3142:3147  store */\n  dup2\n    /* \"ShortStrings.sol\":3116:3162  StorageSlot.getStringSlot(store).value = value */\n  tag_40\n    /* \"ShortStrings.sol\":3157:3162  value */\n  dup5\n    /* \"ShortStrings.sol\":3142:3147  store */\n  dup3\n    /* \"ShortStrings.sol\":3116:3162  StorageSlot.getStringSlot(store).value = value */\n  tag_9\n  jump\t// in\ntag_40:\n  pop\n    /* \"ShortStrings.sol\":1371:1437  0x00000000000000000000000000000000000000000000000000000000000000FF */\n  0xff\n  swap1\n  pop\n    /* \"ShortStrings.sol\":3014:3230  if (bytes(value).length < 32) {... */\ntag_37:\n    /* \"ShortStrings.sol\":2895:3236  function toShortStringWithFallback(string memory value, string storage store) internal returns (ShortString) {... */\n  swap3\n  swap2\n  pop\n  pop\n  jump\t// out\n    /* \"Ownable.sol\":2475:2662  function _transferOwnership(address newOwner) internal virtual {... */\ntag_22:\n    /* \"Ownable.sol\":2567:2573  _owner */\n  0x09\n  dup1\n  sload\n  sub(shl(0xa0, 0x01), 0x01)\n    /* \"Ownable.sol\":2583:2600  _owner = newOwner */\n  dup4\n  dup2\n  and\n  not(sub(shl(0xa0, 0x01), 0x01))\n  dup4\n  and\n  dup2\n  or\n  swap1\n  swap4\n  sstore\n    /* \"Ownable.sol\":2615:2655  OwnershipTransferred(oldOwner, newOwner) */\n  mload(0x40)\n    /* \"Ownable.sol\":2567:2573  _owner */\n  swap2\n  and\n  swap2\n    /* \"Ownable.sol\":2583:2600  _owner = newOwner */\n  swap1\n    /* \"Ownable.sol\":2567:2573  _owner */\n  dup3\n  swap1\n    /* \"Ownable.sol\":2615:2655  OwnershipTransferred(oldOwner, newOwner) */\n  0x8be0079c531659141344cd1fd0a4f28419497f9722a3daafe3b4186f6b6457e0\n  swap1\n    /* \"Ownable.sol\":2548:2564  address oldOwner */\n  0x00\n  swap1\n    /* \"Ownable.sol\":2615:2655  OwnershipTransferred(oldOwner, newOwner) */\n  log3\n    /* \"Ownable.sol\":2538:2662  {... */\n  pop\n    /* \"Ownable.sol\":2475:2662  function _transferOwnership(address newOwner) internal virtual {... */\n  pop\n  jump\t// out\n    /* \"ERC20.sol\":8751:9286  function _mint(address account, uint256 amount) internal virtual {... */\ntag_31:\n  sub(shl(0xa0, 0x01), 0x01)\n    /* \"ERC20.sol\":8834:8855  account != address(0) */\n  dup3\n  and\n    /* \"ERC20.sol\":8826:8891  require(account != address(0), \"ERC20: mint to the zero address\") */\n  tag_48\n  jumpi\n  mload(0x40)\n  shl(0xe5, 0x461bcd)\n  dup2\n  mstore\n    /* \"#utility.yul\":5119:5121   */\n  0x20\n    /* \"ERC20.sol\":8826:8891  require(account != address(0), \"ERC20: mint to the zero address\") */\n  0x04\n  dup3\n  add\n    /* \"#utility.yul\":5101:5122   */\n  mstore\n    /* \"#utility.yul\":5158:5160   */\n  0x1f\n    /* \"#utility.yul\":5138:5156   */\n  0x24\n  dup3\n  add\n    /* \"#utility.yul\":5131:5161   */\n  mstore\n    /* \"#utility.yul\":5197:5230   */\n  0x45524332303a206d696e7420746f20746865207a65726f206164647265737300\n    /* \"#utility.yul\":5177:5195   */\n  0x44\n  dup3\n  add\n    /* \"#utility.yul\":5170:5231   */\n  mstore\n    /* \"#utility.yul\":5248:5266   */\n  0x64\n  add\n    /* \"ERC20.sol\":8826:8891  require(account != address(0), \"ERC20: mint to the zero address\") */\ntag_49:\n  mload(0x40)\n  dup1\n  swap2\n  sub\n  swap1\n  revert\ntag_48:\n    /* \"ERC20.sol\":8978:8984  amount */\n  dup1\n    /* \"ERC20.sol\":8962:8974  _totalSupply */\n  0x02\n  0x00\n    /* \"ERC20.sol\":8962:8984  _totalSupply += amount */\n  dup3\n  dup3\n  sload\n  tag_53\n  swap2\n  swap1\n  tag_54\n  jump\t// in\ntag_53:\n  swap1\n  swap2\n  sstore\n  pop\n  pop\n  sub(shl(0xa0, 0x01), 0x01)\n    /* \"ERC20.sol\":9130:9148  _balances[account] */\n  dup3\n  and\n    /* \"ERC20.sol\":9130:9139  _balances */\n  0x00\n    /* \"ERC20.sol\":9130:9148  _balances[account] */\n  dup2\n  dup2\n  mstore\n  0x20\n  dup2\n  dup2\n  mstore\n  0x40\n  dup1\n  dup4\n  keccak256\n    /* \"ERC20.sol\":9130:9158  _balances[account] += amount */\n  dup1\n  sload\n  dup7\n  add\n  swap1\n  sstore\n    /* \"ERC20.sol\":9183:9220  Transfer(address(0), account, amount) */\n  mload\n    /* \"#utility.yul\":5553:5578   */\n  dup5\n  dup2\n  mstore\n    /* \"ERC20.sol\":9183:9220  Transfer(address(0), account, amount) */\n  0xddf252ad1be2c89b69c2b068fc378daa952ba7f163c4a11628f55a4df523b3ef\n  swap2\n    /* \"#utility.yul\":5526:5544   */\n  add\n    /* \"ERC20.sol\":9183:9220  Transfer(address(0), account, amount) */\n  mload(0x40)\n  dup1\n  swap2\n  sub\n  swap1\n  log3\n    /* \"ERC20.sol\":8751:9286  function _mint(address account, uint256 amount) internal virtual {... */\n  pop\n  pop\n  jump\t// out\n    /* \"ShortStrings.sol\":1689:1975  function toShortString(string memory str) internal pure returns (ShortString) {... */\ntag_36:\n    /* \"ShortStrings.sol\":1754:1765  ShortString */\n  0x00\n    /* \"ShortStrings.sol\":1777:1794  bytes memory bstr */\n  dup1\n    /* \"ShortStrings.sol\":1803:1806  str */\n  dup3\n    /* \"ShortStrings.sol\":1777:1807  bytes memory bstr = bytes(str) */\n  swap1\n  pop\n    /* \"ShortStrings.sol\":1835:1837  31 */\n  0x1f\n    /* \"ShortStrings.sol\":1821:1825  bstr */\n  dup2\n    /* \"ShortStrings.sol\":1821:1832  bstr.length */\n  mload\n    /* \"ShortStrings.sol\":1821:1837  bstr.length > 31 */\n  gt\n    /* \"ShortStrings.sol\":1817:1889  if (bstr.length > 31) {... */\n  iszero\n  tag_60\n  jumpi\n    /* \"ShortStrings.sol\":1874:1877  str */\n  dup3\n    /* \"ShortStrings.sol\":1860:1878  StringTooLong(str) */\n  mload(0x40)\n  shl(0xe0, 0x305a27a9)\n  dup2\n  mstore\n  0x04\n  add\n  tag_49\n  swap2\n  swap1\n  tag_62\n  jump\t// in\n    /* \"ShortStrings.sol\":1817:1889  if (bstr.length > 31) {... */\ntag_60:\n    /* \"ShortStrings.sol\":1955:1966  bstr.length */\n  dup1\n  mload\n    /* \"ShortStrings.sol\":1938:1951  bytes32(bstr) */\n  tag_63\n    /* \"ShortStrings.sol\":1955:1959  bstr */\n  dup3\n    /* \"ShortStrings.sol\":1938:1951  bytes32(bstr) */\n  tag_64\n  jump\t// in\ntag_63:\n    /* \"ShortStrings.sol\":1930:1966  uint256(bytes32(bstr)) | bstr.length */\n  or\n  swap4\n    /* \"ShortStrings.sol\":1689:1975  function toShortString(string memory str) internal pure returns (ShortString) {... */\n  swap3\n  pop\n  pop\n  pop\n  jump\t// out\n    /* \"ERC20.sol\":12410:12531  function _beforeTokenTransfer(... */\ntag_52:\n  pop\n  pop\n  pop\n  jump\t// out\n    /* \"#utility.yul\":14:141   */\ntag_68:\n    /* \"#utility.yul\":75:85   */\n  0x4e487b71\n    /* \"#utility.yul\":70:73   */\n  0xe0\n    /* \"#utility.yul\":66:86   */\n  shl\n    /* \"#utility.yul\":63:64   */\n  0x00\n    /* \"#utility.yul\":56:87   */\n  mstore\n    /* \"#utility.yul\":106:110   */\n  0x41\n    /* \"#utility.yul\":103:104   */\n  0x04\n    /* \"#utility.yul\":96:111   */\n  mstore\n    /* \"#utility.yul\":130:134   */\n  0x24\n    /* \"#utility.yul\":127:128   */\n  0x00\n    /* \"#utility.yul\":120:135   */\n  revert\n    /* \"#utility.yul\":146:526   */\ntag_69:\n    /* \"#utility.yul\":225:226   */\n  0x01\n    /* \"#utility.yul\":221:233   */\n  dup2\n  dup2\n  shr\n  swap1\n    /* \"#utility.yul\":268:280   */\n  dup3\n  and\n  dup1\n    /* \"#utility.yul\":289:350   */\n  tag_79\n  jumpi\n    /* \"#utility.yul\":343:347   */\n  0x7f\n    /* \"#utility.yul\":335:341   */\n  dup3\n    /* \"#utility.yul\":331:348   */\n  and\n    /* \"#utility.yul\":321:348   */\n  swap2\n  pop\n    /* \"#utility.yul\":289:350   */\ntag_79:\n    /* \"#utility.yul\":396:398   */\n  0x20\n    /* \"#utility.yul\":388:394   */\n  dup3\n    /* \"#utility.yul\":385:399   */\n  lt\n    /* \"#utility.yul\":365:383   */\n  dup2\n    /* \"#utility.yul\":362:400   */\n  sub\n    /* \"#utility.yul\":359:520   */\n  tag_80\n  jumpi\n    /* \"#utility.yul\":442:452   */\n  0x4e487b71\n    /* \"#utility.yul\":437:440   */\n  0xe0\n    /* \"#utility.yul\":433:453   */\n  shl\n    /* \"#utility.yul\":430:431   */\n  0x00\n    /* \"#utility.yul\":423:454   */\n  mstore\n    /* \"#utility.yul\":477:481   */\n  0x22\n    /* \"#utility.yul\":474:475   */\n  0x04\n    /* \"#utility.yul\":467:482   */\n  mstore\n    /* \"#utility.yul\":505:509   */\n  0x24\n    /* \"#utility.yul\":502:503   */\n  0x00\n    /* \"#utility.yul\":495:510   */\n  revert\n    /* \"#utility.yul\":359:520   */\ntag_80:\n  pop\n    /* \"#utility.yul\":146:526   */\n  swap2\n  swap1\n  pop\n  jump\t// out\n    /* \"#utility.yul\":657:1202   */\ntag_71:\n    /* \"#utility.yul\":759:761   */\n  0x1f\n    /* \"#utility.yul\":754:757   */\n  dup3\n    /* \"#utility.yul\":751:762   */\n  gt\n    /* \"#utility.yul\":748:1196   */\n  iszero\n  tag_52\n  jumpi\n    /* \"#utility.yul\":795:796   */\n  0x00\n    /* \"#utility.yul\":820:825   */\n  dup2\n    /* \"#utility.yul\":816:818   */\n  dup2\n    /* \"#utility.yul\":809:826   */\n  mstore\n    /* \"#utility.yul\":865:869   */\n  0x20\n    /* \"#utility.yul\":861:863   */\n  dup2\n    /* \"#utility.yul\":851:870   */\n  keccak256\n    /* \"#utility.yul\":935:937   */\n  0x1f\n    /* \"#utility.yul\":923:933   */\n  dup6\n    /* \"#utility.yul\":919:938   */\n  add\n    /* \"#utility.yul\":916:917   */\n  0x05\n    /* \"#utility.yul\":912:939   */\n  shr\n    /* \"#utility.yul\":906:910   */\n  dup2\n    /* \"#utility.yul\":902:940   */\n  add\n    /* \"#utility.yul\":971:975   */\n  0x20\n    /* \"#utility.yul\":959:969   */\n  dup7\n    /* \"#utility.yul\":956:976   */\n  lt\n    /* \"#utility.yul\":953:1000   */\n  iszero\n  tag_84\n  jumpi\n  pop\n    /* \"#utility.yul\":994:998   */\n  dup1\n    /* \"#utility.yul\":953:1000   */\ntag_84:\n    /* \"#utility.yul\":1049:1051   */\n  0x1f\n    /* \"#utility.yul\":1044:1047   */\n  dup6\n    /* \"#utility.yul\":1040:1052   */\n  add\n    /* \"#utility.yul\":1037:1038   */\n  0x05\n    /* \"#utility.yul\":1033:1053   */\n  shr\n    /* \"#utility.yul\":1027:1031   */\n  dup3\n    /* \"#utility.yul\":1023:1054   */\n  add\n    /* \"#utility.yul\":1013:1054   */\n  swap2\n  pop\n    /* \"#utility.yul\":1104:1186   */\ntag_85:\n    /* \"#utility.yul\":1122:1124   */\n  dup2\n    /* \"#utility.yul\":1115:1120   */\n  dup2\n    /* \"#utility.yul\":1112:1125   */\n  lt\n    /* \"#utility.yul\":1104:1186   */\n  iszero\n  tag_87\n  jumpi\n    /* \"#utility.yul\":1167:1184   */\n  dup3\n  dup2\n  sstore\n    /* \"#utility.yul\":1148:1149   */\n  0x01\n    /* \"#utility.yul\":1137:1150   */\n  add\n    /* \"#utility.yul\":1104:1186   */\n  jump(tag_85)\ntag_87:\n    /* \"#utility.yul\":1108:1111   */\n  pop\n  pop\n  pop\n    /* \"#utility.yul\":657:1202   */\n  pop\n  pop\n  pop\n  jump\t// out\n    /* \"#utility.yul\":1378:2730   */\ntag_9:\n    /* \"#utility.yul\":1498:1508   */\n  dup2\n  mload\n  sub(shl(0x40, 0x01), 0x01)\n    /* \"#utility.yul\":1520:1550   */\n  dup2\n  gt\n    /* \"#utility.yul\":1517:1573   */\n  iszero\n  tag_91\n  jumpi\n    /* \"#utility.yul\":1553:1571   */\n  tag_91\n  tag_68\n  jump\t// in\ntag_91:\n    /* \"#utility.yul\":1582:1679   */\n  tag_92\n    /* \"#utility.yul\":1672:1678   */\n  dup2\n    /* \"#utility.yul\":1632:1670   */\n  tag_93\n    /* \"#utility.yul\":1664:1668   */\n  dup5\n    /* \"#utility.yul\":1658:1669   */\n  sload\n    /* \"#utility.yul\":1632:1670   */\n  tag_69\n  jump\t// in\ntag_93:\n    /* \"#utility.yul\":1626:1630   */\n  dup5\n    /* \"#utility.yul\":1582:1679   */\n  tag_71\n  jump\t// in\ntag_92:\n    /* \"#utility.yul\":1734:1738   */\n  0x20\n  dup1\n    /* \"#utility.yul\":1798:1800   */\n  0x1f\n    /* \"#utility.yul\":1787:1801   */\n  dup4\n  gt\n    /* \"#utility.yul\":1815:1816   */\n  0x01\n    /* \"#utility.yul\":1810:2473   */\n  dup2\n  eq\n  tag_95\n  jumpi\n    /* \"#utility.yul\":2517:2518   */\n  0x00\n    /* \"#utility.yul\":2534:2540   */\n  dup5\n    /* \"#utility.yul\":2531:2620   */\n  iszero\n  tag_96\n  jumpi\n  pop\n    /* \"#utility.yul\":2586:2605   */\n  dup6\n  dup4\n  add\n    /* \"#utility.yul\":2580:2606   */\n  mload\n    /* \"#utility.yul\":2531:2620   */\ntag_96:\n  not(0x00)\n    /* \"#utility.yul\":1335:1336   */\n  0x03\n    /* \"#utility.yul\":1331:1342   */\n  dup7\n  swap1\n  shl\n    /* \"#utility.yul\":1327:1351   */\n  shr\n    /* \"#utility.yul\":1323:1352   */\n  not\n    /* \"#utility.yul\":1313:1353   */\n  and\n    /* \"#utility.yul\":1359:1360   */\n  0x01\n    /* \"#utility.yul\":1355:1366   */\n  dup6\n  swap1\n  shl\n    /* \"#utility.yul\":1310:1367   */\n  or\n    /* \"#utility.yul\":2633:2714   */\n  dup6\n  sstore\n    /* \"#utility.yul\":1780:2724   */\n  jump(tag_87)\n    /* \"#utility.yul\":1810:2473   */\ntag_95:\n    /* \"#utility.yul\":604:605   */\n  0x00\n    /* \"#utility.yul\":597:611   */\n  dup6\n  dup2\n  mstore\n    /* \"#utility.yul\":641:645   */\n  0x20\n    /* \"#utility.yul\":628:646   */\n  dup2\n  keccak256\n  not(0x1f)\n    /* \"#utility.yul\":1846:1866   */\n  dup7\n  and\n  swap2\n    /* \"#utility.yul\":1964:2200   */\ntag_99:\n    /* \"#utility.yul\":1978:1985   */\n  dup3\n    /* \"#utility.yul\":1975:1976   */\n  dup2\n    /* \"#utility.yul\":1972:1986   */\n  lt\n    /* \"#utility.yul\":1964:2200   */\n  iszero\n  tag_101\n  jumpi\n    /* \"#utility.yul\":2067:2086   */\n  dup9\n  dup7\n  add\n    /* \"#utility.yul\":2061:2087   */\n  mload\n    /* \"#utility.yul\":2046:2088   */\n  dup3\n  sstore\n    /* \"#utility.yul\":2159:2186   */\n  swap5\n  dup5\n  add\n  swap5\n    /* \"#utility.yul\":2127:2128   */\n  0x01\n    /* \"#utility.yul\":2115:2129   */\n  swap1\n  swap2\n  add\n  swap1\n    /* \"#utility.yul\":1994:2013   */\n  dup5\n  add\n    /* \"#utility.yul\":1964:2200   */\n  jump(tag_99)\ntag_101:\n    /* \"#utility.yul\":1968:1971   */\n  pop\n    /* \"#utility.yul\":2228:2234   */\n  dup6\n    /* \"#utility.yul\":2219:2226   */\n  dup3\n    /* \"#utility.yul\":2216:2235   */\n  lt\n    /* \"#utility.yul\":2213:2414   */\n  iszero\n  tag_102\n  jumpi\n    /* \"#utility.yul\":2289:2308   */\n  dup8\n  dup6\n  add\n    /* \"#utility.yul\":2283:2309   */\n  mload\n  not(0x00)\n    /* \"#utility.yul\":2372:2373   */\n  0x03\n    /* \"#utility.yul\":2368:2382   */\n  dup9\n  swap1\n  shl\n    /* \"#utility.yul\":2384:2387   */\n  0xf8\n    /* \"#utility.yul\":2364:2388   */\n  and\n    /* \"#utility.yul\":2360:2397   */\n  shr\n    /* \"#utility.yul\":2356:2398   */\n  not\n    /* \"#utility.yul\":2341:2399   */\n  and\n    /* \"#utility.yul\":2326:2400   */\n  dup2\n  sstore\n    /* \"#utility.yul\":2213:2414   */\ntag_102:\n  pop\n  pop\n  pop\n  pop\n  pop\n    /* \"#utility.yul\":2460:2461   */\n  0x01\n    /* \"#utility.yul\":2444:2458   */\n  swap1\n  dup2\n  shl\n    /* \"#utility.yul\":2440:2462   */\n  add\n    /* \"#utility.yul\":2427:2463   */\n  swap1\n  sstore\n  pop\n    /* \"#utility.yul\":1378:2730   */\n  jump\t// out\n    /* \"#utility.yul\":2735:2862   */\ntag_73:\n    /* \"#utility.yul\":2796:2806   */\n  0x4e487b71\n    /* \"#utility.yul\":2791:2794   */\n  0xe0\n    /* \"#utility.yul\":2787:2807   */\n  shl\n    /* \"#utility.yul\":2784:2785   */\n  0x00\n    /* \"#utility.yul\":2777:2808   */\n  mstore\n    /* \"#utility.yul\":2827:2831   */\n  0x11\n    /* \"#utility.yul\":2824:2825   */\n  0x04\n    /* \"#utility.yul\":2817:2832   */\n  mstore\n    /* \"#utility.yul\":2851:2855   */\n  0x24\n    /* \"#utility.yul\":2848:2849   */\n  0x00\n    /* \"#utility.yul\":2841:2856   */\n  revert\n    /* \"#utility.yul\":2867:3289   */\ntag_74:\n    /* \"#utility.yul\":2956:2957   */\n  0x01\n    /* \"#utility.yul\":2999:3004   */\n  dup2\n    /* \"#utility.yul\":2956:2957   */\n  dup2\n    /* \"#utility.yul\":3013:3283   */\ntag_105:\n    /* \"#utility.yul\":3034:3041   */\n  dup1\n    /* \"#utility.yul\":3024:3032   */\n  dup6\n    /* \"#utility.yul\":3021:3042   */\n  gt\n    /* \"#utility.yul\":3013:3283   */\n  iszero\n  tag_107\n  jumpi\n    /* \"#utility.yul\":3093:3097   */\n  dup2\n    /* \"#utility.yul\":3089:3090   */\n  0x00\n    /* \"#utility.yul\":3085:3091   */\n  not\n    /* \"#utility.yul\":3081:3098   */\n  div\n    /* \"#utility.yul\":3075:3079   */\n  dup3\n    /* \"#utility.yul\":3072:3099   */\n  gt\n    /* \"#utility.yul\":3069:3122   */\n  iszero\n  tag_109\n  jumpi\n    /* \"#utility.yul\":3102:3120   */\n  tag_109\n  tag_73\n  jump\t// in\ntag_109:\n    /* \"#utility.yul\":3152:3159   */\n  dup1\n    /* \"#utility.yul\":3142:3150   */\n  dup6\n    /* \"#utility.yul\":3138:3160   */\n  and\n    /* \"#utility.yul\":3135:3190   */\n  iszero\n  tag_110\n  jumpi\n    /* \"#utility.yul\":3172:3188   */\n  swap2\n  dup2\n  mul\n  swap2\n    /* \"#utility.yul\":3135:3190   */\ntag_110:\n    /* \"#utility.yul\":3251:3273   */\n  swap4\n  dup5\n  shr\n  swap4\n    /* \"#utility.yul\":3211:3226   */\n  swap1\n  dup1\n  mul\n  swap1\n    /* \"#utility.yul\":3013:3283   */\n  jump(tag_105)\ntag_107:\n    /* \"#utility.yul\":3017:3020   */\n  pop\n    /* \"#utility.yul\":2867:3289   */\n  swap3\n  pop\n  swap3\n  swap1\n  pop\n  jump\t// out\n    /* \"#utility.yul\":3294:4100   */\ntag_75:\n    /* \"#utility.yul\":3343:3348   */\n  0x00\n    /* \"#utility.yul\":3373:3381   */\n  dup3\n    /* \"#utility.yul\":3363:3443   */\n  tag_112\n  jumpi\n  pop\n    /* \"#utility.yul\":3414:3415   */\n  0x01\n    /* \"#utility.yul\":3428:3433   */\n  jump(tag_37)\n    /* \"#utility.yul\":3363:3443   */\ntag_112:\n    /* \"#utility.yul\":3462:3466   */\n  dup2\n    /* \"#utility.yul\":3452:3528   */\n  tag_113\n  jumpi\n  pop\n    /* \"#utility.yul\":3499:3500   */\n  0x00\n    /* \"#utility.yul\":3513:3518   */\n  jump(tag_37)\n    /* \"#utility.yul\":3452:3528   */\ntag_113:\n    /* \"#utility.yul\":3544:3548   */\n  dup2\n    /* \"#utility.yul\":3562:3563   */\n  0x01\n    /* \"#utility.yul\":3557:3616   */\n  dup2\n  eq\n  tag_115\n  jumpi\n    /* \"#utility.yul\":3630:3631   */\n  0x02\n    /* \"#utility.yul\":3625:3755   */\n  dup2\n  eq\n  tag_116\n  jumpi\n    /* \"#utility.yul\":3537:3755   */\n  jump(tag_114)\n    /* \"#utility.yul\":3557:3616   */\ntag_115:\n    /* \"#utility.yul\":3587:3588   */\n  0x01\n    /* \"#utility.yul\":3578:3588   */\n  swap2\n  pop\n    /* \"#utility.yul\":3601:3606   */\n  pop\n  jump(tag_37)\n    /* \"#utility.yul\":3625:3755   */\ntag_116:\n    /* \"#utility.yul\":3662:3665   */\n  0xff\n    /* \"#utility.yul\":3652:3660   */\n  dup5\n    /* \"#utility.yul\":3649:3666   */\n  gt\n    /* \"#utility.yul\":3646:3689   */\n  iszero\n  tag_118\n  jumpi\n    /* \"#utility.yul\":3669:3687   */\n  tag_118\n  tag_73\n  jump\t// in\ntag_118:\n  pop\n  pop\n    /* \"#utility.yul\":3725:3726   */\n  0x01\n    /* \"#utility.yul\":3711:3727   */\n  dup3\n  shl\n    /* \"#utility.yul\":3740:3745   */\n  jump(tag_37)\n    /* \"#utility.yul\":3537:3755   */\ntag_114:\n  pop\n    /* \"#utility.yul\":3839:3841   */\n  0x20\n    /* \"#utility.yul\":3829:3837   */\n  dup4\n    /* \"#utility.yul\":3826:3842   */\n  lt\n    /* \"#utility.yul\":3820:3823   */\n  0x0133\n    /* \"#utility.yul\":3814:3818   */\n  dup4\n    /* \"#utility.yul\":3811:3824   */\n  lt\n    /* \"#utility.yul\":3807:3843   */\n  and\n    /* \"#utility.yul\":3801:3803   */\n  0x4e\n    /* \"#utility.yul\":3791:3799   */\n  dup5\n    /* \"#utility.yul\":3788:3804   */\n  lt\n    /* \"#utility.yul\":3783:3785   */\n  0x0b\n    /* \"#utility.yul\":3777:3781   */\n  dup5\n    /* \"#utility.yul\":3774:3786   */\n  lt\n    /* \"#utility.yul\":3770:3805   */\n  and\n    /* \"#utility.yul\":3767:3844   */\n  or\n    /* \"#utility.yul\":3764:3923   */\n  iszero\n  tag_119\n  jumpi\n  pop\n    /* \"#utility.yul\":3876:3895   */\n  dup2\n  dup2\n  exp\n    /* \"#utility.yul\":3908:3913   */\n  jump(tag_37)\n    /* \"#utility.yul\":3764:3923   */\ntag_119:\n    /* \"#utility.yul\":3955:3989   */\n  tag_120\n    /* \"#utility.yul\":3980:3988   */\n  dup4\n    /* \"#utility.yul\":3974:3978   */\n  dup4\n    /* \"#utility.yul\":3955:3989   */\n  tag_74\n  jump\t// in\ntag_120:\n    /* \"#utility.yul\":4025:4031   */\n  dup1\n    /* \"#utility.yul\":4021:4022   */\n  0x00\n    /* \"#utility.yul\":4017:4023   */\n  not\n    /* \"#utility.yul\":4013:4032   */\n  div\n    /* \"#utility.yul\":4004:4011   */\n  dup3\n    /* \"#utility.yul\":4001:4033   */\n  gt\n    /* \"#utility.yul\":3998:4056   */\n  iszero\n  tag_122\n  jumpi\n    /* \"#utility.yul\":4036:4054   */\n  tag_122\n  tag_73\n  jump\t// in\ntag_122:\n    /* \"#utility.yul\":4074:4094   */\n  mul\n  swap4\n    /* \"#utility.yul\":3294:4100   */\n  swap3\n  pop\n  pop\n  pop\n  jump\t// out\n    /* \"#utility.yul\":4105:4245   */\ntag_28:\n    /* \"#utility.yul\":4163:4168   */\n  0x00\n    /* \"#utility.yul\":4192:4239   */\n  tag_124\n    /* \"#utility.yul\":4233:4237   */\n  0xff\n    /* \"#utility.yul\":4223:4231   */\n  dup5\n    /* \"#utility.yul\":4219:4238   */\n  and\n    /* \"#utility.yul\":4213:4217   */\n  dup4\n    /* \"#utility.yul\":4192:4239   */\n  tag_75\n  jump\t// in\ntag_124:\n    /* \"#utility.yul\":4183:4239   */\n  swap4\n    /* \"#utility.yul\":4105:4245   */\n  swap3\n  pop\n  pop\n  pop\n  jump\t// out\n    /* \"#utility.yul\":4250:4418   */\ntag_30:\n    /* \"#utility.yul\":4323:4332   */\n  dup1\n  dup3\n  mul\n    /* \"#utility.yul\":4354:4363   */\n  dup2\n  iszero\n    /* \"#utility.yul\":4371:4386   */\n  dup3\n  dup3\n  div\n    /* \"#utility.yul\":4365:4387   */\n  dup5\n  eq\n    /* \"#utility.yul\":4351:4388   */\n  or\n    /* \"#utility.yul\":4341:4412   */\n  tag_37\n  jumpi\n    /* \"#utility.yul\":4392:4410   */\n  tag_37\n  tag_73\n  jump\t// in\n    /* \"#utility.yul\":5277:5402   */\ntag_54:\n    /* \"#utility.yul\":5342:5351   */\n  dup1\n  dup3\n  add\n    /* \"#utility.yul\":5363:5373   */\n  dup1\n  dup3\n  gt\n    /* \"#utility.yul\":5360:5396   */\n  iszero\n  tag_37\n  jumpi\n    /* \"#utility.yul\":5376:5394   */\n  tag_37\n  tag_73\n  jump\t// in\n    /* \"#utility.yul\":5589:6137   */\ntag_62:\n    /* \"#utility.yul\":5701:5705   */\n  0x00\n    /* \"#utility.yul\":5730:5732   */\n  0x20\n    /* \"#utility.yul\":5759:5761   */\n  dup1\n    /* \"#utility.yul\":5748:5757   */\n  dup4\n    /* \"#utility.yul\":5741:5762   */\n  mstore\n    /* \"#utility.yul\":5791:5797   */\n  dup4\n    /* \"#utility.yul\":5785:5798   */\n  mload\n    /* \"#utility.yul\":5834:5840   */\n  dup1\n    /* \"#utility.yul\":5829:5831   */\n  dup3\n    /* \"#utility.yul\":5818:5827   */\n  dup6\n    /* \"#utility.yul\":5814:5832   */\n  add\n    /* \"#utility.yul\":5807:5841   */\n  mstore\n    /* \"#utility.yul\":5859:5860   */\n  0x00\n    /* \"#utility.yul\":5869:6009   */\ntag_135:\n    /* \"#utility.yul\":5883:5889   */\n  dup2\n    /* \"#utility.yul\":5880:5881   */\n  dup2\n    /* \"#utility.yul\":5877:5890   */\n  lt\n    /* \"#utility.yul\":5869:6009   */\n  iszero\n  tag_137\n  jumpi\n    /* \"#utility.yul\":5978:5992   */\n  dup6\n  dup2\n  add\n    /* \"#utility.yul\":5974:5997   */\n  dup4\n  add\n    /* \"#utility.yul\":5968:5998   */\n  mload\n    /* \"#utility.yul\":5944:5961   */\n  dup6\n  dup3\n  add\n    /* \"#utility.yul\":5963:5965   */\n  0x40\n    /* \"#utility.yul\":5940:5966   */\n  add\n    /* \"#utility.yul\":5933:5999   */\n  mstore\n    /* \"#utility.yul\":5898:5908   */\n  dup3\n  add\n    /* \"#utility.yul\":5869:6009   */\n  jump(tag_135)\ntag_137:\n    /* \"#utility.yul\":5873:5876   */\n  pop\n    /* \"#utility.yul\":6058:6059   */\n  0x00\n    /* \"#utility.yul\":6053:6055   */\n  0x40\n    /* \"#utility.yul\":6044:6050   */\n  dup3\n    /* \"#utility.yul\":6033:6042   */\n  dup7\n    /* \"#utility.yul\":6029:6051   */\n  add\n    /* \"#utility.yul\":6025:6056   */\n  add\n    /* \"#utility.yul\":6018:6060   */\n  mstore\n    /* \"#utility.yul\":6128:6130   */\n  0x40\n    /* \"#utility.yul\":6121:6123   */\n  0x1f\n    /* \"#utility.yul\":6117:6124   */\n  not\n    /* \"#utility.yul\":6112:6114   */\n  0x1f\n    /* \"#utility.yul\":6104:6110   */\n  dup4\n    /* \"#utility.yul\":6100:6115   */\n  add\n    /* \"#utility.yul\":6096:6125   */\n  and\n    /* \"#utility.yul\":6085:6094   */\n  dup6\n    /* \"#utility.yul\":6081:6126   */\n  add\n    /* \"#utility.yul\":6077:6131   */\n  add\n    /* \"#utility.yul\":6069:6131   */\n  swap3\n  pop\n  pop\n  pop\n    /* \"#utility.yul\":5589:6137   */\n  swap3\n  swap2\n  pop\n  pop\n  jump\t// out\n    /* \"#utility.yul\":6142:6439   */\ntag_64:\n    /* \"#utility.yul\":6260:6272   */\n  dup1\n  mload\n    /* \"#utility.yul\":6307:6311   */\n  0x20\n    /* \"#utility.yul\":6296:6312   */\n  dup1\n  dup4\n  add\n    /* \"#utility.yul\":6290:6313   */\n  mload\n  swap2\n    /* \"#utility.yul\":6260:6272   */\n  swap1\n    /* \"#utility.yul\":6325:6341   */\n  dup2\n  lt\n    /* \"#utility.yul\":6322:6433   */\n  iszero\n  tag_80\n  jumpi\n  not(0x00)\n    /* \"#utility.yul\":6399:6403   */\n  0x20\n    /* \"#utility.yul\":6395:6412   */\n  swap2\n  swap1\n  swap2\n  sub\n    /* \"#utility.yul\":6392:6393   */\n  0x03\n    /* \"#utility.yul\":6388:6413   */\n  shl\n    /* \"#utility.yul\":6384:6422   */\n  shl\n    /* \"#utility.yul\":6373:6423   */\n  and\n  swap2\n    /* \"#utility.yul\":6142:6439   */\n  swap1\n  pop\n  jump\t// out\ntag_76:\n    /* \"token.sol\":212:415  contract Phoenix is ERC20, ERC20Burnable, ERC20Permit, Ownable {... */\n  mload(0x80)\n  mload(0xa0)\n  mload(0xc0)\n  mload(0xe0)\n  mload(0x0100)\n  mload(0x0120)\n  mload(0x0140)\n  codecopy(0x00, dataOffset(sub_0), dataSize(sub_0))\n  0x00\n  assignImmutable(\"0x7ce5bcbaa570e6c26aabc2e17cbdf41b64b52824b9d0da4a1a221d2c48e00972\")\n  0x00\n  assignImmutable(\"0x8f59e018e114ef4f0f13f738daa411333c6421e3f33ae68ce5c638756a827d85\")\n  0x00\n  assignImmutable(\"0xb4bf3508f2fd7bb126e7af9e4fe31dbb3cdf386df5936668ea4d8292a4a1b188\")\n  0x00\n  assignImmutable(\"0xe96cc20f241c05b09b05be99fa40d483e0c60480c24cfabd29fea373217f3b30\")\n  0x00\n  assignImmutable(\"0x4ce4dab4689da140a0c12de1a6af6b8f679594aeb723205f513e052d27f5b26f\")\n  0x00\n  assignImmutable(\"0xb87264ef8bf99bc710f0d9de51012e0b2f3ac2595d912802c21dad6f786bfe81\")\n  0x00\n  assignImmutable(\"0x2fa57ba1e5aaf920647a42cef0ae645a390896e45bb3a84f3fe768980710f31a\")\n  return(0x00, dataSize(sub_0))\nstop\n\nsub_0: assembly {\n        /* \"token.sol\":212:415  contract Phoenix is ERC20, ERC20Burnable, ERC20Permit, Ownable {... */\n      mstore(0x40, 0x80)\n      callvalue\n      dup1\n      iszero\n      tag_1\n      jumpi\n      0x00\n      dup1\n      revert\n    tag_1:\n      pop\n      jumpi(tag_2, lt(calldatasize, 0x04))\n      shr(0xe0, calldataload(0x00))\n      dup1\n      0x79cc6790\n      gt\n      tag_23\n      jumpi\n      dup1\n      0xa457c2d7\n      gt\n      tag_24\n      jumpi\n      dup1\n      0xa457c2d7\n      eq\n      tag_18\n      jumpi\n      dup1\n      0xa9059cbb\n      eq\n      tag_19\n      jumpi\n      dup1\n      0xd505accf\n      eq\n      tag_20\n      jumpi\n      dup1\n      0xdd62ed3e\n      eq\n      tag_21\n      jumpi\n      dup1\n      0xf2fde38b\n      eq\n      tag_22\n      jumpi\n      0x00\n      dup1\n      revert\n    tag_24:\n      dup1\n      0x79cc6790\n      eq\n      tag_13\n      jumpi\n      dup1\n      0x7ecebe00\n      eq\n      tag_14\n      jumpi\n      dup1\n      0x84b0196e\n      eq\n      tag_15\n      jumpi\n      dup1\n      0x8da5cb5b\n      eq\n      tag_16\n      jumpi\n      dup1\n      0x95d89b41\n      eq\n      tag_17\n      jumpi\n      0x00\n      dup1\n      revert\n    tag_23:\n      dup1\n      0x3644e515\n      gt\n      tag_25\n      jumpi\n      dup1\n      0x3644e515\n      eq\n      tag_8\n      jumpi\n      dup1\n      0x39509351\n      eq\n      tag_9\n      jumpi\n      dup1\n      0x42966c68\n      eq\n      tag_10\n      jumpi\n      dup1\n      0x70a08231\n      eq\n      tag_11\n      jumpi\n      dup1\n      0x715018a6\n      eq\n      tag_12\n      jumpi\n      0x00\n      dup1\n      revert\n    tag_25:\n      dup1\n      0x06fdde03\n      eq\n      tag_3\n      jumpi\n      dup1\n      0x095ea7b3\n      eq\n      tag_4\n      jumpi\n      dup1\n      0x18160ddd\n      eq\n      tag_5\n      jumpi\n      dup1\n      0x23b872dd\n      eq\n      tag_6\n      jumpi\n      dup1\n      0x313ce567\n      eq\n      tag_7\n      jumpi\n    tag_2:\n      0x00\n      dup1\n      revert\n        /* \"ERC20.sol\":2137:2235  function name() public view virtual override returns (string memory) {... */\n    tag_3:\n      tag_26\n      tag_27\n      jump\t// in\n    tag_26:\n      mload(0x40)\n      tag_28\n      swap2\n      swap1\n      tag_29\n      jump\t// in\n    tag_28:\n      mload(0x40)\n      dup1\n      swap2\n      sub\n      swap1\n      return\n        /* \"ERC20.sol\":4481:4700  function approve(... */\n    tag_4:\n      tag_30\n      tag_31\n      calldatasize\n      0x04\n      tag_32\n      jump\t// in\n    tag_31:\n      tag_33\n      jump\t// in\n    tag_30:\n      mload(0x40)\n        /* \"#utility.yul\":1269:1283   */\n      swap1\n      iszero\n        /* \"#utility.yul\":1262:1284   */\n      iszero\n        /* \"#utility.yul\":1244:1285   */\n      dup2\n      mstore\n        /* \"#utility.yul\":1232:1234   */\n      0x20\n        /* \"#utility.yul\":1217:1235   */\n      add\n        /* \"ERC20.sol\":4481:4700  function approve(... */\n      tag_28\n        /* \"#utility.yul\":1104:1291   */\n      jump\n        /* \"ERC20.sol\":3234:3340  function totalSupply() public view virtual override returns (uint256) {... */\n    tag_5:\n        /* \"ERC20.sol\":3321:3333  _totalSupply */\n      sload(0x02)\n        /* \"ERC20.sol\":3234:3340  function totalSupply() public view virtual override returns (uint256) {... */\n    tag_36:\n      mload(0x40)\n        /* \"#utility.yul\":1442:1467   */\n      swap1\n      dup2\n      mstore\n        /* \"#utility.yul\":1430:1432   */\n      0x20\n        /* \"#utility.yul\":1415:1433   */\n      add\n        /* \"ERC20.sol\":3234:3340  function totalSupply() public view virtual override returns (uint256) {... */\n      tag_28\n        /* \"#utility.yul\":1296:1473   */\n      jump\n        /* \"ERC20.sol\":5262:5548  function transferFrom(... */\n    tag_6:\n      tag_30\n      tag_41\n      calldatasize\n      0x04\n      tag_42\n      jump\t// in\n    tag_41:\n      tag_43\n      jump\t// in\n        /* \"ERC20.sol\":3083:3174  function decimals() public view virtual override returns (uint8) {... */\n    tag_7:\n      mload(0x40)\n        /* \"ERC20.sol\":3165:3167  18 */\n      0x12\n        /* \"#utility.yul\":1953:1989   */\n      dup2\n      mstore\n        /* \"#utility.yul\":1941:1943   */\n      0x20\n        /* \"#utility.yul\":1926:1944   */\n      add\n        /* \"ERC20.sol\":3083:3174  function decimals() public view virtual override returns (uint8) {... */\n      tag_28\n        /* \"#utility.yul\":1811:1995   */\n      jump\n        /* \"ERC20Permit.sol\":2969:3082  function DOMAIN_SEPARATOR() external view override returns (bytes32) {... */\n    tag_8:\n      tag_36\n      tag_50\n      jump\t// in\n        /* \"ERC20.sol\":5943:6199  function increaseAllowance(... */\n    tag_9:\n      tag_30\n      tag_54\n      calldatasize\n      0x04\n      tag_32\n      jump\t// in\n    tag_54:\n      tag_55\n      jump\t// in\n        /* \"ERC20Burnable.sol\":564:653  function burn(uint256 amount) public virtual {... */\n    tag_10:\n      tag_57\n      tag_58\n      calldatasize\n      0x04\n      tag_59\n      jump\t// in\n    tag_58:\n      tag_60\n      jump\t// in\n    tag_57:\n      stop\n        /* \"ERC20.sol\":3398:3537  function balanceOf(... */\n    tag_11:\n      tag_36\n      tag_62\n      calldatasize\n      0x04\n      tag_63\n      jump\t// in\n    tag_62:\n      sub(shl(0xa0, 0x01), 0x01)\n        /* \"ERC20.sol\":3512:3530  _balances[account] */\n      and\n        /* \"ERC20.sol\":3486:3493  uint256 */\n      0x00\n        /* \"ERC20.sol\":3512:3530  _balances[account] */\n      swap1\n      dup2\n      mstore\n      0x20\n      dup2\n      swap1\n      mstore\n      0x40\n      swap1\n      keccak256\n      sload\n      swap1\n        /* \"ERC20.sol\":3398:3537  function balanceOf(... */\n      jump\n        /* \"Ownable.sol\":1839:1940  function renounceOwnership() public virtual onlyOwner {... */\n    tag_12:\n      tag_57\n      tag_67\n      jump\t// in\n        /* \"ERC20Burnable.sol\":959:1120  function burnFrom(address account, uint256 amount) public virtual {... */\n    tag_13:\n      tag_57\n      tag_69\n      calldatasize\n      0x04\n      tag_32\n      jump\t// in\n    tag_69:\n      tag_70\n      jump\t// in\n        /* \"ERC20Permit.sol\":2705:2845  function nonces(... */\n    tag_14:\n      tag_36\n      tag_72\n      calldatasize\n      0x04\n      tag_63\n      jump\t// in\n    tag_72:\n      tag_73\n      jump\t// in\n        /* \"EIP712.sol\":5201:5834  function eip712Domain()... */\n    tag_15:\n      tag_75\n      tag_76\n      jump\t// in\n    tag_75:\n      mload(0x40)\n      tag_28\n      swap8\n      swap7\n      swap6\n      swap5\n      swap4\n      swap3\n      swap2\n      swap1\n      tag_78\n      jump\t// in\n        /* \"Ownable.sol\":1216:1301  function owner() public view virtual returns (address) {... */\n    tag_16:\n        /* \"Ownable.sol\":1288:1294  _owner */\n      sload(0x09)\n        /* \"Ownable.sol\":1216:1301  function owner() public view virtual returns (address) {... */\n      mload(0x40)\n      sub(shl(0xa0, 0x01), 0x01)\n        /* \"Ownable.sol\":1288:1294  _owner */\n      swap1\n      swap2\n      and\n        /* \"#utility.yul\":3968:4019   */\n      dup2\n      mstore\n        /* \"#utility.yul\":3956:3958   */\n      0x20\n        /* \"#utility.yul\":3941:3959   */\n      add\n        /* \"Ownable.sol\":1216:1301  function owner() public view virtual returns (address) {... */\n      tag_28\n        /* \"#utility.yul\":3822:4025   */\n      jump\n        /* \"ERC20.sol\":2348:2450  function symbol() public view virtual override returns (string memory) {... */\n    tag_17:\n      tag_26\n      tag_84\n      jump\t// in\n        /* \"ERC20.sol\":6686:7169  function decreaseAllowance(... */\n    tag_18:\n      tag_30\n      tag_87\n      calldatasize\n      0x04\n      tag_32\n      jump\t// in\n    tag_87:\n      tag_88\n      jump\t// in\n        /* \"ERC20.sol\":3733:3944  function transfer(... */\n    tag_19:\n      tag_30\n      tag_91\n      calldatasize\n      0x04\n      tag_32\n      jump\t// in\n    tag_91:\n      tag_92\n      jump\t// in\n        /* \"ERC20Permit.sol\":1886:2644  function permit(... */\n    tag_20:\n      tag_57\n      tag_95\n      calldatasize\n      0x04\n      tag_96\n      jump\t// in\n    tag_95:\n      tag_97\n      jump\t// in\n        /* \"ERC20.sol\":4002:4173  function allowance(... */\n    tag_21:\n      tag_36\n      tag_99\n      calldatasize\n      0x04\n      tag_100\n      jump\t// in\n    tag_99:\n      tag_101\n      jump\t// in\n        /* \"Ownable.sol\":2089:2321  function transferOwnership(address newOwner) public virtual onlyOwner {... */\n    tag_22:\n      tag_57\n      tag_104\n      calldatasize\n      0x04\n      tag_63\n      jump\t// in\n    tag_104:\n      tag_105\n      jump\t// in\n        /* \"ERC20.sol\":2137:2235  function name() public view virtual override returns (string memory) {... */\n    tag_27:\n        /* \"ERC20.sol\":2191:2204  string memory */\n      0x60\n        /* \"ERC20.sol\":2223:2228  _name */\n      0x03\n        /* \"ERC20.sol\":2216:2228  return _name */\n      dup1\n      sload\n      tag_107\n      swap1\n      tag_108\n      jump\t// in\n    tag_107:\n      dup1\n      0x1f\n      add\n      0x20\n      dup1\n      swap2\n      div\n      mul\n      0x20\n      add\n      mload(0x40)\n      swap1\n      dup2\n      add\n      0x40\n      mstore\n      dup1\n      swap3\n      swap2\n      swap1\n      dup2\n      dup2\n      mstore\n      0x20\n      add\n      dup3\n      dup1\n      sload\n      tag_109\n      swap1\n      tag_108\n      jump\t// in\n    tag_109:\n      dup1\n      iszero\n      tag_110\n      jumpi\n      dup1\n      0x1f\n      lt\n      tag_111\n      jumpi\n      0x0100\n      dup1\n      dup4\n      sload\n      div\n      mul\n      dup4\n      mstore\n      swap2\n      0x20\n      add\n      swap2\n      jump(tag_110)\n    tag_111:\n      dup3\n      add\n      swap2\n      swap1\n      0x00\n      mstore\n      keccak256(0x00, 0x20)\n      swap1\n    tag_112:\n      dup2\n      sload\n      dup2\n      mstore\n      swap1\n      0x01\n      add\n      swap1\n      0x20\n      add\n      dup1\n      dup4\n      gt\n      tag_112\n      jumpi\n      dup3\n      swap1\n      sub\n      0x1f\n      and\n      dup3\n      add\n      swap2\n    tag_110:\n      pop\n      pop\n      pop\n      pop\n      pop\n      swap1\n      pop\n        /* \"ERC20.sol\":2137:2235  function name() public view virtual override returns (string memory) {... */\n      swap1\n      jump\t// out\n        /* \"ERC20.sol\":4481:4700  function approve(... */\n    tag_33:\n        /* \"ERC20.sol\":4586:4590  bool */\n      0x00\n        /* \"Context.sol\":719:729  msg.sender */\n      caller\n        /* \"ERC20.sol\":4640:4672  _approve(owner, spender, amount) */\n      tag_116\n        /* \"Context.sol\":719:729  msg.sender */\n      dup2\n        /* \"ERC20.sol\":4656:4663  spender */\n      dup6\n        /* \"ERC20.sol\":4665:4671  amount */\n      dup6\n        /* \"ERC20.sol\":4640:4648  _approve */\n      tag_117\n        /* \"ERC20.sol\":4640:4672  _approve(owner, spender, amount) */\n      jump\t// in\n    tag_116:\n        /* \"ERC20.sol\":4689:4693  true */\n      0x01\n        /* \"ERC20.sol\":4682:4693  return true */\n      swap2\n      pop\n      pop\n        /* \"ERC20.sol\":4481:4700  function approve(... */\n    tag_113:\n      swap3\n      swap2\n      pop\n      pop\n      jump\t// out\n        /* \"ERC20.sol\":5262:5548  function transferFrom(... */\n    tag_43:\n        /* \"ERC20.sol\":5389:5393  bool */\n      0x00\n        /* \"Context.sol\":719:729  msg.sender */\n      caller\n        /* \"ERC20.sol\":5445:5483  _spendAllowance(from, spender, amount) */\n      tag_121\n        /* \"ERC20.sol\":5461:5465  from */\n      dup6\n        /* \"Context.sol\":719:729  msg.sender */\n      dup3\n        /* \"ERC20.sol\":5476:5482  amount */\n      dup6\n        /* \"ERC20.sol\":5445:5460  _spendAllowance */\n      tag_122\n        /* \"ERC20.sol\":5445:5483  _spendAllowance(from, spender, amount) */\n      jump\t// in\n    tag_121:\n        /* \"ERC20.sol\":5493:5520  _transfer(from, to, amount) */\n      tag_123\n        /* \"ERC20.sol\":5503:5507  from */\n      dup6\n        /* \"ERC20.sol\":5509:5511  to */\n      dup6\n        /* \"ERC20.sol\":5513:5519  amount */\n      dup6\n        /* \"ERC20.sol\":5493:5502  _transfer */\n      tag_124\n        /* \"ERC20.sol\":5493:5520  _transfer(from, to, amount) */\n      jump\t// in\n    tag_123:\n      pop\n        /* \"ERC20.sol\":5537:5541  true */\n      0x01\n      swap5\n        /* \"ERC20.sol\":5262:5548  function transferFrom(... */\n      swap4\n      pop\n      pop\n      pop\n      pop\n      jump\t// out\n        /* \"ERC20Permit.sol\":2969:3082  function DOMAIN_SEPARATOR() external view override returns (bytes32) {... */\n    tag_50:\n        /* \"ERC20Permit.sol\":3029:3036  bytes32 */\n      0x00\n        /* \"ERC20Permit.sol\":3055:3075  _domainSeparatorV4() */\n      tag_127\n        /* \"ERC20Permit.sol\":3055:3073  _domainSeparatorV4 */\n      tag_128\n        /* \"ERC20Permit.sol\":3055:3075  _domainSeparatorV4() */\n      jump\t// in\n    tag_127:\n        /* \"ERC20Permit.sol\":3048:3075  return _domainSeparatorV4() */\n      swap1\n      pop\n        /* \"ERC20Permit.sol\":2969:3082  function DOMAIN_SEPARATOR() external view override returns (bytes32) {... */\n      swap1\n      jump\t// out\n        /* \"ERC20.sol\":5943:6199  function increaseAllowance(... */\n    tag_55:\n        /* \"ERC20.sol\":6053:6057  bool */\n      0x00\n        /* \"Context.sol\":719:729  msg.sender */\n      caller\n        /* \"ERC20.sol\":6107:6171  _approve(owner, spender, allowance(owner, spender) + addedValue) */\n      tag_116\n        /* \"Context.sol\":719:729  msg.sender */\n      dup2\n        /* \"ERC20.sol\":6123:6130  spender */\n      dup6\n        /* \"ERC20.sol\":6160:6170  addedValue */\n      dup6\n        /* \"ERC20.sol\":6132:6157  allowance(owner, spender) */\n      tag_132\n        /* \"Context.sol\":719:729  msg.sender */\n      dup4\n        /* \"ERC20.sol\":6123:6130  spender */\n      dup4\n        /* \"ERC20.sol\":6132:6141  allowance */\n      tag_101\n        /* \"ERC20.sol\":6132:6157  allowance(owner, spender) */\n      jump\t// in\n    tag_132:\n        /* \"ERC20.sol\":6132:6170  allowance(owner, spender) + addedValue */\n      tag_133\n      swap2\n      swap1\n      tag_134\n      jump\t// in\n    tag_133:\n        /* \"ERC20.sol\":6107:6115  _approve */\n      tag_117\n        /* \"ERC20.sol\":6107:6171  _approve(owner, spender, allowance(owner, spender) + addedValue) */\n      jump\t// in\n        /* \"ERC20Burnable.sol\":564:653  function burn(uint256 amount) public virtual {... */\n    tag_60:\n        /* \"ERC20Burnable.sol\":619:646  _burn(_msgSender(), amount) */\n      tag_136\n        /* \"Context.sol\":719:729  msg.sender */\n      caller\n        /* \"ERC20Burnable.sol\":639:645  amount */\n      dup3\n        /* \"ERC20Burnable.sol\":619:624  _burn */\n      tag_138\n        /* \"ERC20Burnable.sol\":619:646  _burn(_msgSender(), amount) */\n      jump\t// in\n    tag_136:\n        /* \"ERC20Burnable.sol\":564:653  function burn(uint256 amount) public virtual {... */\n      pop\n      jump\t// out\n        /* \"Ownable.sol\":1839:1940  function renounceOwnership() public virtual onlyOwner {... */\n    tag_67:\n        /* \"Ownable.sol\":1109:1122  _checkOwner() */\n      tag_141\n        /* \"Ownable.sol\":1109:1120  _checkOwner */\n      tag_142\n        /* \"Ownable.sol\":1109:1122  _checkOwner() */\n      jump\t// in\n    tag_141:\n        /* \"Ownable.sol\":1903:1933  _transferOwnership(address(0)) */\n      tag_144\n        /* \"Ownable.sol\":1930:1931  0 */\n      0x00\n        /* \"Ownable.sol\":1903:1921  _transferOwnership */\n      tag_145\n        /* \"Ownable.sol\":1903:1933  _transferOwnership(address(0)) */\n      jump\t// in\n    tag_144:\n        /* \"Ownable.sol\":1839:1940  function renounceOwnership() public virtual onlyOwner {... */\n      jump\t// out\n        /* \"ERC20Burnable.sol\":959:1120  function burnFrom(address account, uint256 amount) public virtual {... */\n    tag_70:\n        /* \"ERC20Burnable.sol\":1035:1081  _spendAllowance(account, _msgSender(), amount) */\n      tag_147\n        /* \"ERC20Burnable.sol\":1051:1058  account */\n      dup3\n        /* \"Context.sol\":719:729  msg.sender */\n      caller\n        /* \"ERC20Burnable.sol\":1074:1080  amount */\n      dup4\n        /* \"ERC20Burnable.sol\":1035:1050  _spendAllowance */\n      tag_122\n        /* \"ERC20Burnable.sol\":1035:1081  _spendAllowance(account, _msgSender(), amount) */\n      jump\t// in\n    tag_147:\n        /* \"ERC20Burnable.sol\":1091:1113  _burn(account, amount) */\n      tag_149\n        /* \"ERC20Burnable.sol\":1097:1104  account */\n      dup3\n        /* \"ERC20Burnable.sol\":1106:1112  amount */\n      dup3\n        /* \"ERC20Burnable.sol\":1091:1096  _burn */\n      tag_138\n        /* \"ERC20Burnable.sol\":1091:1113  _burn(account, amount) */\n      jump\t// in\n    tag_149:\n        /* \"ERC20Burnable.sol\":959:1120  function burnFrom(address account, uint256 amount) public virtual {... */\n      pop\n      pop\n      jump\t// out\n        /* \"ERC20Permit.sol\":2705:2845  function nonces(... */\n    tag_73:\n      sub(shl(0xa0, 0x01), 0x01)\n        /* \"ERC20Permit.sol\":2814:2828  _nonces[owner] */\n      dup2\n      and\n        /* \"ERC20Permit.sol\":2788:2795  uint256 */\n      0x00\n        /* \"ERC20Permit.sol\":2814:2828  _nonces[owner] */\n      swap1\n      dup2\n      mstore\n        /* \"ERC20Permit.sol\":2814:2821  _nonces */\n      0x07\n        /* \"ERC20Permit.sol\":2814:2828  _nonces[owner] */\n      0x20\n      mstore\n      0x40\n      dup2\n      keccak256\n        /* \"Counters.sol\":918:932  counter._value */\n      sload\n        /* \"ERC20Permit.sol\":2814:2838  _nonces[owner].current() */\n      tag_113\n        /* \"Counters.sol\":827:939  function current(Counter storage counter) internal view returns (uint256) {... */\n      jump\n        /* \"EIP712.sol\":5201:5834  function eip712Domain()... */\n    tag_76:\n        /* \"EIP712.sol\":5316:5329  bytes1 fields */\n      0x00\n        /* \"EIP712.sol\":5343:5361  string memory name */\n      0x60\n      dup1\n        /* \"EIP712.sol\":5316:5329  bytes1 fields */\n      dup3\n      dup1\n      dup1\n        /* \"EIP712.sol\":5343:5361  string memory name */\n      dup4\n        /* \"EIP712.sol\":5607:5648  _name.toStringWithFallback(_nameFallback) */\n      tag_154\n        /* \"EIP712.sol\":5607:5612  _name */\n      immutable(\"0x8f59e018e114ef4f0f13f738daa411333c6421e3f33ae68ce5c638756a827d85\")\n        /* \"EIP712.sol\":5634:5647  _nameFallback */\n      0x05\n        /* \"EIP712.sol\":5607:5633  _name.toStringWithFallback */\n      tag_155\n        /* \"EIP712.sol\":5607:5648  _name.toStringWithFallback(_nameFallback) */\n      jump\t// in\n    tag_154:\n        /* \"EIP712.sol\":5662:5709  _version.toStringWithFallback(_versionFallback) */\n      tag_156\n        /* \"EIP712.sol\":5662:5670  _version */\n      immutable(\"0x7ce5bcbaa570e6c26aabc2e17cbdf41b64b52824b9d0da4a1a221d2c48e00972\")\n        /* \"EIP712.sol\":5692:5708  _versionFallback */\n      0x06\n        /* \"EIP712.sol\":5662:5691  _version.toStringWithFallback */\n      tag_155\n        /* \"EIP712.sol\":5662:5709  _version.toStringWithFallback(_versionFallback) */\n      jump\t// in\n    tag_156:\n        /* \"EIP712.sol\":5801:5817  new uint256[](0) */\n      0x40\n      dup1\n      mload\n        /* \"EIP712.sol\":5785:5786  0 */\n      0x00\n        /* \"EIP712.sol\":5801:5817  new uint256[](0) */\n      dup1\n      dup3\n      mstore\n      0x20\n      dup3\n      add\n      swap1\n      swap3\n      mstore\n      shl(0xf8, 0x0f)\n        /* \"EIP712.sol\":5556:5827  return (... */\n      swap12\n      swap4\n      swap11\n      pop\n      swap2\n      swap9\n      pop\n        /* \"EIP712.sol\":5723:5736  block.chainid */\n      chainid\n      swap8\n      pop\n        /* \"EIP712.sol\":5758:5762  this */\n      address\n      swap7\n      pop\n        /* \"EIP712.sol\":5785:5786  0 */\n      swap5\n      pop\n        /* \"EIP712.sol\":5801:5817  new uint256[](0) */\n      swap3\n      pop\n        /* \"EIP712.sol\":5556:5827  return (... */\n      swap1\n      pop\n        /* \"EIP712.sol\":5201:5834  function eip712Domain()... */\n      jump\t// out\n        /* \"ERC20.sol\":2348:2450  function symbol() public view virtual override returns (string memory) {... */\n    tag_84:\n        /* \"ERC20.sol\":2404:2417  string memory */\n      0x60\n        /* \"ERC20.sol\":2436:2443  _symbol */\n      0x04\n        /* \"ERC20.sol\":2429:2443  return _symbol */\n      dup1\n      sload\n      tag_107\n      swap1\n      tag_108\n      jump\t// in\n        /* \"ERC20.sol\":6686:7169  function decreaseAllowance(... */\n    tag_88:\n        /* \"ERC20.sol\":6801:6805  bool */\n      0x00\n        /* \"Context.sol\":719:729  msg.sender */\n      caller\n        /* \"ERC20.sol\":6801:6805  bool */\n      dup2\n        /* \"ERC20.sol\":6882:6907  allowance(owner, spender) */\n      tag_170\n        /* \"Context.sol\":719:729  msg.sender */\n      dup3\n        /* \"ERC20.sol\":6899:6906  spender */\n      dup7\n        /* \"ERC20.sol\":6882:6891  allowance */\n      tag_101\n        /* \"ERC20.sol\":6882:6907  allowance(owner, spender) */\n      jump\t// in\n    tag_170:\n        /* \"ERC20.sol\":6855:6907  uint256 currentAllowance = allowance(owner, spender) */\n      swap1\n      pop\n        /* \"ERC20.sol\":6958:6973  subtractedValue */\n      dup4\n        /* \"ERC20.sol\":6938:6954  currentAllowance */\n      dup2\n        /* \"ERC20.sol\":6938:6973  currentAllowance >= subtractedValue */\n      lt\n      iszero\n        /* \"ERC20.sol\":6917:7036  require(... */\n      tag_171\n      jumpi\n      mload(0x40)\n      shl(0xe5, 0x461bcd)\n      dup2\n      mstore\n        /* \"#utility.yul\":5939:5941   */\n      0x20\n        /* \"ERC20.sol\":6917:7036  require(... */\n      0x04\n      dup3\n      add\n        /* \"#utility.yul\":5921:5942   */\n      mstore\n        /* \"#utility.yul\":5978:5980   */\n      0x25\n        /* \"#utility.yul\":5958:5976   */\n      0x24\n      dup3\n      add\n        /* \"#utility.yul\":5951:5981   */\n      mstore\n        /* \"#utility.yul\":6017:6051   */\n      0x45524332303a2064656372656173656420616c6c6f77616e63652062656c6f77\n        /* \"#utility.yul\":5997:6015   */\n      0x44\n      dup3\n      add\n        /* \"#utility.yul\":5990:6052   */\n      mstore\n      shl(0xd8, 0x207a65726f)\n        /* \"#utility.yul\":6068:6086   */\n      0x64\n      dup3\n      add\n        /* \"#utility.yul\":6061:6096   */\n      mstore\n        /* \"#utility.yul\":6113:6132   */\n      0x84\n      add\n        /* \"ERC20.sol\":6917:7036  require(... */\n    tag_172:\n      mload(0x40)\n      dup1\n      swap2\n      sub\n      swap1\n      revert\n    tag_171:\n        /* \"ERC20.sol\":7070:7130  _approve(owner, spender, currentAllowance - subtractedValue) */\n      tag_123\n        /* \"ERC20.sol\":7079:7084  owner */\n      dup3\n        /* \"ERC20.sol\":7086:7093  spender */\n      dup7\n        /* \"ERC20.sol\":7114:7129  subtractedValue */\n      dup7\n        /* \"ERC20.sol\":7095:7111  currentAllowance */\n      dup5\n        /* \"ERC20.sol\":7095:7129  currentAllowance - subtractedValue */\n      sub\n        /* \"ERC20.sol\":7070:7078  _approve */\n      tag_117\n        /* \"ERC20.sol\":7070:7130  _approve(owner, spender, currentAllowance - subtractedValue) */\n      jump\t// in\n        /* \"ERC20.sol\":3733:3944  function transfer(... */\n    tag_92:\n        /* \"ERC20.sol\":3834:3838  bool */\n      0x00\n        /* \"Context.sol\":719:729  msg.sender */\n      caller\n        /* \"ERC20.sol\":3888:3916  _transfer(owner, to, amount) */\n      tag_116\n        /* \"Context.sol\":719:729  msg.sender */\n      dup2\n        /* \"ERC20.sol\":3905:3907  to */\n      dup6\n        /* \"ERC20.sol\":3909:3915  amount */\n      dup6\n        /* \"ERC20.sol\":3888:3897  _transfer */\n      tag_124\n        /* \"ERC20.sol\":3888:3916  _transfer(owner, to, amount) */\n      jump\t// in\n        /* \"ERC20Permit.sol\":1886:2644  function permit(... */\n    tag_97:\n        /* \"ERC20Permit.sol\":2121:2129  deadline */\n      dup4\n        /* \"ERC20Permit.sol\":2102:2117  block.timestamp */\n      timestamp\n        /* \"ERC20Permit.sol\":2102:2129  block.timestamp <= deadline */\n      gt\n      iszero\n        /* \"ERC20Permit.sol\":2094:2163  require(block.timestamp <= deadline, \"ERC20Permit: expired deadline\") */\n      tag_179\n      jumpi\n      mload(0x40)\n      shl(0xe5, 0x461bcd)\n      dup2\n      mstore\n        /* \"#utility.yul\":6345:6347   */\n      0x20\n        /* \"ERC20Permit.sol\":2094:2163  require(block.timestamp <= deadline, \"ERC20Permit: expired deadline\") */\n      0x04\n      dup3\n      add\n        /* \"#utility.yul\":6327:6348   */\n      mstore\n        /* \"#utility.yul\":6384:6386   */\n      0x1d\n        /* \"#utility.yul\":6364:6382   */\n      0x24\n      dup3\n      add\n        /* \"#utility.yul\":6357:6387   */\n      mstore\n        /* \"#utility.yul\":6423:6454   */\n      0x45524332305065726d69743a206578706972656420646561646c696e65000000\n        /* \"#utility.yul\":6403:6421   */\n      0x44\n      dup3\n      add\n        /* \"#utility.yul\":6396:6455   */\n      mstore\n        /* \"#utility.yul\":6472:6490   */\n      0x64\n      add\n        /* \"ERC20Permit.sol\":2094:2163  require(block.timestamp <= deadline, \"ERC20Permit: expired deadline\") */\n      tag_172\n        /* \"#utility.yul\":6143:6496   */\n      jump\n        /* \"ERC20Permit.sol\":2094:2163  require(block.timestamp <= deadline, \"ERC20Permit: expired deadline\") */\n    tag_179:\n        /* \"ERC20Permit.sol\":2174:2192  bytes32 structHash */\n      0x00\n        /* \"ERC20Permit.sol\":1059:1176  keccak256(... */\n      0x6e71edae12b1b97f4d1f60370fef10105fa2faae0126114a169c64845d6126c9\n        /* \"ERC20Permit.sol\":2280:2285  owner */\n      dup9\n        /* \"ERC20Permit.sol\":2303:2310  spender */\n      dup9\n        /* \"ERC20Permit.sol\":2328:2333  value */\n      dup9\n        /* \"ERC20Permit.sol\":2351:2367  _useNonce(owner) */\n      tag_182\n        /* \"ERC20Permit.sol\":2361:2366  owner */\n      dup13\n        /* \"ERC20Permit.sol\":2351:2360  _useNonce */\n      tag_183\n        /* \"ERC20Permit.sol\":2351:2367  _useNonce(owner) */\n      jump\t// in\n    tag_182:\n        /* \"ERC20Permit.sol\":2218:2407  abi.encode(... */\n      0x40\n      dup1\n      mload\n      0x20\n      dup2\n      add\n        /* \"#utility.yul\":6788:6813   */\n      swap7\n      swap1\n      swap7\n      mstore\n      sub(shl(0xa0, 0x01), 0x01)\n        /* \"#utility.yul\":6887:6902   */\n      swap5\n      dup6\n      and\n        /* \"#utility.yul\":6867:6885   */\n      swap1\n      dup7\n      add\n        /* \"#utility.yul\":6860:6903   */\n      mstore\n        /* \"#utility.yul\":6939:6954   */\n      swap3\n      swap1\n      swap2\n      and\n        /* \"#utility.yul\":6919:6937   */\n      0x60\n      dup5\n      add\n        /* \"#utility.yul\":6912:6955   */\n      mstore\n        /* \"#utility.yul\":6971:6989   */\n      0x80\n      dup4\n      add\n        /* \"#utility.yul\":6964:6998   */\n      mstore\n        /* \"#utility.yul\":7014:7033   */\n      0xa0\n      dup3\n      add\n        /* \"#utility.yul\":7007:7042   */\n      mstore\n        /* \"#utility.yul\":7058:7077   */\n      0xc0\n      dup2\n      add\n        /* \"#utility.yul\":7051:7086   */\n      dup7\n      swap1\n      mstore\n        /* \"#utility.yul\":6760:6779   */\n      0xe0\n      add\n        /* \"ERC20Permit.sol\":2218:2407  abi.encode(... */\n      mload(0x40)\n      0x20\n      dup2\n      dup4\n      sub\n      sub\n      dup2\n      mstore\n      swap1\n      0x40\n      mstore\n        /* \"ERC20Permit.sol\":2195:2417  keccak256(... */\n      dup1\n      mload\n      swap1\n      0x20\n      add\n      keccak256\n        /* \"ERC20Permit.sol\":2174:2417  bytes32 structHash = keccak256(... */\n      swap1\n      pop\n        /* \"ERC20Permit.sol\":2428:2440  bytes32 hash */\n      0x00\n        /* \"ERC20Permit.sol\":2443:2471  _hashTypedDataV4(structHash) */\n      tag_186\n        /* \"ERC20Permit.sol\":2460:2470  structHash */\n      dup3\n        /* \"ERC20Permit.sol\":2443:2459  _hashTypedDataV4 */\n      tag_187\n        /* \"ERC20Permit.sol\":2443:2471  _hashTypedDataV4(structHash) */\n      jump\t// in\n    tag_186:\n        /* \"ERC20Permit.sol\":2428:2471  bytes32 hash = _hashTypedDataV4(structHash) */\n      swap1\n      pop\n        /* \"ERC20Permit.sol\":2482:2496  address signer */\n      0x00\n        /* \"ERC20Permit.sol\":2499:2527  ECDSA.recover(hash, v, r, s) */\n      tag_188\n        /* \"ERC20Permit.sol\":2513:2517  hash */\n      dup3\n        /* \"ERC20Permit.sol\":2519:2520  v */\n      dup8\n        /* \"ERC20Permit.sol\":2522:2523  r */\n      dup8\n        /* \"ERC20Permit.sol\":2525:2526  s */\n      dup8\n        /* \"ERC20Permit.sol\":2499:2512  ECDSA.recover */\n      tag_189\n        /* \"ERC20Permit.sol\":2499:2527  ECDSA.recover(hash, v, r, s) */\n      jump\t// in\n    tag_188:\n        /* \"ERC20Permit.sol\":2482:2527  address signer = ECDSA.recover(hash, v, r, s) */\n      swap1\n      pop\n        /* \"ERC20Permit.sol\":2555:2560  owner */\n      dup10\n      sub(shl(0xa0, 0x01), 0x01)\n        /* \"ERC20Permit.sol\":2545:2560  signer == owner */\n      and\n        /* \"ERC20Permit.sol\":2545:2551  signer */\n      dup2\n      sub(shl(0xa0, 0x01), 0x01)\n        /* \"ERC20Permit.sol\":2545:2560  signer == owner */\n      and\n      eq\n        /* \"ERC20Permit.sol\":2537:2595  require(signer == owner, \"ERC20Permit: invalid signature\") */\n      tag_190\n      jumpi\n      mload(0x40)\n      shl(0xe5, 0x461bcd)\n      dup2\n      mstore\n        /* \"#utility.yul\":7299:7301   */\n      0x20\n        /* \"ERC20Permit.sol\":2537:2595  require(signer == owner, \"ERC20Permit: invalid signature\") */\n      0x04\n      dup3\n      add\n        /* \"#utility.yul\":7281:7302   */\n      mstore\n        /* \"#utility.yul\":7338:7340   */\n      0x1e\n        /* \"#utility.yul\":7318:7336   */\n      0x24\n      dup3\n      add\n        /* \"#utility.yul\":7311:7341   */\n      mstore\n        /* \"#utility.yul\":7377:7409   */\n      0x45524332305065726d69743a20696e76616c6964207369676e61747572650000\n        /* \"#utility.yul\":7357:7375   */\n      0x44\n      dup3\n      add\n        /* \"#utility.yul\":7350:7410   */\n      mstore\n        /* \"#utility.yul\":7427:7445   */\n      0x64\n      add\n        /* \"ERC20Permit.sol\":2537:2595  require(signer == owner, \"ERC20Permit: invalid signature\") */\n      tag_172\n        /* \"#utility.yul\":7097:7451   */\n      jump\n        /* \"ERC20Permit.sol\":2537:2595  require(signer == owner, \"ERC20Permit: invalid signature\") */\n    tag_190:\n        /* \"ERC20Permit.sol\":2606:2637  _approve(owner, spender, value) */\n      tag_193\n        /* \"ERC20Permit.sol\":2615:2620  owner */\n      dup11\n        /* \"ERC20Permit.sol\":2622:2629  spender */\n      dup11\n        /* \"ERC20Permit.sol\":2631:2636  value */\n      dup11\n        /* \"ERC20Permit.sol\":2606:2614  _approve */\n      tag_117\n        /* \"ERC20Permit.sol\":2606:2637  _approve(owner, spender, value) */\n      jump\t// in\n    tag_193:\n        /* \"ERC20Permit.sol\":2084:2644  {... */\n      pop\n      pop\n      pop\n        /* \"ERC20Permit.sol\":1886:2644  function permit(... */\n      pop\n      pop\n      pop\n      pop\n      pop\n      pop\n      pop\n      jump\t// out\n        /* \"ERC20.sol\":4002:4173  function allowance(... */\n    tag_101:\n      sub(shl(0xa0, 0x01), 0x01)\n        /* \"ERC20.sol\":4139:4157  _allowances[owner] */\n      swap2\n      dup3\n      and\n        /* \"ERC20.sol\":4113:4120  uint256 */\n      0x00\n        /* \"ERC20.sol\":4139:4157  _allowances[owner] */\n      swap1\n      dup2\n      mstore\n        /* \"ERC20.sol\":4139:4150  _allowances */\n      0x01\n        /* \"ERC20.sol\":4139:4157  _allowances[owner] */\n      0x20\n      swap1\n      dup2\n      mstore\n      0x40\n      dup1\n      dup4\n      keccak256\n        /* \"ERC20.sol\":4139:4166  _allowances[owner][spender] */\n      swap4\n      swap1\n      swap5\n      and\n      dup3\n      mstore\n      swap2\n      swap1\n      swap2\n      mstore\n      keccak256\n      sload\n      swap1\n        /* \"ERC20.sol\":4002:4173  function allowance(... */\n      jump\t// out\n        /* \"Ownable.sol\":2089:2321  function transferOwnership(address newOwner) public virtual onlyOwner {... */\n    tag_105:\n        /* \"Ownable.sol\":1109:1122  _checkOwner() */\n      tag_196\n        /* \"Ownable.sol\":1109:1120  _checkOwner */\n      tag_142\n        /* \"Ownable.sol\":1109:1122  _checkOwner() */\n      jump\t// in\n    tag_196:\n      sub(shl(0xa0, 0x01), 0x01)\n        /* \"Ownable.sol\":2190:2212  newOwner != address(0) */\n      dup2\n      and\n        /* \"Ownable.sol\":2169:2276  require(... */\n      tag_198\n      jumpi\n      mload(0x40)\n      shl(0xe5, 0x461bcd)\n      dup2\n      mstore\n        /* \"#utility.yul\":7658:7660   */\n      0x20\n        /* \"Ownable.sol\":2169:2276  require(... */\n      0x04\n      dup3\n      add\n        /* \"#utility.yul\":7640:7661   */\n      mstore\n        /* \"#utility.yul\":7697:7699   */\n      0x26\n        /* \"#utility.yul\":7677:7695   */\n      0x24\n      dup3\n      add\n        /* \"#utility.yul\":7670:7700   */\n      mstore\n        /* \"#utility.yul\":7736:7770   */\n      0x4f776e61626c653a206e6577206f776e657220697320746865207a65726f2061\n        /* \"#utility.yul\":7716:7734   */\n      0x44\n      dup3\n      add\n        /* \"#utility.yul\":7709:7771   */\n      mstore\n      shl(0xd0, 0x646472657373)\n        /* \"#utility.yul\":7787:7805   */\n      0x64\n      dup3\n      add\n        /* \"#utility.yul\":7780:7816   */\n      mstore\n        /* \"#utility.yul\":7833:7852   */\n      0x84\n      add\n        /* \"Ownable.sol\":2169:2276  require(... */\n      tag_172\n        /* \"#utility.yul\":7456:7858   */\n      jump\n        /* \"Ownable.sol\":2169:2276  require(... */\n    tag_198:\n        /* \"Ownable.sol\":2286:2314  _transferOwnership(newOwner) */\n      tag_136\n        /* \"Ownable.sol\":2305:2313  newOwner */\n      dup2\n        /* \"Ownable.sol\":2286:2304  _transferOwnership */\n      tag_145\n        /* \"Ownable.sol\":2286:2314  _transferOwnership(newOwner) */\n      jump\t// in\n        /* \"ERC20.sol\":10688:11058  function _approve(... */\n    tag_117:\n      sub(shl(0xa0, 0x01), 0x01)\n        /* \"ERC20.sol\":10819:10838  owner != address(0) */\n      dup4\n      and\n        /* \"ERC20.sol\":10811:10879  require(owner != address(0), \"ERC20: approve from the zero address\") */\n      tag_204\n      jumpi\n      mload(0x40)\n      shl(0xe5, 0x461bcd)\n      dup2\n      mstore\n        /* \"#utility.yul\":8065:8067   */\n      0x20\n        /* \"ERC20.sol\":10811:10879  require(owner != address(0), \"ERC20: approve from the zero address\") */\n      0x04\n      dup3\n      add\n        /* \"#utility.yul\":8047:8068   */\n      mstore\n        /* \"#utility.yul\":8104:8106   */\n      0x24\n        /* \"#utility.yul\":8084:8102   */\n      dup1\n      dup3\n      add\n        /* \"#utility.yul\":8077:8107   */\n      mstore\n        /* \"#utility.yul\":8143:8177   */\n      0x45524332303a20617070726f76652066726f6d20746865207a65726f20616464\n        /* \"#utility.yul\":8123:8141   */\n      0x44\n      dup3\n      add\n        /* \"#utility.yul\":8116:8178   */\n      mstore\n      shl(0xe0, 0x72657373)\n        /* \"#utility.yul\":8194:8212   */\n      0x64\n      dup3\n      add\n        /* \"#utility.yul\":8187:8221   */\n      mstore\n        /* \"#utility.yul\":8238:8257   */\n      0x84\n      add\n        /* \"ERC20.sol\":10811:10879  require(owner != address(0), \"ERC20: approve from the zero address\") */\n      tag_172\n        /* \"#utility.yul\":7863:8263   */\n      jump\n        /* \"ERC20.sol\":10811:10879  require(owner != address(0), \"ERC20: approve from the zero address\") */\n    tag_204:\n      sub(shl(0xa0, 0x01), 0x01)\n        /* \"ERC20.sol\":10897:10918  spender != address(0) */\n      dup3\n      and\n        /* \"ERC20.sol\":10889:10957  require(spender != address(0), \"ERC20: approve to the zero address\") */\n      tag_207\n      jumpi\n      mload(0x40)\n      shl(0xe5, 0x461bcd)\n      dup2\n      mstore\n        /* \"#utility.yul\":8470:8472   */\n      0x20\n        /* \"ERC20.sol\":10889:10957  require(spender != address(0), \"ERC20: approve to the zero address\") */\n      0x04\n      dup3\n      add\n        /* \"#utility.yul\":8452:8473   */\n      mstore\n        /* \"#utility.yul\":8509:8511   */\n      0x22\n        /* \"#utility.yul\":8489:8507   */\n      0x24\n      dup3\n      add\n        /* \"#utility.yul\":8482:8512   */\n      mstore\n        /* \"#utility.yul\":8548:8582   */\n      0x45524332303a20617070726f766520746f20746865207a65726f206164647265\n        /* \"#utility.yul\":8528:8546   */\n      0x44\n      dup3\n      add\n        /* \"#utility.yul\":8521:8583   */\n      mstore\n      shl(0xf0, 0x7373)\n        /* \"#utility.yul\":8599:8617   */\n      0x64\n      dup3\n      add\n        /* \"#utility.yul\":8592:8624   */\n      mstore\n        /* \"#utility.yul\":8641:8660   */\n      0x84\n      add\n        /* \"ERC20.sol\":10889:10957  require(spender != address(0), \"ERC20: approve to the zero address\") */\n      tag_172\n        /* \"#utility.yul\":8268:8666   */\n      jump\n        /* \"ERC20.sol\":10889:10957  require(spender != address(0), \"ERC20: approve to the zero address\") */\n    tag_207:\n      sub(shl(0xa0, 0x01), 0x01)\n        /* \"ERC20.sol\":10968:10986  _allowances[owner] */\n      dup4\n      dup2\n      and\n      0x00\n      dup2\n      dup2\n      mstore\n        /* \"ERC20.sol\":10968:10979  _allowances */\n      0x01\n        /* \"ERC20.sol\":10968:10986  _allowances[owner] */\n      0x20\n      swap1\n      dup2\n      mstore\n      0x40\n      dup1\n      dup4\n      keccak256\n        /* \"ERC20.sol\":10968:10995  _allowances[owner][spender] */\n      swap5\n      dup8\n      and\n      dup1\n      dup5\n      mstore\n      swap5\n      dup3\n      mstore\n      swap2\n      dup3\n      swap1\n      keccak256\n        /* \"ERC20.sol\":10968:11004  _allowances[owner][spender] = amount */\n      dup6\n      swap1\n      sstore\n        /* \"ERC20.sol\":11019:11051  Approval(owner, spender, amount) */\n      swap1\n      mload\n        /* \"#utility.yul\":1442:1467   */\n      dup5\n      dup2\n      mstore\n        /* \"ERC20.sol\":11019:11051  Approval(owner, spender, amount) */\n      0x8c5be1e5ebec7d5bd14f71427d1e84f3dd0314c0f7b2291e5b200ac8c7c3b925\n      swap2\n        /* \"#utility.yul\":1415:1433   */\n      add\n        /* \"ERC20.sol\":11019:11051  Approval(owner, spender, amount) */\n    tag_210:\n      mload(0x40)\n      dup1\n      swap2\n      sub\n      swap1\n      log3\n        /* \"ERC20.sol\":10688:11058  function _approve(... */\n      pop\n      pop\n      pop\n      jump\t// out\n        /* \"ERC20.sol\":11339:11826  function _spendAllowance(... */\n    tag_122:\n        /* \"ERC20.sol\":11469:11493  uint256 currentAllowance */\n      0x00\n        /* \"ERC20.sol\":11496:11521  allowance(owner, spender) */\n      tag_212\n        /* \"ERC20.sol\":11506:11511  owner */\n      dup5\n        /* \"ERC20.sol\":11513:11520  spender */\n      dup5\n        /* \"ERC20.sol\":11496:11505  allowance */\n      tag_101\n        /* \"ERC20.sol\":11496:11521  allowance(owner, spender) */\n      jump\t// in\n    tag_212:\n        /* \"ERC20.sol\":11469:11521  uint256 currentAllowance = allowance(owner, spender) */\n      swap1\n      pop\n      not(0x00)\n        /* \"ERC20.sol\":11535:11551  currentAllowance */\n      dup2\n        /* \"ERC20.sol\":11535:11572  currentAllowance != type(uint256).max */\n      eq\n        /* \"ERC20.sol\":11531:11820  if (currentAllowance != type(uint256).max) {... */\n      tag_217\n      jumpi\n        /* \"ERC20.sol\":11633:11639  amount */\n      dup2\n        /* \"ERC20.sol\":11613:11629  currentAllowance */\n      dup2\n        /* \"ERC20.sol\":11613:11639  currentAllowance >= amount */\n      lt\n      iszero\n        /* \"ERC20.sol\":11588:11702  require(... */\n      tag_214\n      jumpi\n      mload(0x40)\n      shl(0xe5, 0x461bcd)\n      dup2\n      mstore\n        /* \"#utility.yul\":8873:8875   */\n      0x20\n        /* \"ERC20.sol\":11588:11702  require(... */\n      0x04\n      dup3\n      add\n        /* \"#utility.yul\":8855:8876   */\n      mstore\n        /* \"#utility.yul\":8912:8914   */\n      0x1d\n        /* \"#utility.yul\":8892:8910   */\n      0x24\n      dup3\n      add\n        /* \"#utility.yul\":8885:8915   */\n      mstore\n        /* \"#utility.yul\":8951:8982   */\n      0x45524332303a20696e73756666696369656e7420616c6c6f77616e6365000000\n        /* \"#utility.yul\":8931:8949   */\n      0x44\n      dup3\n      add\n        /* \"#utility.yul\":8924:8983   */\n      mstore\n        /* \"#utility.yul\":9000:9018   */\n      0x64\n      add\n        /* \"ERC20.sol\":11588:11702  require(... */\n      tag_172\n        /* \"#utility.yul\":8671:9024   */\n      jump\n        /* \"ERC20.sol\":11588:11702  require(... */\n    tag_214:\n        /* \"ERC20.sol\":11744:11795  _approve(owner, spender, currentAllowance - amount) */\n      tag_217\n        /* \"ERC20.sol\":11753:11758  owner */\n      dup5\n        /* \"ERC20.sol\":11760:11767  spender */\n      dup5\n        /* \"ERC20.sol\":11788:11794  amount */\n      dup5\n        /* \"ERC20.sol\":11769:11785  currentAllowance */\n      dup5\n        /* \"ERC20.sol\":11769:11794  currentAllowance - amount */\n      sub\n        /* \"ERC20.sol\":11744:11752  _approve */\n      tag_117\n        /* \"ERC20.sol\":11744:11795  _approve(owner, spender, currentAllowance - amount) */\n      jump\t// in\n    tag_217:\n        /* \"ERC20.sol\":11459:11826  {... */\n      pop\n        /* \"ERC20.sol\":11339:11826  function _spendAllowance(... */\n      pop\n      pop\n      pop\n      jump\t// out\n        /* \"ERC20.sol\":7623:8475  function _transfer(... */\n    tag_124:\n      sub(shl(0xa0, 0x01), 0x01)\n        /* \"ERC20.sol\":7749:7767  from != address(0) */\n      dup4\n      and\n        /* \"ERC20.sol\":7741:7809  require(from != address(0), \"ERC20: transfer from the zero address\") */\n      tag_219\n      jumpi\n      mload(0x40)\n      shl(0xe5, 0x461bcd)\n      dup2\n      mstore\n        /* \"#utility.yul\":9231:9233   */\n      0x20\n        /* \"ERC20.sol\":7741:7809  require(from != address(0), \"ERC20: transfer from the zero address\") */\n      0x04\n      dup3\n      add\n        /* \"#utility.yul\":9213:9234   */\n      mstore\n        /* \"#utility.yul\":9270:9272   */\n      0x25\n        /* \"#utility.yul\":9250:9268   */\n      0x24\n      dup3\n      add\n        /* \"#utility.yul\":9243:9273   */\n      mstore\n        /* \"#utility.yul\":9309:9343   */\n      0x45524332303a207472616e736665722066726f6d20746865207a65726f206164\n        /* \"#utility.yul\":9289:9307   */\n      0x44\n      dup3\n      add\n        /* \"#utility.yul\":9282:9344   */\n      mstore\n      shl(0xd8, 0x6472657373)\n        /* \"#utility.yul\":9360:9378   */\n      0x64\n      dup3\n      add\n        /* \"#utility.yul\":9353:9388   */\n      mstore\n        /* \"#utility.yul\":9405:9424   */\n      0x84\n      add\n        /* \"ERC20.sol\":7741:7809  require(from != address(0), \"ERC20: transfer from the zero address\") */\n      tag_172\n        /* \"#utility.yul\":9029:9430   */\n      jump\n        /* \"ERC20.sol\":7741:7809  require(from != address(0), \"ERC20: transfer from the zero address\") */\n    tag_219:\n      sub(shl(0xa0, 0x01), 0x01)\n        /* \"ERC20.sol\":7827:7843  to != address(0) */\n      dup3\n      and\n        /* \"ERC20.sol\":7819:7883  require(to != address(0), \"ERC20: transfer to the zero address\") */\n      tag_222\n      jumpi\n      mload(0x40)\n      shl(0xe5, 0x461bcd)\n      dup2\n      mstore\n        /* \"#utility.yul\":9637:9639   */\n      0x20\n        /* \"ERC20.sol\":7819:7883  require(to != address(0), \"ERC20: transfer to the zero address\") */\n      0x04\n      dup3\n      add\n        /* \"#utility.yul\":9619:9640   */\n      mstore\n        /* \"#utility.yul\":9676:9678   */\n      0x23\n        /* \"#utility.yul\":9656:9674   */\n      0x24\n      dup3\n      add\n        /* \"#utility.yul\":9649:9679   */\n      mstore\n        /* \"#utility.yul\":9715:9749   */\n      0x45524332303a207472616e7366657220746f20746865207a65726f2061646472\n        /* \"#utility.yul\":9695:9713   */\n      0x44\n      dup3\n      add\n        /* \"#utility.yul\":9688:9750   */\n      mstore\n      shl(0xe8, 0x657373)\n        /* \"#utility.yul\":9766:9784   */\n      0x64\n      dup3\n      add\n        /* \"#utility.yul\":9759:9792   */\n      mstore\n        /* \"#utility.yul\":9809:9828   */\n      0x84\n      add\n        /* \"ERC20.sol\":7819:7883  require(to != address(0), \"ERC20: transfer to the zero address\") */\n      tag_172\n        /* \"#utility.yul\":9435:9834   */\n      jump\n        /* \"ERC20.sol\":7819:7883  require(to != address(0), \"ERC20: transfer to the zero address\") */\n    tag_222:\n      sub(shl(0xa0, 0x01), 0x01)\n        /* \"ERC20.sol\":7965:7980  _balances[from] */\n      dup4\n      and\n        /* \"ERC20.sol\":7943:7962  uint256 fromBalance */\n      0x00\n        /* \"ERC20.sol\":7965:7980  _balances[from] */\n      swap1\n      dup2\n      mstore\n      0x20\n      dup2\n      swap1\n      mstore\n      0x40\n      swap1\n      keccak256\n      sload\n        /* \"ERC20.sol\":8011:8032  fromBalance >= amount */\n      dup2\n      dup2\n      lt\n      iszero\n        /* \"ERC20.sol\":7990:8096  require(... */\n      tag_227\n      jumpi\n      mload(0x40)\n      shl(0xe5, 0x461bcd)\n      dup2\n      mstore\n        /* \"#utility.yul\":10041:10043   */\n      0x20\n        /* \"ERC20.sol\":7990:8096  require(... */\n      0x04\n      dup3\n      add\n        /* \"#utility.yul\":10023:10044   */\n      mstore\n        /* \"#utility.yul\":10080:10082   */\n      0x26\n        /* \"#utility.yul\":10060:10078   */\n      0x24\n      dup3\n      add\n        /* \"#utility.yul\":10053:10083   */\n      mstore\n        /* \"#utility.yul\":10119:10153   */\n      0x45524332303a207472616e7366657220616d6f756e7420657863656564732062\n        /* \"#utility.yul\":10099:10117   */\n      0x44\n      dup3\n      add\n        /* \"#utility.yul\":10092:10154   */\n      mstore\n      shl(0xd0, 0x616c616e6365)\n        /* \"#utility.yul\":10170:10188   */\n      0x64\n      dup3\n      add\n        /* \"#utility.yul\":10163:10199   */\n      mstore\n        /* \"#utility.yul\":10216:10235   */\n      0x84\n      add\n        /* \"ERC20.sol\":7990:8096  require(... */\n      tag_172\n        /* \"#utility.yul\":9839:10241   */\n      jump\n        /* \"ERC20.sol\":7990:8096  require(... */\n    tag_227:\n      sub(shl(0xa0, 0x01), 0x01)\n        /* \"ERC20.sol\":8130:8145  _balances[from] */\n      dup5\n      dup2\n      and\n        /* \"ERC20.sol\":8130:8139  _balances */\n      0x00\n        /* \"ERC20.sol\":8130:8145  _balances[from] */\n      dup2\n      dup2\n      mstore\n      0x20\n      dup2\n      dup2\n      mstore\n      0x40\n      dup1\n      dup4\n      keccak256\n        /* \"ERC20.sol\":8148:8168  fromBalance - amount */\n      dup8\n      dup8\n      sub\n        /* \"ERC20.sol\":8130:8168  _balances[from] = fromBalance - amount */\n      swap1\n      sstore\n        /* \"ERC20.sol\":8345:8358  _balances[to] */\n      swap4\n      dup8\n      and\n      dup1\n      dup4\n      mstore\n      swap2\n      dup5\n      swap1\n      keccak256\n        /* \"ERC20.sol\":8345:8368  _balances[to] += amount */\n      dup1\n      sload\n      dup8\n      add\n      swap1\n      sstore\n        /* \"ERC20.sol\":8394:8420  Transfer(from, to, amount) */\n      swap3\n      mload\n        /* \"#utility.yul\":1442:1467   */\n      dup6\n      dup2\n      mstore\n        /* \"ERC20.sol\":8345:8358  _balances[to] */\n      swap1\n      swap3\n        /* \"ERC20.sol\":8394:8420  Transfer(from, to, amount) */\n      0xddf252ad1be2c89b69c2b068fc378daa952ba7f163c4a11628f55a4df523b3ef\n      swap2\n        /* \"#utility.yul\":1415:1433   */\n      add\n        /* \"ERC20.sol\":8394:8420  Transfer(from, to, amount) */\n      mload(0x40)\n      dup1\n      swap2\n      sub\n      swap1\n      log3\n        /* \"ERC20.sol\":8431:8468  _afterTokenTransfer(from, to, amount) */\n      tag_217\n        /* \"ERC20.sol\":9606:10265  function _burn(address account, uint256 amount) internal virtual {... */\n      jump\n        /* \"EIP712.sol\":3701:3963  function _domainSeparatorV4() internal view returns (bytes32) {... */\n    tag_128:\n        /* \"EIP712.sol\":3754:3761  bytes32 */\n      0x00\n        /* \"EIP712.sol\":3785:3789  this */\n      address\n      sub(shl(0xa0, 0x01), 0x01)\n        /* \"EIP712.sol\":3794:3805  _cachedThis */\n      immutable(\"0x4ce4dab4689da140a0c12de1a6af6b8f679594aeb723205f513e052d27f5b26f\")\n        /* \"EIP712.sol\":3777:3805  address(this) == _cachedThis */\n      and\n      eq\n        /* \"EIP712.sol\":3777:3840  address(this) == _cachedThis && block.chainid == _cachedChainId */\n      dup1\n      iszero\n      tag_234\n      jumpi\n      pop\n        /* \"EIP712.sol\":3826:3840  _cachedChainId */\n      immutable(\"0xb87264ef8bf99bc710f0d9de51012e0b2f3ac2595d912802c21dad6f786bfe81\")\n        /* \"EIP712.sol\":3809:3822  block.chainid */\n      chainid\n        /* \"EIP712.sol\":3809:3840  block.chainid == _cachedChainId */\n      eq\n        /* \"EIP712.sol\":3777:3840  address(this) == _cachedThis && block.chainid == _cachedChainId */\n    tag_234:\n        /* \"EIP712.sol\":3773:3957  if (address(this) == _cachedThis && block.chainid == _cachedChainId) {... */\n      iszero\n      tag_235\n      jumpi\n      pop\n        /* \"EIP712.sol\":3863:3885  _cachedDomainSeparator */\n      immutable(\"0x2fa57ba1e5aaf920647a42cef0ae645a390896e45bb3a84f3fe768980710f31a\")\n      swap1\n        /* \"EIP712.sol\":3701:3963  function _domainSeparatorV4() internal view returns (bytes32) {... */\n      jump\t// out\n        /* \"EIP712.sol\":3773:3957  if (address(this) == _cachedThis && block.chainid == _cachedChainId) {... */\n    tag_235:\n        /* \"EIP712.sol\":3923:3946  _buildDomainSeparator() */\n      tag_127\n        /* \"EIP712.sol\":4089:4288  abi.encode(... */\n      0x40\n      dup1\n      mload\n        /* \"EIP712.sol\":1913:2030  keccak256(... */\n      0x8b73c3c69bb8fe3d512ecc4cf759cc79239f7b179b0ffacaa9a75d522b39400f\n        /* \"EIP712.sol\":4089:4288  abi.encode(... */\n      0x20\n      dup3\n      add\n        /* \"#utility.yul\":11671:11696   */\n      mstore\n        /* \"EIP712.sol\":4153:4164  _hashedName */\n      immutable(\"0xe96cc20f241c05b09b05be99fa40d483e0c60480c24cfabd29fea373217f3b30\")\n        /* \"#utility.yul\":11712:11730   */\n      swap2\n      dup2\n      add\n        /* \"#utility.yul\":11705:11739   */\n      swap2\n      swap1\n      swap2\n      mstore\n        /* \"EIP712.sol\":4186:4200  _hashedVersion */\n      immutable(\"0xb4bf3508f2fd7bb126e7af9e4fe31dbb3cdf386df5936668ea4d8292a4a1b188\")\n        /* \"#utility.yul\":11755:11773   */\n      0x60\n      dup3\n      add\n        /* \"#utility.yul\":11748:11782   */\n      mstore\n        /* \"EIP712.sol\":4222:4235  block.chainid */\n      chainid\n        /* \"#utility.yul\":11798:11816   */\n      0x80\n      dup3\n      add\n        /* \"#utility.yul\":11791:11825   */\n      mstore\n        /* \"EIP712.sol\":4265:4269  this */\n      address\n        /* \"#utility.yul\":11841:11860   */\n      0xa0\n      dup3\n      add\n        /* \"#utility.yul\":11834:11895   */\n      mstore\n        /* \"EIP712.sol\":4024:4031  bytes32 */\n      0x00\n      swap1\n        /* \"#utility.yul\":11643:11662   */\n      0xc0\n      add\n        /* \"EIP712.sol\":4089:4288  abi.encode(... */\n      mload(0x40)\n      0x20\n      dup2\n      dup4\n      sub\n      sub\n      dup2\n      mstore\n      swap1\n      0x40\n      mstore\n        /* \"EIP712.sol\":4062:4302  keccak256(... */\n      dup1\n      mload\n      swap1\n      0x20\n      add\n      keccak256\n        /* \"EIP712.sol\":4043:4302  return... */\n      swap1\n      pop\n        /* \"EIP712.sol\":3969:4309  function _buildDomainSeparator() private view returns (bytes32) {... */\n      swap1\n      jump\n        /* \"ERC20.sol\":9606:10265  function _burn(address account, uint256 amount) internal virtual {... */\n    tag_138:\n      sub(shl(0xa0, 0x01), 0x01)\n        /* \"ERC20.sol\":9689:9710  account != address(0) */\n      dup3\n      and\n        /* \"ERC20.sol\":9681:9748  require(account != address(0), \"ERC20: burn from the zero address\") */\n      tag_240\n      jumpi\n      mload(0x40)\n      shl(0xe5, 0x461bcd)\n      dup2\n      mstore\n        /* \"#utility.yul\":10448:10450   */\n      0x20\n        /* \"ERC20.sol\":9681:9748  require(account != address(0), \"ERC20: burn from the zero address\") */\n      0x04\n      dup3\n      add\n        /* \"#utility.yul\":10430:10451   */\n      mstore\n        /* \"#utility.yul\":10487:10489   */\n      0x21\n        /* \"#utility.yul\":10467:10485   */\n      0x24\n      dup3\n      add\n        /* \"#utility.yul\":10460:10490   */\n      mstore\n        /* \"#utility.yul\":10526:10560   */\n      0x45524332303a206275726e2066726f6d20746865207a65726f20616464726573\n        /* \"#utility.yul\":10506:10524   */\n      0x44\n      dup3\n      add\n        /* \"#utility.yul\":10499:10561   */\n      mstore\n      shl(0xf8, 0x73)\n        /* \"#utility.yul\":10577:10595   */\n      0x64\n      dup3\n      add\n        /* \"#utility.yul\":10570:10601   */\n      mstore\n        /* \"#utility.yul\":10618:10637   */\n      0x84\n      add\n        /* \"ERC20.sol\":9681:9748  require(account != address(0), \"ERC20: burn from the zero address\") */\n      tag_172\n        /* \"#utility.yul\":10246:10643   */\n      jump\n        /* \"ERC20.sol\":9681:9748  require(account != address(0), \"ERC20: burn from the zero address\") */\n    tag_240:\n      sub(shl(0xa0, 0x01), 0x01)\n        /* \"ERC20.sol\":9844:9862  _balances[account] */\n      dup3\n      and\n        /* \"ERC20.sol\":9819:9841  uint256 accountBalance */\n      0x00\n        /* \"ERC20.sol\":9844:9862  _balances[account] */\n      swap1\n      dup2\n      mstore\n      0x20\n      dup2\n      swap1\n      mstore\n      0x40\n      swap1\n      keccak256\n      sload\n        /* \"ERC20.sol\":9880:9904  accountBalance >= amount */\n      dup2\n      dup2\n      lt\n      iszero\n        /* \"ERC20.sol\":9872:9943  require(accountBalance >= amount, \"ERC20: burn amount exceeds balance\") */\n      tag_244\n      jumpi\n      mload(0x40)\n      shl(0xe5, 0x461bcd)\n      dup2\n      mstore\n        /* \"#utility.yul\":10850:10852   */\n      0x20\n        /* \"ERC20.sol\":9872:9943  require(accountBalance >= amount, \"ERC20: burn amount exceeds balance\") */\n      0x04\n      dup3\n      add\n        /* \"#utility.yul\":10832:10853   */\n      mstore\n        /* \"#utility.yul\":10889:10891   */\n      0x22\n        /* \"#utility.yul\":10869:10887   */\n      0x24\n      dup3\n      add\n        /* \"#utility.yul\":10862:10892   */\n      mstore\n        /* \"#utility.yul\":10928:10962   */\n      0x45524332303a206275726e20616d6f756e7420657863656564732062616c616e\n        /* \"#utility.yul\":10908:10926   */\n      0x44\n      dup3\n      add\n        /* \"#utility.yul\":10901:10963   */\n      mstore\n      shl(0xf0, 0x6365)\n        /* \"#utility.yul\":10979:10997   */\n      0x64\n      dup3\n      add\n        /* \"#utility.yul\":10972:11004   */\n      mstore\n        /* \"#utility.yul\":11021:11040   */\n      0x84\n      add\n        /* \"ERC20.sol\":9872:9943  require(accountBalance >= amount, \"ERC20: burn amount exceeds balance\") */\n      tag_172\n        /* \"#utility.yul\":10648:11046   */\n      jump\n        /* \"ERC20.sol\":9872:9943  require(accountBalance >= amount, \"ERC20: burn amount exceeds balance\") */\n    tag_244:\n      sub(shl(0xa0, 0x01), 0x01)\n        /* \"ERC20.sol\":9977:9995  _balances[account] */\n      dup4\n      and\n        /* \"ERC20.sol\":9977:9986  _balances */\n      0x00\n        /* \"ERC20.sol\":9977:9995  _balances[account] */\n      dup2\n      dup2\n      mstore\n      0x20\n      dup2\n      dup2\n      mstore\n      0x40\n      dup1\n      dup4\n      keccak256\n        /* \"ERC20.sol\":9998:10021  accountBalance - amount */\n      dup7\n      dup7\n      sub\n        /* \"ERC20.sol\":9977:10021  _balances[account] = accountBalance - amount */\n      swap1\n      sstore\n        /* \"ERC20.sol\":10114:10126  _totalSupply */\n      0x02\n        /* \"ERC20.sol\":10114:10136  _totalSupply -= amount */\n      dup1\n      sload\n      dup8\n      swap1\n      sub\n      swap1\n      sstore\n        /* \"ERC20.sol\":10162:10199  Transfer(account, address(0), amount) */\n      mload\n        /* \"#utility.yul\":1442:1467   */\n      dup6\n      dup2\n      mstore\n        /* \"ERC20.sol\":9977:9986  _balances */\n      swap2\n      swap3\n        /* \"ERC20.sol\":9977:9995  _balances[account] */\n      swap2\n        /* \"ERC20.sol\":10162:10199  Transfer(account, address(0), amount) */\n      0xddf252ad1be2c89b69c2b068fc378daa952ba7f163c4a11628f55a4df523b3ef\n      swap2\n        /* \"#utility.yul\":1415:1433   */\n      add\n        /* \"ERC20.sol\":10162:10199  Transfer(account, address(0), amount) */\n      tag_210\n        /* \"#utility.yul\":1296:1473   */\n      jump\n        /* \"Ownable.sol\":1374:1504  function _checkOwner() internal view virtual {... */\n    tag_142:\n        /* \"Ownable.sol\":1288:1294  _owner */\n      and(sub(shl(0xa0, 0x01), 0x01), sload(0x09))\n        /* \"Context.sol\":719:729  msg.sender */\n      caller\n        /* \"Ownable.sol\":1437:1460  owner() == _msgSender() */\n      eq\n        /* \"Ownable.sol\":1429:1497  require(owner() == _msgSender(), \"Ownable: caller is not the owner\") */\n      tag_144\n      jumpi\n      mload(0x40)\n      shl(0xe5, 0x461bcd)\n      dup2\n      mstore\n        /* \"#utility.yul\":11253:11255   */\n      0x20\n        /* \"Ownable.sol\":1429:1497  require(owner() == _msgSender(), \"Ownable: caller is not the owner\") */\n      0x04\n      dup3\n      add\n        /* \"#utility.yul\":11235:11256   */\n      dup2\n      swap1\n      mstore\n        /* \"#utility.yul\":11272:11290   */\n      0x24\n      dup3\n      add\n        /* \"#utility.yul\":11265:11295   */\n      mstore\n        /* \"#utility.yul\":11331:11365   */\n      0x4f776e61626c653a2063616c6c6572206973206e6f7420746865206f776e6572\n        /* \"#utility.yul\":11311:11329   */\n      0x44\n      dup3\n      add\n        /* \"#utility.yul\":11304:11366   */\n      mstore\n        /* \"#utility.yul\":11383:11401   */\n      0x64\n      add\n        /* \"Ownable.sol\":1429:1497  require(owner() == _msgSender(), \"Ownable: caller is not the owner\") */\n      tag_172\n        /* \"#utility.yul\":11051:11407   */\n      jump\n        /* \"Ownable.sol\":2475:2662  function _transferOwnership(address newOwner) internal virtual {... */\n    tag_145:\n        /* \"Ownable.sol\":2567:2573  _owner */\n      0x09\n      dup1\n      sload\n      sub(shl(0xa0, 0x01), 0x01)\n        /* \"Ownable.sol\":2583:2600  _owner = newOwner */\n      dup4\n      dup2\n      and\n      not(sub(shl(0xa0, 0x01), 0x01))\n      dup4\n      and\n      dup2\n      or\n      swap1\n      swap4\n      sstore\n        /* \"Ownable.sol\":2615:2655  OwnershipTransferred(oldOwner, newOwner) */\n      mload(0x40)\n        /* \"Ownable.sol\":2567:2573  _owner */\n      swap2\n      and\n      swap2\n        /* \"Ownable.sol\":2583:2600  _owner = newOwner */\n      swap1\n        /* \"Ownable.sol\":2567:2573  _owner */\n      dup3\n      swap1\n        /* \"Ownable.sol\":2615:2655  OwnershipTransferred(oldOwner, newOwner) */\n      0x8be0079c531659141344cd1fd0a4f28419497f9722a3daafe3b4186f6b6457e0\n      swap1\n        /* \"Ownable.sol\":2548:2564  address oldOwner */\n      0x00\n      swap1\n        /* \"Ownable.sol\":2615:2655  OwnershipTransferred(oldOwner, newOwner) */\n      log3\n        /* \"Ownable.sol\":2538:2662  {... */\n      pop\n        /* \"Ownable.sol\":2475:2662  function _transferOwnership(address newOwner) internal virtual {... */\n      pop\n      jump\t// out\n        /* \"ShortStrings.sol\":3367:3635  function toStringWithFallback(ShortString value, string storage store) internal pure returns (string memory) {... */\n    tag_155:\n        /* \"ShortStrings.sol\":3461:3474  string memory */\n      0x60\n        /* \"ShortStrings.sol\":1371:1437  0x00000000000000000000000000000000000000000000000000000000000000FF */\n      0xff\n        /* \"ShortStrings.sol\":3490:3537  ShortString.unwrap(value) != _FALLBACK_SENTINEL */\n      dup4\n      eq\n        /* \"ShortStrings.sol\":3486:3629  if (ShortString.unwrap(value) != _FALLBACK_SENTINEL) {... */\n      tag_258\n      jumpi\n        /* \"ShortStrings.sol\":3560:3575  toString(value) */\n      tag_259\n        /* \"ShortStrings.sol\":3569:3574  value */\n      dup4\n        /* \"ShortStrings.sol\":3560:3568  toString */\n      tag_260\n        /* \"ShortStrings.sol\":3560:3575  toString(value) */\n      jump\t// in\n    tag_259:\n        /* \"ShortStrings.sol\":3553:3575  return toString(value) */\n      swap1\n      pop\n      jump(tag_113)\n        /* \"ShortStrings.sol\":3486:3629  if (ShortString.unwrap(value) != _FALLBACK_SENTINEL) {... */\n    tag_258:\n        /* \"ShortStrings.sol\":3613:3618  store */\n      dup2\n        /* \"ShortStrings.sol\":3606:3618  return store */\n      dup1\n      sload\n      tag_262\n      swap1\n      tag_108\n      jump\t// in\n    tag_262:\n      dup1\n      0x1f\n      add\n      0x20\n      dup1\n      swap2\n      div\n      mul\n      0x20\n      add\n      mload(0x40)\n      swap1\n      dup2\n      add\n      0x40\n      mstore\n      dup1\n      swap3\n      swap2\n      swap1\n      dup2\n      dup2\n      mstore\n      0x20\n      add\n      dup3\n      dup1\n      sload\n      tag_263\n      swap1\n      tag_108\n      jump\t// in\n    tag_263:\n      dup1\n      iszero\n      tag_264\n      jumpi\n      dup1\n      0x1f\n      lt\n      tag_265\n      jumpi\n      0x0100\n      dup1\n      dup4\n      sload\n      div\n      mul\n      dup4\n      mstore\n      swap2\n      0x20\n      add\n      swap2\n      jump(tag_264)\n    tag_265:\n      dup3\n      add\n      swap2\n      swap1\n      0x00\n      mstore\n      keccak256(0x00, 0x20)\n      swap1\n    tag_266:\n      dup2\n      sload\n      dup2\n      mstore\n      swap1\n      0x01\n      add\n      swap1\n      0x20\n      add\n      dup1\n      dup4\n      gt\n      tag_266\n      jumpi\n      dup3\n      swap1\n      sub\n      0x1f\n      and\n      dup3\n      add\n      swap2\n    tag_264:\n      pop\n      pop\n      pop\n      pop\n      pop\n      swap1\n      pop\n      jump(tag_113)\n        /* \"ERC20Permit.sol\":3213:3430  function _useNonce(... */\n    tag_183:\n      sub(shl(0xa0, 0x01), 0x01)\n        /* \"ERC20Permit.sol\":3347:3361  _nonces[owner] */\n      dup2\n      and\n        /* \"ERC20Permit.sol\":3287:3302  uint256 current */\n      0x00\n        /* \"ERC20Permit.sol\":3347:3361  _nonces[owner] */\n      swap1\n      dup2\n      mstore\n        /* \"ERC20Permit.sol\":3347:3354  _nonces */\n      0x07\n        /* \"ERC20Permit.sol\":3347:3361  _nonces[owner] */\n      0x20\n      mstore\n      0x40\n      swap1\n      keccak256\n        /* \"Counters.sol\":918:932  counter._value */\n      dup1\n      sload\n        /* \"Counters.sol\":1050:1051  1 */\n      0x01\n        /* \"Counters.sol\":1032:1051  counter._value += 1 */\n      dup2\n      add\n      dup3\n      sstore\n        /* \"Counters.sol\":918:932  counter._value */\n      swap1\n        /* \"ERC20Permit.sol\":3406:3423  nonce.increment() */\n    tag_269:\n        /* \"ERC20Permit.sol\":3304:3430  {... */\n      pop\n        /* \"ERC20Permit.sol\":3213:3430  function _useNonce(... */\n      swap2\n      swap1\n      pop\n      jump\t// out\n        /* \"EIP712.sol\":4934:5113  function _hashTypedDataV4(... */\n    tag_187:\n        /* \"EIP712.sol\":5025:5032  bytes32 */\n      0x00\n        /* \"EIP712.sol\":5051:5106  ECDSA.toTypedDataHash(_domainSeparatorV4(), structHash) */\n      tag_113\n        /* \"EIP712.sol\":5073:5093  _domainSeparatorV4() */\n      tag_273\n        /* \"EIP712.sol\":5073:5091  _domainSeparatorV4 */\n      tag_128\n        /* \"EIP712.sol\":5073:5093  _domainSeparatorV4() */\n      jump\t// in\n    tag_273:\n        /* \"EIP712.sol\":5095:5105  structHash */\n      dup4\n        /* \"ECDSA.sol\":8961:8965  0x40 */\n      0x40\n        /* \"ECDSA.sol\":8955:8966  mload(0x40) */\n      mload\n      shl(0xf0, 0x1901)\n        /* \"ECDSA.sol\":8979:9002  mstore(ptr, \"\\x19\\x01\") */\n      dup2\n      mstore\n        /* \"ECDSA.sol\":9031:9035  0x02 */\n      0x02\n        /* \"ECDSA.sol\":9022:9036  add(ptr, 0x02) */\n      dup2\n      add\n        /* \"ECDSA.sol\":9015:9054  mstore(add(ptr, 0x02), domainSeparator) */\n      swap3\n      swap1\n      swap3\n      mstore\n        /* \"ECDSA.sol\":9083:9087  0x22 */\n      0x22\n        /* \"ECDSA.sol\":9074:9088  add(ptr, 0x22) */\n      dup3\n      add\n        /* \"ECDSA.sol\":9067:9101  mstore(add(ptr, 0x22), structHash) */\n      mstore\n        /* \"ECDSA.sol\":9137:9141  0x42 */\n      0x42\n        /* \"ECDSA.sol\":9122:9142  keccak256(ptr, 0x42) */\n      swap1\n      keccak256\n      swap1\n        /* \"ECDSA.sol\":8739:9158  function toTypedDataHash(... */\n      jump\n        /* \"ECDSA.sol\":6815:7085  function recover(... */\n    tag_189:\n        /* \"ECDSA.sol\":6938:6945  address */\n      0x00\n        /* \"ECDSA.sol\":6958:6975  address recovered */\n      dup1\n        /* \"ECDSA.sol\":6977:6995  RecoverError error */\n      0x00\n        /* \"ECDSA.sol\":6999:7024  tryRecover(hash, v, r, s) */\n      tag_276\n        /* \"ECDSA.sol\":7010:7014  hash */\n      dup8\n        /* \"ECDSA.sol\":7016:7017  v */\n      dup8\n        /* \"ECDSA.sol\":7019:7020  r */\n      dup8\n        /* \"ECDSA.sol\":7022:7023  s */\n      dup8\n        /* \"ECDSA.sol\":6999:7009  tryRecover */\n      tag_277\n        /* \"ECDSA.sol\":6999:7024  tryRecover(hash, v, r, s) */\n      jump\t// in\n    tag_276:\n        /* \"ECDSA.sol\":6957:7024  (address recovered, RecoverError error) = tryRecover(hash, v, r, s) */\n      swap2\n      pop\n      swap2\n      pop\n        /* \"ECDSA.sol\":7034:7052  _throwError(error) */\n      tag_278\n        /* \"ECDSA.sol\":7046:7051  error */\n      dup2\n        /* \"ECDSA.sol\":7034:7045  _throwError */\n      tag_279\n        /* \"ECDSA.sol\":7034:7052  _throwError(error) */\n      jump\t// in\n    tag_278:\n      pop\n        /* \"ECDSA.sol\":7069:7078  recovered */\n      swap6\n        /* \"ECDSA.sol\":6815:7085  function recover(... */\n      swap5\n      pop\n      pop\n      pop\n      pop\n      pop\n      jump\t// out\n        /* \"ShortStrings.sol\":2059:2464  function toString(ShortString sstr) internal pure returns (string memory) {... */\n    tag_260:\n        /* \"ShortStrings.sol\":2118:2131  string memory */\n      0x60\n        /* \"ShortStrings.sol\":2143:2154  uint256 len */\n      0x00\n        /* \"ShortStrings.sol\":2157:2173  byteLength(sstr) */\n      tag_286\n        /* \"ShortStrings.sol\":2168:2172  sstr */\n      dup4\n        /* \"ShortStrings.sol\":2157:2167  byteLength */\n      tag_287\n        /* \"ShortStrings.sol\":2157:2173  byteLength(sstr) */\n      jump\t// in\n    tag_286:\n        /* \"ShortStrings.sol\":2281:2295  new string(32) */\n      0x40\n      dup1\n      mload\n        /* \"ShortStrings.sol\":2292:2294  32 */\n      0x20\n        /* \"ShortStrings.sol\":2281:2295  new string(32) */\n      dup1\n      dup3\n      mstore\n      dup2\n      dup4\n      add\n      swap1\n      swap3\n      mstore\n        /* \"ShortStrings.sol\":2143:2173  uint256 len = byteLength(sstr) */\n      swap2\n      swap3\n      pop\n        /* \"ShortStrings.sol\":2261:2278  string memory str */\n      0x00\n      swap2\n        /* \"ShortStrings.sol\":2281:2295  new string(32) */\n      swap1\n      0x20\n      dup3\n      add\n      dup2\n      dup1\n      calldatasize\n      dup4\n      calldatacopy\n      pop\n      pop\n      pop\n        /* \"ShortStrings.sol\":2371:2387  mstore(str, len) */\n      swap2\n      dup3\n      mstore\n      pop\n        /* \"ShortStrings.sol\":2416:2420  0x20 */\n      0x20\n        /* \"ShortStrings.sol\":2407:2421  add(str, 0x20) */\n      dup2\n      add\n        /* \"ShortStrings.sol\":2400:2428  mstore(add(str, 0x20), sstr) */\n      swap3\n      swap1\n      swap3\n      mstore\n      pop\n        /* \"ShortStrings.sol\":2371:2387  mstore(str, len) */\n      swap1\n        /* \"ShortStrings.sol\":2059:2464  function toString(ShortString sstr) internal pure returns (string memory) {... */\n      jump\t// out\n        /* \"ECDSA.sol\":5154:6682  function tryRecover(... */\n    tag_277:\n        /* \"ECDSA.sol\":5280:5287  address */\n      0x00\n      dup1\n        /* \"ECDSA.sol\":6229:6295  0x7FFFFFFFFFFFFFFFFFFFFFFFFFFFFFFF5D576E7357A4501DDFE92F46681B20A0 */\n      0x7fffffffffffffffffffffffffffffff5d576e7357a4501ddfe92f46681b20a0\n        /* \"ECDSA.sol\":6204:6295  uint256(s) >... */\n      dup4\n      gt\n        /* \"ECDSA.sol\":6187:6382  if (... */\n      iszero\n      tag_294\n      jumpi\n      pop\n        /* \"ECDSA.sol\":6336:6337  0 */\n      0x00\n      swap1\n      pop\n        /* \"ECDSA.sol\":6340:6370  RecoverError.InvalidSignatureS */\n      0x03\n        /* \"ECDSA.sol\":6320:6371  return (address(0), RecoverError.InvalidSignatureS) */\n      jump(tag_293)\n        /* \"ECDSA.sol\":6187:6382  if (... */\n    tag_294:\n        /* \"ECDSA.sol\":6493:6517  ecrecover(hash, v, r, s) */\n      0x40\n      dup1\n      mload\n        /* \"ECDSA.sol\":6476:6490  address signer */\n      0x00\n        /* \"ECDSA.sol\":6493:6517  ecrecover(hash, v, r, s) */\n      dup1\n      dup3\n      mstore\n      0x20\n      dup3\n      add\n      dup1\n      dup5\n      mstore\n        /* \"#utility.yul\":12133:12158   */\n      dup10\n      swap1\n      mstore\n        /* \"#utility.yul\":12206:12210   */\n      0xff\n        /* \"#utility.yul\":12194:12211   */\n      dup9\n      and\n        /* \"#utility.yul\":12174:12192   */\n      swap3\n      dup3\n      add\n        /* \"#utility.yul\":12167:12212   */\n      swap3\n      swap1\n      swap3\n      mstore\n        /* \"#utility.yul\":12228:12246   */\n      0x60\n      dup2\n      add\n        /* \"#utility.yul\":12221:12255   */\n      dup7\n      swap1\n      mstore\n        /* \"#utility.yul\":12271:12289   */\n      0x80\n      dup2\n      add\n        /* \"#utility.yul\":12264:12298   */\n      dup6\n      swap1\n      mstore\n        /* \"ECDSA.sol\":6493:6517  ecrecover(hash, v, r, s) */\n      0x01\n      swap1\n        /* \"#utility.yul\":12105:12124   */\n      0xa0\n      add\n        /* \"ECDSA.sol\":6493:6517  ecrecover(hash, v, r, s) */\n      0x20\n      mload(0x40)\n      0x20\n      dup2\n      sub\n      swap1\n      dup1\n      dup5\n      sub\n      swap1\n      dup6\n      gas\n      staticcall\n      iszero\n      dup1\n      iszero\n      tag_298\n      jumpi\n      returndatasize\n      0x00\n      dup1\n      returndatacopy\n      revert(0x00, returndatasize)\n    tag_298:\n      pop\n      pop\n      mload(add(not(0x1f), mload(0x40)))\n      swap2\n      pop\n      pop\n      sub(shl(0xa0, 0x01), 0x01)\n        /* \"ECDSA.sol\":6531:6551  signer == address(0) */\n      dup2\n      and\n        /* \"ECDSA.sol\":6527:6628  if (signer == address(0)) {... */\n      tag_299\n      jumpi\n        /* \"ECDSA.sol\":6583:6584  0 */\n      0x00\n        /* \"ECDSA.sol\":6587:6616  RecoverError.InvalidSignature */\n      0x01\n        /* \"ECDSA.sol\":6567:6617  return (address(0), RecoverError.InvalidSignature) */\n      swap3\n      pop\n      swap3\n      pop\n      pop\n      jump(tag_293)\n        /* \"ECDSA.sol\":6527:6628  if (signer == address(0)) {... */\n    tag_299:\n        /* \"ECDSA.sol\":6646:6652  signer */\n      swap2\n      pop\n        /* \"ECDSA.sol\":6654:6674  RecoverError.NoError */\n      0x00\n      swap1\n      pop\n        /* \"ECDSA.sol\":5154:6682  function tryRecover(... */\n    tag_293:\n      swap5\n      pop\n      swap5\n      swap3\n      pop\n      pop\n      pop\n      jump\t// out\n        /* \"ECDSA.sol\":569:1080  function _throwError(RecoverError error) private pure {... */\n    tag_279:\n        /* \"ECDSA.sol\":646:666  RecoverError.NoError */\n      0x00\n        /* \"ECDSA.sol\":637:642  error */\n      dup2\n        /* \"ECDSA.sol\":637:666  error == RecoverError.NoError */\n      0x04\n      dup2\n      gt\n      iszero\n      tag_305\n      jumpi\n      tag_305\n      tag_303\n      jump\t// in\n    tag_305:\n      sub\n        /* \"ECDSA.sol\":633:1074  if (error == RecoverError.NoError) {... */\n      tag_306\n      jumpi\n        /* \"ECDSA.sol\":569:1080  function _throwError(RecoverError error) private pure {... */\n      pop\n      jump\t// out\n        /* \"ECDSA.sol\":633:1074  if (error == RecoverError.NoError) {... */\n    tag_306:\n        /* \"ECDSA.sol\":742:771  RecoverError.InvalidSignature */\n      0x01\n        /* \"ECDSA.sol\":733:738  error */\n      dup2\n        /* \"ECDSA.sol\":733:771  error == RecoverError.InvalidSignature */\n      0x04\n      dup2\n      gt\n      iszero\n      tag_311\n      jumpi\n      tag_311\n      tag_303\n      jump\t// in\n    tag_311:\n      sub\n        /* \"ECDSA.sol\":729:1074  if (error == RecoverError.InvalidSignature) {... */\n      tag_312\n      jumpi\n        /* \"ECDSA.sol\":787:821  revert(\"ECDSA: invalid signature\") */\n      mload(0x40)\n      shl(0xe5, 0x461bcd)\n      dup2\n      mstore\n        /* \"#utility.yul\":12643:12645   */\n      0x20\n        /* \"ECDSA.sol\":787:821  revert(\"ECDSA: invalid signature\") */\n      0x04\n      dup3\n      add\n        /* \"#utility.yul\":12625:12646   */\n      mstore\n        /* \"#utility.yul\":12682:12684   */\n      0x18\n        /* \"#utility.yul\":12662:12680   */\n      0x24\n      dup3\n      add\n        /* \"#utility.yul\":12655:12685   */\n      mstore\n        /* \"#utility.yul\":12721:12747   */\n      0x45434453413a20696e76616c6964207369676e61747572650000000000000000\n        /* \"#utility.yul\":12701:12719   */\n      0x44\n      dup3\n      add\n        /* \"#utility.yul\":12694:12748   */\n      mstore\n        /* \"#utility.yul\":12765:12783   */\n      0x64\n      add\n        /* \"ECDSA.sol\":787:821  revert(\"ECDSA: invalid signature\") */\n      tag_172\n        /* \"#utility.yul\":12441:12789   */\n      jump\n        /* \"ECDSA.sol\":729:1074  if (error == RecoverError.InvalidSignature) {... */\n    tag_312:\n        /* \"ECDSA.sol\":851:886  RecoverError.InvalidSignatureLength */\n      0x02\n        /* \"ECDSA.sol\":842:847  error */\n      dup2\n        /* \"ECDSA.sol\":842:886  error == RecoverError.InvalidSignatureLength */\n      0x04\n      dup2\n      gt\n      iszero\n      tag_319\n      jumpi\n      tag_319\n      tag_303\n      jump\t// in\n    tag_319:\n      sub\n        /* \"ECDSA.sol\":838:1074  if (error == RecoverError.InvalidSignatureLength) {... */\n      tag_320\n      jumpi\n        /* \"ECDSA.sol\":902:943  revert(\"ECDSA: invalid signature length\") */\n      mload(0x40)\n      shl(0xe5, 0x461bcd)\n      dup2\n      mstore\n        /* \"#utility.yul\":12996:12998   */\n      0x20\n        /* \"ECDSA.sol\":902:943  revert(\"ECDSA: invalid signature length\") */\n      0x04\n      dup3\n      add\n        /* \"#utility.yul\":12978:12999   */\n      mstore\n        /* \"#utility.yul\":13035:13037   */\n      0x1f\n        /* \"#utility.yul\":13015:13033   */\n      0x24\n      dup3\n      add\n        /* \"#utility.yul\":13008:13038   */\n      mstore\n        /* \"#utility.yul\":13074:13107   */\n      0x45434453413a20696e76616c6964207369676e6174757265206c656e67746800\n        /* \"#utility.yul\":13054:13072   */\n      0x44\n      dup3\n      add\n        /* \"#utility.yul\":13047:13108   */\n      mstore\n        /* \"#utility.yul\":13125:13143   */\n      0x64\n      add\n        /* \"ECDSA.sol\":902:943  revert(\"ECDSA: invalid signature length\") */\n      tag_172\n        /* \"#utility.yul\":12794:13149   */\n      jump\n        /* \"ECDSA.sol\":838:1074  if (error == RecoverError.InvalidSignatureLength) {... */\n    tag_320:\n        /* \"ECDSA.sol\":973:1003  RecoverError.InvalidSignatureS */\n      0x03\n        /* \"ECDSA.sol\":964:969  error */\n      dup2\n        /* \"ECDSA.sol\":964:1003  error == RecoverError.InvalidSignatureS */\n      0x04\n      dup2\n      gt\n      iszero\n      tag_327\n      jumpi\n      tag_327\n      tag_303\n      jump\t// in\n    tag_327:\n      sub\n        /* \"ECDSA.sol\":960:1074  if (error == RecoverError.InvalidSignatureS) {... */\n      tag_136\n      jumpi\n        /* \"ECDSA.sol\":1019:1063  revert(\"ECDSA: invalid signature 's' value\") */\n      mload(0x40)\n      shl(0xe5, 0x461bcd)\n      dup2\n      mstore\n        /* \"#utility.yul\":13356:13358   */\n      0x20\n        /* \"ECDSA.sol\":1019:1063  revert(\"ECDSA: invalid signature 's' value\") */\n      0x04\n      dup3\n      add\n        /* \"#utility.yul\":13338:13359   */\n      mstore\n        /* \"#utility.yul\":13395:13397   */\n      0x22\n        /* \"#utility.yul\":13375:13393   */\n      0x24\n      dup3\n      add\n        /* \"#utility.yul\":13368:13398   */\n      mstore\n        /* \"#utility.yul\":13434:13468   */\n      0x45434453413a20696e76616c6964207369676e6174757265202773272076616c\n        /* \"#utility.yul\":13414:13432   */\n      0x44\n      dup3\n      add\n        /* \"#utility.yul\":13407:13469   */\n      mstore\n      shl(0xf0, 0x7565)\n        /* \"#utility.yul\":13485:13503   */\n      0x64\n      dup3\n      add\n        /* \"#utility.yul\":13478:13510   */\n      mstore\n        /* \"#utility.yul\":13527:13546   */\n      0x84\n      add\n        /* \"ECDSA.sol\":1019:1063  revert(\"ECDSA: invalid signature 's' value\") */\n      tag_172\n        /* \"#utility.yul\":13154:13552   */\n      jump\n        /* \"ShortStrings.sol\":2536:2781  function byteLength(ShortString sstr) internal pure returns (uint256) {... */\n    tag_287:\n        /* \"ShortStrings.sol\":2597:2604  uint256 */\n      0x00\n        /* \"ShortStrings.sol\":2669:2673  0xFF */\n      0xff\n        /* \"ShortStrings.sol\":2633:2673  uint256(ShortString.unwrap(sstr)) & 0xFF */\n      dup3\n      and\n        /* \"ShortStrings.sol\":2696:2698  31 */\n      0x1f\n        /* \"ShortStrings.sol\":2687:2698  result > 31 */\n      dup2\n      gt\n        /* \"ShortStrings.sol\":2683:2752  if (result > 31) {... */\n      iszero\n      tag_113\n      jumpi\n        /* \"ShortStrings.sol\":2721:2741  InvalidShortString() */\n      mload(0x40)\n      shl(0xe2, 0x2cd44ac3)\n      dup2\n      mstore\n      0x04\n      add\n      mload(0x40)\n      dup1\n      swap2\n      sub\n      swap1\n      revert\n        /* \"#utility.yul\":14:437   */\n    tag_333:\n        /* \"#utility.yul\":56:59   */\n      0x00\n        /* \"#utility.yul\":94:99   */\n      dup2\n        /* \"#utility.yul\":88:100   */\n      mload\n        /* \"#utility.yul\":121:127   */\n      dup1\n        /* \"#utility.yul\":116:119   */\n      dup5\n        /* \"#utility.yul\":109:128   */\n      mstore\n        /* \"#utility.yul\":146:147   */\n      0x00\n        /* \"#utility.yul\":156:318   */\n    tag_337:\n        /* \"#utility.yul\":170:176   */\n      dup2\n        /* \"#utility.yul\":167:168   */\n      dup2\n        /* \"#utility.yul\":164:177   */\n      lt\n        /* \"#utility.yul\":156:318   */\n      iszero\n      tag_339\n      jumpi\n        /* \"#utility.yul\":232:236   */\n      0x20\n        /* \"#utility.yul\":288:301   */\n      dup2\n      dup6\n      add\n        /* \"#utility.yul\":284:306   */\n      dup2\n      add\n        /* \"#utility.yul\":278:307   */\n      mload\n        /* \"#utility.yul\":260:271   */\n      dup7\n      dup4\n      add\n        /* \"#utility.yul\":256:276   */\n      dup3\n      add\n        /* \"#utility.yul\":249:308   */\n      mstore\n        /* \"#utility.yul\":185:197   */\n      add\n        /* \"#utility.yul\":156:318   */\n      jump(tag_337)\n    tag_339:\n        /* \"#utility.yul\":160:163   */\n      pop\n        /* \"#utility.yul\":363:364   */\n      0x00\n        /* \"#utility.yul\":356:360   */\n      0x20\n        /* \"#utility.yul\":347:353   */\n      dup3\n        /* \"#utility.yul\":342:345   */\n      dup7\n        /* \"#utility.yul\":338:354   */\n      add\n        /* \"#utility.yul\":334:361   */\n      add\n        /* \"#utility.yul\":327:365   */\n      mstore\n        /* \"#utility.yul\":426:430   */\n      0x20\n        /* \"#utility.yul\":419:421   */\n      0x1f\n        /* \"#utility.yul\":415:422   */\n      not\n        /* \"#utility.yul\":410:412   */\n      0x1f\n        /* \"#utility.yul\":402:408   */\n      dup4\n        /* \"#utility.yul\":398:413   */\n      add\n        /* \"#utility.yul\":394:423   */\n      and\n        /* \"#utility.yul\":389:392   */\n      dup6\n        /* \"#utility.yul\":385:424   */\n      add\n        /* \"#utility.yul\":381:431   */\n      add\n        /* \"#utility.yul\":374:431   */\n      swap2\n      pop\n      pop\n        /* \"#utility.yul\":14:437   */\n      swap3\n      swap2\n      pop\n      pop\n      jump\t// out\n        /* \"#utility.yul\":442:662   */\n    tag_29:\n        /* \"#utility.yul\":591:593   */\n      0x20\n        /* \"#utility.yul\":580:589   */\n      dup2\n        /* \"#utility.yul\":573:594   */\n      mstore\n        /* \"#utility.yul\":554:558   */\n      0x00\n        /* \"#utility.yul\":611:656   */\n      tag_341\n        /* \"#utility.yul\":652:654   */\n      0x20\n        /* \"#utility.yul\":641:650   */\n      dup4\n        /* \"#utility.yul\":637:655   */\n      add\n        /* \"#utility.yul\":629:635   */\n      dup5\n        /* \"#utility.yul\":611:656   */\n      tag_333\n      jump\t// in\n    tag_341:\n        /* \"#utility.yul\":603:656   */\n      swap4\n        /* \"#utility.yul\":442:662   */\n      swap3\n      pop\n      pop\n      pop\n      jump\t// out\n        /* \"#utility.yul\":667:840   */\n    tag_334:\n        /* \"#utility.yul\":735:755   */\n      dup1\n      calldataload\n      sub(shl(0xa0, 0x01), 0x01)\n        /* \"#utility.yul\":784:815   */\n      dup2\n      and\n        /* \"#utility.yul\":774:816   */\n      dup2\n      eq\n        /* \"#utility.yul\":764:834   */\n      tag_343\n      jumpi\n        /* \"#utility.yul\":830:831   */\n      0x00\n        /* \"#utility.yul\":827:828   */\n      dup1\n        /* \"#utility.yul\":820:832   */\n      revert\n        /* \"#utility.yul\":764:834   */\n    tag_343:\n        /* \"#utility.yul\":667:840   */\n      swap2\n      swap1\n      pop\n      jump\t// out\n        /* \"#utility.yul\":845:1099   */\n    tag_32:\n        /* \"#utility.yul\":913:919   */\n      0x00\n        /* \"#utility.yul\":921:927   */\n      dup1\n        /* \"#utility.yul\":974:976   */\n      0x40\n        /* \"#utility.yul\":962:971   */\n      dup4\n        /* \"#utility.yul\":953:960   */\n      dup6\n        /* \"#utility.yul\":949:972   */\n      sub\n        /* \"#utility.yul\":945:977   */\n      slt\n        /* \"#utility.yul\":942:994   */\n      iszero\n      tag_345\n      jumpi\n        /* \"#utility.yul\":990:991   */\n      0x00\n        /* \"#utility.yul\":987:988   */\n      dup1\n        /* \"#utility.yul\":980:992   */\n      revert\n        /* \"#utility.yul\":942:994   */\n    tag_345:\n        /* \"#utility.yul\":1013:1042   */\n      tag_346\n        /* \"#utility.yul\":1032:1041   */\n      dup4\n        /* \"#utility.yul\":1013:1042   */\n      tag_334\n      jump\t// in\n    tag_346:\n        /* \"#utility.yul\":1003:1042   */\n      swap5\n        /* \"#utility.yul\":1089:1091   */\n      0x20\n        /* \"#utility.yul\":1074:1092   */\n      swap4\n      swap1\n      swap4\n      add\n        /* \"#utility.yul\":1061:1093   */\n      calldataload\n      swap4\n      pop\n      pop\n      pop\n        /* \"#utility.yul\":845:1099   */\n      jump\t// out\n        /* \"#utility.yul\":1478:1806   */\n    tag_42:\n        /* \"#utility.yul\":1555:1561   */\n      0x00\n        /* \"#utility.yul\":1563:1569   */\n      dup1\n        /* \"#utility.yul\":1571:1577   */\n      0x00\n        /* \"#utility.yul\":1624:1626   */\n      0x60\n        /* \"#utility.yul\":1612:1621   */\n      dup5\n        /* \"#utility.yul\":1603:1610   */\n      dup7\n        /* \"#utility.yul\":1599:1622   */\n      sub\n        /* \"#utility.yul\":1595:1627   */\n      slt\n        /* \"#utility.yul\":1592:1644   */\n      iszero\n      tag_350\n      jumpi\n        /* \"#utility.yul\":1640:1641   */\n      0x00\n        /* \"#utility.yul\":1637:1638   */\n      dup1\n        /* \"#utility.yul\":1630:1642   */\n      revert\n        /* \"#utility.yul\":1592:1644   */\n    tag_350:\n        /* \"#utility.yul\":1663:1692   */\n      tag_351\n        /* \"#utility.yul\":1682:1691   */\n      dup5\n        /* \"#utility.yul\":1663:1692   */\n      tag_334\n      jump\t// in\n    tag_351:\n        /* \"#utility.yul\":1653:1692   */\n      swap3\n      pop\n        /* \"#utility.yul\":1711:1749   */\n      tag_352\n        /* \"#utility.yul\":1745:1747   */\n      0x20\n        /* \"#utility.yul\":1734:1743   */\n      dup6\n        /* \"#utility.yul\":1730:1748   */\n      add\n        /* \"#utility.yul\":1711:1749   */\n      tag_334\n      jump\t// in\n    tag_352:\n        /* \"#utility.yul\":1701:1749   */\n      swap2\n      pop\n        /* \"#utility.yul\":1796:1798   */\n      0x40\n        /* \"#utility.yul\":1785:1794   */\n      dup5\n        /* \"#utility.yul\":1781:1799   */\n      add\n        /* \"#utility.yul\":1768:1800   */\n      calldataload\n        /* \"#utility.yul\":1758:1800   */\n      swap1\n      pop\n        /* \"#utility.yul\":1478:1806   */\n      swap3\n      pop\n      swap3\n      pop\n      swap3\n      jump\t// out\n        /* \"#utility.yul\":2182:2362   */\n    tag_59:\n        /* \"#utility.yul\":2241:2247   */\n      0x00\n        /* \"#utility.yul\":2294:2296   */\n      0x20\n        /* \"#utility.yul\":2282:2291   */\n      dup3\n        /* \"#utility.yul\":2273:2280   */\n      dup5\n        /* \"#utility.yul\":2269:2292   */\n      sub\n        /* \"#utility.yul\":2265:2297   */\n      slt\n        /* \"#utility.yul\":2262:2314   */\n      iszero\n      tag_356\n      jumpi\n        /* \"#utility.yul\":2310:2311   */\n      0x00\n        /* \"#utility.yul\":2307:2308   */\n      dup1\n        /* \"#utility.yul\":2300:2312   */\n      revert\n        /* \"#utility.yul\":2262:2314   */\n    tag_356:\n      pop\n        /* \"#utility.yul\":2333:2356   */\n      calldataload\n      swap2\n        /* \"#utility.yul\":2182:2362   */\n      swap1\n      pop\n      jump\t// out\n        /* \"#utility.yul\":2367:2553   */\n    tag_63:\n        /* \"#utility.yul\":2426:2432   */\n      0x00\n        /* \"#utility.yul\":2479:2481   */\n      0x20\n        /* \"#utility.yul\":2467:2476   */\n      dup3\n        /* \"#utility.yul\":2458:2465   */\n      dup5\n        /* \"#utility.yul\":2454:2477   */\n      sub\n        /* \"#utility.yul\":2450:2482   */\n      slt\n        /* \"#utility.yul\":2447:2499   */\n      iszero\n      tag_358\n      jumpi\n        /* \"#utility.yul\":2495:2496   */\n      0x00\n        /* \"#utility.yul\":2492:2493   */\n      dup1\n        /* \"#utility.yul\":2485:2497   */\n      revert\n        /* \"#utility.yul\":2447:2499   */\n    tag_358:\n        /* \"#utility.yul\":2518:2547   */\n      tag_341\n        /* \"#utility.yul\":2537:2546   */\n      dup3\n        /* \"#utility.yul\":2518:2547   */\n      tag_334\n      jump\t// in\n        /* \"#utility.yul\":2558:3817   */\n    tag_78:\n        /* \"#utility.yul\":2964:2967   */\n      0xff\n        /* \"#utility.yul\":2959:2962   */\n      0xf8\n        /* \"#utility.yul\":2955:2968   */\n      shl\n        /* \"#utility.yul\":2947:2953   */\n      dup9\n        /* \"#utility.yul\":2943:2969   */\n      and\n        /* \"#utility.yul\":2932:2941   */\n      dup2\n        /* \"#utility.yul\":2925:2970   */\n      mstore\n        /* \"#utility.yul\":2906:2910   */\n      0x00\n        /* \"#utility.yul\":2989:2991   */\n      0x20\n        /* \"#utility.yul\":3027:3030   */\n      0xe0\n        /* \"#utility.yul\":3022:3024   */\n      dup2\n        /* \"#utility.yul\":3011:3020   */\n      dup5\n        /* \"#utility.yul\":3007:3025   */\n      add\n        /* \"#utility.yul\":3000:3031   */\n      mstore\n        /* \"#utility.yul\":3054:3100   */\n      tag_361\n        /* \"#utility.yul\":3095:3098   */\n      0xe0\n        /* \"#utility.yul\":3084:3093   */\n      dup5\n        /* \"#utility.yul\":3080:3099   */\n      add\n        /* \"#utility.yul\":3072:3078   */\n      dup11\n        /* \"#utility.yul\":3054:3100   */\n      tag_333\n      jump\t// in\n    tag_361:\n        /* \"#utility.yul\":3148:3157   */\n      dup4\n        /* \"#utility.yul\":3140:3146   */\n      dup2\n        /* \"#utility.yul\":3136:3158   */\n      sub\n        /* \"#utility.yul\":3131:3133   */\n      0x40\n        /* \"#utility.yul\":3120:3129   */\n      dup6\n        /* \"#utility.yul\":3116:3134   */\n      add\n        /* \"#utility.yul\":3109:3159   */\n      mstore\n        /* \"#utility.yul\":3182:3215   */\n      tag_362\n        /* \"#utility.yul\":3208:3214   */\n      dup2\n        /* \"#utility.yul\":3200:3206   */\n      dup11\n        /* \"#utility.yul\":3182:3215   */\n      tag_333\n      jump\t// in\n    tag_362:\n        /* \"#utility.yul\":3246:3248   */\n      0x60\n        /* \"#utility.yul\":3231:3249   */\n      dup6\n      add\n        /* \"#utility.yul\":3224:3258   */\n      dup10\n      swap1\n      mstore\n      sub(shl(0xa0, 0x01), 0x01)\n        /* \"#utility.yul\":3295:3327   */\n      dup9\n      and\n        /* \"#utility.yul\":3289:3292   */\n      0x80\n        /* \"#utility.yul\":3274:3293   */\n      dup7\n      add\n        /* \"#utility.yul\":3267:3328   */\n      mstore\n        /* \"#utility.yul\":3315:3318   */\n      0xa0\n        /* \"#utility.yul\":3344:3363   */\n      dup6\n      add\n        /* \"#utility.yul\":3337:3372   */\n      dup8\n      swap1\n      mstore\n        /* \"#utility.yul\":3409:3431   */\n      dup5\n      dup2\n      sub\n        /* \"#utility.yul\":3403:3406   */\n      0xc0\n        /* \"#utility.yul\":3388:3407   */\n      dup7\n      add\n        /* \"#utility.yul\":3381:3432   */\n      mstore\n        /* \"#utility.yul\":3481:3494   */\n      dup6\n      mload\n        /* \"#utility.yul\":3503:3525   */\n      dup1\n      dup3\n      mstore\n        /* \"#utility.yul\":3579:3594   */\n      dup4\n      dup8\n      add\n      swap3\n      pop\n        /* \"#utility.yul\":3541:3556   */\n      swap1\n      dup4\n      add\n      swap1\n      0x00\n        /* \"#utility.yul\":3622:3791   */\n    tag_363:\n        /* \"#utility.yul\":3636:3642   */\n      dup2\n        /* \"#utility.yul\":3633:3634   */\n      dup2\n        /* \"#utility.yul\":3630:3643   */\n      lt\n        /* \"#utility.yul\":3622:3791   */\n      iszero\n      tag_365\n      jumpi\n        /* \"#utility.yul\":3697:3710   */\n      dup4\n      mload\n        /* \"#utility.yul\":3685:3711   */\n      dup4\n      mstore\n        /* \"#utility.yul\":3766:3781   */\n      swap3\n      dup5\n      add\n      swap3\n        /* \"#utility.yul\":3731:3743   */\n      swap2\n      dup5\n      add\n      swap2\n        /* \"#utility.yul\":3658:3659   */\n      0x01\n        /* \"#utility.yul\":3651:3660   */\n      add\n        /* \"#utility.yul\":3622:3791   */\n      jump(tag_363)\n    tag_365:\n      pop\n        /* \"#utility.yul\":3808:3811   */\n      swap1\n      swap13\n        /* \"#utility.yul\":2558:3817   */\n      swap12\n      pop\n      pop\n      pop\n      pop\n      pop\n      pop\n      pop\n      pop\n      pop\n      pop\n      pop\n      pop\n      jump\t// out\n        /* \"#utility.yul\":4030:4723   */\n    tag_96:\n        /* \"#utility.yul\":4141:4147   */\n      0x00\n        /* \"#utility.yul\":4149:4155   */\n      dup1\n        /* \"#utility.yul\":4157:4163   */\n      0x00\n        /* \"#utility.yul\":4165:4171   */\n      dup1\n        /* \"#utility.yul\":4173:4179   */\n      0x00\n        /* \"#utility.yul\":4181:4187   */\n      dup1\n        /* \"#utility.yul\":4189:4195   */\n      0x00\n        /* \"#utility.yul\":4242:4245   */\n      0xe0\n        /* \"#utility.yul\":4230:4239   */\n      dup9\n        /* \"#utility.yul\":4221:4228   */\n      dup11\n        /* \"#utility.yul\":4217:4240   */\n      sub\n        /* \"#utility.yul\":4213:4246   */\n      slt\n        /* \"#utility.yul\":4210:4263   */\n      iszero\n      tag_368\n      jumpi\n        /* \"#utility.yul\":4259:4260   */\n      0x00\n        /* \"#utility.yul\":4256:4257   */\n      dup1\n        /* \"#utility.yul\":4249:4261   */\n      revert\n        /* \"#utility.yul\":4210:4263   */\n    tag_368:\n        /* \"#utility.yul\":4282:4311   */\n      tag_369\n        /* \"#utility.yul\":4301:4310   */\n      dup9\n        /* \"#utility.yul\":4282:4311   */\n      tag_334\n      jump\t// in\n    tag_369:\n        /* \"#utility.yul\":4272:4311   */\n      swap7\n      pop\n        /* \"#utility.yul\":4330:4368   */\n      tag_370\n        /* \"#utility.yul\":4364:4366   */\n      0x20\n        /* \"#utility.yul\":4353:4362   */\n      dup10\n        /* \"#utility.yul\":4349:4367   */\n      add\n        /* \"#utility.yul\":4330:4368   */\n      tag_334\n      jump\t// in\n    tag_370:\n        /* \"#utility.yul\":4320:4368   */\n      swap6\n      pop\n        /* \"#utility.yul\":4415:4417   */\n      0x40\n        /* \"#utility.yul\":4404:4413   */\n      dup9\n        /* \"#utility.yul\":4400:4418   */\n      add\n        /* \"#utility.yul\":4387:4419   */\n      calldataload\n        /* \"#utility.yul\":4377:4419   */\n      swap5\n      pop\n        /* \"#utility.yul\":4466:4468   */\n      0x60\n        /* \"#utility.yul\":4455:4464   */\n      dup9\n        /* \"#utility.yul\":4451:4469   */\n      add\n        /* \"#utility.yul\":4438:4470   */\n      calldataload\n        /* \"#utility.yul\":4428:4470   */\n      swap4\n      pop\n        /* \"#utility.yul\":4520:4523   */\n      0x80\n        /* \"#utility.yul\":4509:4518   */\n      dup9\n        /* \"#utility.yul\":4505:4524   */\n      add\n        /* \"#utility.yul\":4492:4525   */\n      calldataload\n        /* \"#utility.yul\":4565:4569   */\n      0xff\n        /* \"#utility.yul\":4558:4563   */\n      dup2\n        /* \"#utility.yul\":4554:4570   */\n      and\n        /* \"#utility.yul\":4547:4552   */\n      dup2\n        /* \"#utility.yul\":4544:4571   */\n      eq\n        /* \"#utility.yul\":4534:4589   */\n      tag_371\n      jumpi\n        /* \"#utility.yul\":4585:4586   */\n      0x00\n        /* \"#utility.yul\":4582:4583   */\n      dup1\n        /* \"#utility.yul\":4575:4587   */\n      revert\n        /* \"#utility.yul\":4534:4589   */\n    tag_371:\n        /* \"#utility.yul\":4030:4723   */\n      swap7\n      swap10\n      swap6\n      swap9\n      pop\n      swap4\n      swap7\n      swap3\n      swap6\n        /* \"#utility.yul\":4608:4613   */\n      swap5\n        /* \"#utility.yul\":4660:4663   */\n      0xa0\n        /* \"#utility.yul\":4645:4664   */\n      dup5\n      add\n        /* \"#utility.yul\":4632:4665   */\n      calldataload\n      swap5\n      pop\n        /* \"#utility.yul\":4712:4715   */\n      0xc0\n        /* \"#utility.yul\":4697:4716   */\n      swap1\n      swap4\n      add\n        /* \"#utility.yul\":4684:4717   */\n      calldataload\n      swap3\n        /* \"#utility.yul\":4030:4723   */\n      swap2\n      pop\n      pop\n      jump\t// out\n        /* \"#utility.yul\":4728:4988   */\n    tag_100:\n        /* \"#utility.yul\":4796:4802   */\n      0x00\n        /* \"#utility.yul\":4804:4810   */\n      dup1\n        /* \"#utility.yul\":4857:4859   */\n      0x40\n        /* \"#utility.yul\":4845:4854   */\n      dup4\n        /* \"#utility.yul\":4836:4843   */\n      dup6\n        /* \"#utility.yul\":4832:4855   */\n      sub\n        /* \"#utility.yul\":4828:4860   */\n      slt\n        /* \"#utility.yul\":4825:4877   */\n      iszero\n      tag_373\n      jumpi\n        /* \"#utility.yul\":4873:4874   */\n      0x00\n        /* \"#utility.yul\":4870:4871   */\n      dup1\n        /* \"#utility.yul\":4863:4875   */\n      revert\n        /* \"#utility.yul\":4825:4877   */\n    tag_373:\n        /* \"#utility.yul\":4896:4925   */\n      tag_374\n        /* \"#utility.yul\":4915:4924   */\n      dup4\n        /* \"#utility.yul\":4896:4925   */\n      tag_334\n      jump\t// in\n    tag_374:\n        /* \"#utility.yul\":4886:4925   */\n      swap2\n      pop\n        /* \"#utility.yul\":4944:4982   */\n      tag_375\n        /* \"#utility.yul\":4978:4980   */\n      0x20\n        /* \"#utility.yul\":4967:4976   */\n      dup5\n        /* \"#utility.yul\":4963:4981   */\n      add\n        /* \"#utility.yul\":4944:4982   */\n      tag_334\n      jump\t// in\n    tag_375:\n        /* \"#utility.yul\":4934:4982   */\n      swap1\n      pop\n        /* \"#utility.yul\":4728:4988   */\n      swap3\n      pop\n      swap3\n      swap1\n      pop\n      jump\t// out\n        /* \"#utility.yul\":4993:5373   */\n    tag_108:\n        /* \"#utility.yul\":5072:5073   */\n      0x01\n        /* \"#utility.yul\":5068:5080   */\n      dup2\n      dup2\n      shr\n      swap1\n        /* \"#utility.yul\":5115:5127   */\n      dup3\n      and\n      dup1\n        /* \"#utility.yul\":5136:5197   */\n      tag_377\n      jumpi\n        /* \"#utility.yul\":5190:5194   */\n      0x7f\n        /* \"#utility.yul\":5182:5188   */\n      dup3\n        /* \"#utility.yul\":5178:5195   */\n      and\n        /* \"#utility.yul\":5168:5195   */\n      swap2\n      pop\n        /* \"#utility.yul\":5136:5197   */\n    tag_377:\n        /* \"#utility.yul\":5243:5245   */\n      0x20\n        /* \"#utility.yul\":5235:5241   */\n      dup3\n        /* \"#utility.yul\":5232:5246   */\n      lt\n        /* \"#utility.yul\":5212:5230   */\n      dup2\n        /* \"#utility.yul\":5209:5247   */\n      sub\n        /* \"#utility.yul\":5206:5367   */\n      tag_269\n      jumpi\n        /* \"#utility.yul\":5289:5299   */\n      0x4e487b71\n        /* \"#utility.yul\":5284:5287   */\n      0xe0\n        /* \"#utility.yul\":5280:5300   */\n      shl\n        /* \"#utility.yul\":5277:5278   */\n      0x00\n        /* \"#utility.yul\":5270:5301   */\n      mstore\n        /* \"#utility.yul\":5324:5328   */\n      0x22\n        /* \"#utility.yul\":5321:5322   */\n      0x04\n        /* \"#utility.yul\":5314:5329   */\n      mstore\n        /* \"#utility.yul\":5352:5356   */\n      0x24\n        /* \"#utility.yul\":5349:5350   */\n      0x00\n        /* \"#utility.yul\":5342:5357   */\n      revert\n        /* \"#utility.yul\":5378:5600   */\n    tag_134:\n        /* \"#utility.yul\":5443:5452   */\n      dup1\n      dup3\n      add\n        /* \"#utility.yul\":5464:5474   */\n      dup1\n      dup3\n      gt\n        /* \"#utility.yul\":5461:5594   */\n      iszero\n      tag_113\n      jumpi\n        /* \"#utility.yul\":5516:5526   */\n      0x4e487b71\n        /* \"#utility.yul\":5511:5514   */\n      0xe0\n        /* \"#utility.yul\":5507:5527   */\n      shl\n        /* \"#utility.yul\":5504:5505   */\n      0x00\n        /* \"#utility.yul\":5497:5528   */\n      mstore\n        /* \"#utility.yul\":5551:5555   */\n      0x11\n        /* \"#utility.yul\":5548:5549   */\n      0x04\n        /* \"#utility.yul\":5541:5556   */\n      mstore\n        /* \"#utility.yul\":5579:5583   */\n      0x24\n        /* \"#utility.yul\":5576:5577   */\n      0x00\n        /* \"#utility.yul\":5569:5584   */\n      revert\n        /* \"#utility.yul\":12309:12436   */\n    tag_303:\n        /* \"#utility.yul\":12370:12380   */\n      0x4e487b71\n        /* \"#utility.yul\":12365:12368   */\n      0xe0\n        /* \"#utility.yul\":12361:12381   */\n      shl\n        /* \"#utility.yul\":12358:12359   */\n      0x00\n        /* \"#utility.yul\":12351:12382   */\n      mstore\n        /* \"#utility.yul\":12401:12405   */\n      0x21\n        /* \"#utility.yul\":12398:12399   */\n      0x04\n        /* \"#utility.yul\":12391:12406   */\n      mstore\n        /* \"#utility.yul\":12425:12429   */\n      0x24\n        /* \"#utility.yul\":12422:12423   */\n      0x00\n        /* \"#utility.yul\":12415:12430   */\n      revert\n\n    auxdata: 0xa2646970667358221220327d976774b70bbb2aade783f6253e80f70d8a3109bedd37dff3e2b5bfded7fd64736f6c63430008130033\n}\n",
				"bytecode": {
					"linkReferences": {},
					"object": "6101606040523480156200001257600080fd5b50604051806040016040528060078152602001660a0d0decadcd2f60cb1b81525080604051806040016040528060018152602001603160f81b815250604051806040016040528060078152602001660a0d0decadcd2f60cb1b815250604051806040016040528060048152602001630a0909cb60e31b81525081600390816200009c9190620003e0565b506004620000ab8282620003e0565b50620000bd91508390506005620001a2565b61012052620000ce816006620001a2565b61014052815160208084019190912060e052815190820120610100524660a0526200015c60e05161010051604080517f8b73c3c69bb8fe3d512ecc4cf759cc79239f7b179b0ffacaa9a75d522b39400f60208201529081019290925260608201524660808201523060a082015260009060c00160405160208183030381529060405280519060200120905090565b60805250503060c052506200017133620001db565b6200019c33620001846012600a620005bf565b6200019690655af3107a4000620005d7565b6200022d565b6200067c565b6000602083511015620001c257620001ba83620002f4565b9050620001d5565b81620001cf8482620003e0565b5060ff90505b92915050565b600980546001600160a01b038381166001600160a01b0319831681179093556040519116919082907f8be0079c531659141344cd1fd0a4f28419497f9722a3daafe3b4186f6b6457e090600090a35050565b6001600160a01b038216620002895760405162461bcd60e51b815260206004820152601f60248201527f45524332303a206d696e7420746f20746865207a65726f20616464726573730060448201526064015b60405180910390fd5b80600260008282546200029d9190620005f1565b90915550506001600160a01b038216600081815260208181526040808320805486019055518481527fddf252ad1be2c89b69c2b068fc378daa952ba7f163c4a11628f55a4df523b3ef910160405180910390a35050565b600080829050601f8151111562000322578260405163305a27a960e01b815260040162000280919062000607565b80516200032f8262000657565b179392505050565b505050565b634e487b7160e01b600052604160045260246000fd5b600181811c908216806200036757607f821691505b6020821081036200038857634e487b7160e01b600052602260045260246000fd5b50919050565b601f8211156200033757600081815260208120601f850160051c81016020861015620003b75750805b601f850160051c820191505b81811015620003d857828155600101620003c3565b505050505050565b81516001600160401b03811115620003fc57620003fc6200033c565b62000414816200040d845462000352565b846200038e565b602080601f8311600181146200044c5760008415620004335750858301515b600019600386901b1c1916600185901b178555620003d8565b600085815260208120601f198616915b828110156200047d578886015182559484019460019091019084016200045c565b50858210156200049c5787850151600019600388901b60f8161c191681555b5050505050600190811b01905550565b634e487b7160e01b600052601160045260246000fd5b600181815b8085111562000503578160001904821115620004e757620004e7620004ac565b80851615620004f557918102915b93841c9390800290620004c7565b509250929050565b6000826200051c57506001620001d5565b816200052b57506000620001d5565b81600181146200054457600281146200054f576200056f565b6001915050620001d5565b60ff841115620005635762000563620004ac565b50506001821b620001d5565b5060208310610133831016604e8410600b841016171562000594575081810a620001d5565b620005a08383620004c2565b8060001904821115620005b757620005b7620004ac565b029392505050565b6000620005d060ff8416836200050b565b9392505050565b8082028115828204841417620001d557620001d5620004ac565b80820180821115620001d557620001d5620004ac565b600060208083528351808285015260005b81811015620006365785810183015185820160400152820162000618565b506000604082860101526040601f19601f8301168501019250505092915050565b80516020808301519190811015620003885760001960209190910360031b1b16919050565b60805160a05160c05160e051610100516101205161014051611422620006d7600039600061045c0152600061043101526000610b6b01526000610b4301526000610a9e01526000610ac801526000610af201526114226000f3fe608060405234801561001057600080fd5b506004361061012c5760003560e01c806379cc6790116100ad578063a457c2d711610071578063a457c2d71461026b578063a9059cbb1461027e578063d505accf14610291578063dd62ed3e146102a4578063f2fde38b146102b757600080fd5b806379cc6790146102075780637ecebe001461021a57806384b0196e1461022d5780638da5cb5b1461024857806395d89b411461026357600080fd5b80633644e515116100f45780633644e515146101a657806339509351146101ae57806342966c68146101c157806370a08231146101d6578063715018a6146101ff57600080fd5b806306fdde0314610131578063095ea7b31461014f57806318160ddd1461017257806323b872dd14610184578063313ce56714610197575b600080fd5b6101396102ca565b6040516101469190611175565b60405180910390f35b61016261015d3660046111ab565b61035c565b6040519015158152602001610146565b6002545b604051908152602001610146565b6101626101923660046111d5565b610376565b60405160128152602001610146565b61017661039a565b6101626101bc3660046111ab565b6103a9565b6101d46101cf366004611211565b6103cb565b005b6101766101e436600461122a565b6001600160a01b031660009081526020819052604090205490565b6101d46103d8565b6101d46102153660046111ab565b6103ec565b61017661022836600461122a565b610405565b610235610423565b6040516101469796959493929190611245565b6009546040516001600160a01b039091168152602001610146565b6101396104ac565b6101626102793660046111ab565b6104bb565b61016261028c3660046111ab565b61053b565b6101d461029f3660046112db565b610549565b6101766102b236600461134e565b6106ad565b6101d46102c536600461122a565b6106d8565b6060600380546102d990611381565b80601f016020809104026020016040519081016040528092919081815260200182805461030590611381565b80156103525780601f1061032757610100808354040283529160200191610352565b820191906000526020600020905b81548152906001019060200180831161033557829003601f168201915b5050505050905090565b60003361036a81858561074e565b60019150505b92915050565b600033610384858285610873565b61038f8585856108ed565b506001949350505050565b60006103a4610a91565b905090565b60003361036a8185856103bc83836106ad565b6103c691906113b5565b61074e565b6103d53382610bbc565b50565b6103e0610ce6565b6103ea6000610d40565b565b6103f7823383610873565b6104018282610bbc565b5050565b6001600160a01b038116600090815260076020526040812054610370565b6000606080828080836104577f00000000000000000000000000000000000000000000000000000000000000006005610d92565b6104827f00000000000000000000000000000000000000000000000000000000000000006006610d92565b60408051600080825260208201909252600f60f81b9b939a50919850469750309650945092509050565b6060600480546102d990611381565b600033816104c982866106ad565b90508381101561052e5760405162461bcd60e51b815260206004820152602560248201527f45524332303a2064656372656173656420616c6c6f77616e63652062656c6f77604482015264207a65726f60d81b60648201526084015b60405180910390fd5b61038f828686840361074e565b60003361036a8185856108ed565b834211156105995760405162461bcd60e51b815260206004820152601d60248201527f45524332305065726d69743a206578706972656420646561646c696e650000006044820152606401610525565b60007f6e71edae12b1b97f4d1f60370fef10105fa2faae0126114a169c64845d6126c98888886105c88c610e3d565b6040805160208101969096526001600160a01b0394851690860152929091166060840152608083015260a082015260c0810186905260e001604051602081830303815290604052805190602001209050600061062382610e65565b9050600061063382878787610e92565b9050896001600160a01b0316816001600160a01b0316146106965760405162461bcd60e51b815260206004820152601e60248201527f45524332305065726d69743a20696e76616c6964207369676e617475726500006044820152606401610525565b6106a18a8a8a61074e565b50505050505050505050565b6001600160a01b03918216600090815260016020908152604080832093909416825291909152205490565b6106e0610ce6565b6001600160a01b0381166107455760405162461bcd60e51b815260206004820152602660248201527f4f776e61626c653a206e6577206f776e657220697320746865207a65726f206160448201526564647265737360d01b6064820152608401610525565b6103d581610d40565b6001600160a01b0383166107b05760405162461bcd60e51b8152602060048201526024808201527f45524332303a20617070726f76652066726f6d20746865207a65726f206164646044820152637265737360e01b6064820152608401610525565b6001600160a01b0382166108115760405162461bcd60e51b815260206004820152602260248201527f45524332303a20617070726f766520746f20746865207a65726f206164647265604482015261737360f01b6064820152608401610525565b6001600160a01b0383811660008181526001602090815260408083209487168084529482529182902085905590518481527f8c5be1e5ebec7d5bd14f71427d1e84f3dd0314c0f7b2291e5b200ac8c7c3b92591015b60405180910390a3505050565b600061087f84846106ad565b905060001981146108e757818110156108da5760405162461bcd60e51b815260206004820152601d60248201527f45524332303a20696e73756666696369656e7420616c6c6f77616e63650000006044820152606401610525565b6108e7848484840361074e565b50505050565b6001600160a01b0383166109515760405162461bcd60e51b815260206004820152602560248201527f45524332303a207472616e736665722066726f6d20746865207a65726f206164604482015264647265737360d81b6064820152608401610525565b6001600160a01b0382166109b35760405162461bcd60e51b815260206004820152602360248201527f45524332303a207472616e7366657220746f20746865207a65726f206164647260448201526265737360e81b6064820152608401610525565b6001600160a01b03831660009081526020819052604090205481811015610a2b5760405162461bcd60e51b815260206004820152602660248201527f45524332303a207472616e7366657220616d6f756e7420657863656564732062604482015265616c616e636560d01b6064820152608401610525565b6001600160a01b03848116600081815260208181526040808320878703905593871680835291849020805487019055925185815290927fddf252ad1be2c89b69c2b068fc378daa952ba7f163c4a11628f55a4df523b3ef910160405180910390a36108e7565b6000306001600160a01b037f000000000000000000000000000000000000000000000000000000000000000016148015610aea57507f000000000000000000000000000000000000000000000000000000000000000046145b15610b1457507f000000000000000000000000000000000000000000000000000000000000000090565b6103a4604080517f8b73c3c69bb8fe3d512ecc4cf759cc79239f7b179b0ffacaa9a75d522b39400f60208201527f0000000000000000000000000000000000000000000000000000000000000000918101919091527f000000000000000000000000000000000000000000000000000000000000000060608201524660808201523060a082015260009060c00160405160208183030381529060405280519060200120905090565b6001600160a01b038216610c1c5760405162461bcd60e51b815260206004820152602160248201527f45524332303a206275726e2066726f6d20746865207a65726f206164647265736044820152607360f81b6064820152608401610525565b6001600160a01b03821660009081526020819052604090205481811015610c905760405162461bcd60e51b815260206004820152602260248201527f45524332303a206275726e20616d6f756e7420657863656564732062616c616e604482015261636560f01b6064820152608401610525565b6001600160a01b0383166000818152602081815260408083208686039055600280548790039055518581529192917fddf252ad1be2c89b69c2b068fc378daa952ba7f163c4a11628f55a4df523b3ef9101610866565b6009546001600160a01b031633146103ea5760405162461bcd60e51b815260206004820181905260248201527f4f776e61626c653a2063616c6c6572206973206e6f7420746865206f776e65726044820152606401610525565b600980546001600160a01b038381166001600160a01b0319831681179093556040519116919082907f8be0079c531659141344cd1fd0a4f28419497f9722a3daafe3b4186f6b6457e090600090a35050565b606060ff8314610dac57610da583610eba565b9050610370565b818054610db890611381565b80601f0160208091040260200160405190810160405280929190818152602001828054610de490611381565b8015610e315780601f10610e0657610100808354040283529160200191610e31565b820191906000526020600020905b815481529060010190602001808311610e1457829003601f168201915b50505050509050610370565b6001600160a01b03811660009081526007602052604090208054600181018255905b50919050565b6000610370610e72610a91565b8360405161190160f01b8152600281019290925260228201526042902090565b6000806000610ea387878787610ef9565b91509150610eb081610fbd565b5095945050505050565b60606000610ec783611107565b604080516020808252818301909252919250600091906020820181803683375050509182525060208101929092525090565b6000807f7fffffffffffffffffffffffffffffff5d576e7357a4501ddfe92f46681b20a0831115610f305750600090506003610fb4565b6040805160008082526020820180845289905260ff881692820192909252606081018690526080810185905260019060a0016020604051602081039080840390855afa158015610f84573d6000803e3d6000fd5b5050604051601f1901519150506001600160a01b038116610fad57600060019250925050610fb4565b9150600090505b94509492505050565b6000816004811115610fd157610fd16113d6565b03610fd95750565b6001816004811115610fed57610fed6113d6565b0361103a5760405162461bcd60e51b815260206004820152601860248201527f45434453413a20696e76616c6964207369676e617475726500000000000000006044820152606401610525565b600281600481111561104e5761104e6113d6565b0361109b5760405162461bcd60e51b815260206004820152601f60248201527f45434453413a20696e76616c6964207369676e6174757265206c656e677468006044820152606401610525565b60038160048111156110af576110af6113d6565b036103d55760405162461bcd60e51b815260206004820152602260248201527f45434453413a20696e76616c6964207369676e6174757265202773272076616c604482015261756560f01b6064820152608401610525565b600060ff8216601f81111561037057604051632cd44ac360e21b815260040160405180910390fd5b6000815180845260005b8181101561115557602081850181015186830182015201611139565b506000602082860101526020601f19601f83011685010191505092915050565b602081526000611188602083018461112f565b9392505050565b80356001600160a01b03811681146111a657600080fd5b919050565b600080604083850312156111be57600080fd5b6111c78361118f565b946020939093013593505050565b6000806000606084860312156111ea57600080fd5b6111f38461118f565b92506112016020850161118f565b9150604084013590509250925092565b60006020828403121561122357600080fd5b5035919050565b60006020828403121561123c57600080fd5b6111888261118f565b60ff60f81b881681526000602060e08184015261126560e084018a61112f565b8381036040850152611277818a61112f565b606085018990526001600160a01b038816608086015260a0850187905284810360c0860152855180825283870192509083019060005b818110156112c9578351835292840192918401916001016112ad565b50909c9b505050505050505050505050565b600080600080600080600060e0888a0312156112f657600080fd5b6112ff8861118f565b965061130d6020890161118f565b95506040880135945060608801359350608088013560ff8116811461133157600080fd5b9699959850939692959460a0840135945060c09093013592915050565b6000806040838503121561136157600080fd5b61136a8361118f565b91506113786020840161118f565b90509250929050565b600181811c9082168061139557607f821691505b602082108103610e5f57634e487b7160e01b600052602260045260246000fd5b8082018082111561037057634e487b7160e01b600052601160045260246000fd5b634e487b7160e01b600052602160045260246000fdfea2646970667358221220327d976774b70bbb2aade783f6253e80f70d8a3109bedd37dff3e2b5bfded7fd64736f6c63430008130033",
					"opcodes": "PUSH2 0x160 PUSH1 0x40 MSTORE CALLVALUE DUP1 ISZERO PUSH3 0x12 JUMPI PUSH1 0x0 DUP1 REVERT JUMPDEST POP PUSH1 0x40 MLOAD DUP1 PUSH1 0x40 ADD PUSH1 0x40 MSTORE DUP1 PUSH1 0x7 DUP2 MSTORE PUSH1 0x20 ADD PUSH7 0xA0D0DECADCD2F PUSH1 0xCB SHL DUP2 MSTORE POP DUP1 PUSH1 0x40 MLOAD DUP1 PUSH1 0x40 ADD PUSH1 0x40 MSTORE DUP1 PUSH1 0x1 DUP2 MSTORE PUSH1 0x20 ADD PUSH1 0x31 PUSH1 0xF8 SHL DUP2 MSTORE POP PUSH1 0x40 MLOAD DUP1 PUSH1 0x40 ADD PUSH1 0x40 MSTORE DUP1 PUSH1 0x7 DUP2 MSTORE PUSH1 0x20 ADD PUSH7 0xA0D0DECADCD2F PUSH1 0xCB SHL DUP2 MSTORE POP PUSH1 0x40 MLOAD DUP1 PUSH1 0x40 ADD PUSH1 0x40 MSTORE DUP1 PUSH1 0x4 DUP2 MSTORE PUSH1 0x20 ADD PUSH4 0xA0909CB PUSH1 0xE3 SHL DUP2 MSTORE POP DUP2 PUSH1 0x3 SWAP1 DUP2 PUSH3 0x9C SWAP2 SWAP1 PUSH3 0x3E0 JUMP JUMPDEST POP PUSH1 0x4 PUSH3 0xAB DUP3 DUP3 PUSH3 0x3E0 JUMP JUMPDEST POP PUSH3 0xBD SWAP2 POP DUP4 SWAP1 POP PUSH1 0x5 PUSH3 0x1A2 JUMP JUMPDEST PUSH2 0x120 MSTORE PUSH3 0xCE DUP2 PUSH1 0x6 PUSH3 0x1A2 JUMP JUMPDEST PUSH2 0x140 MSTORE DUP2 MLOAD PUSH1 0x20 DUP1 DUP5 ADD SWAP2 SWAP1 SWAP2 KECCAK256 PUSH1 0xE0 MSTORE DUP2 MLOAD SWAP1 DUP3 ADD KECCAK256 PUSH2 0x100 MSTORE CHAINID PUSH1 0xA0 MSTORE PUSH3 0x15C PUSH1 0xE0 MLOAD PUSH2 0x100 MLOAD PUSH1 0x40 DUP1 MLOAD PUSH32 0x8B73C3C69BB8FE3D512ECC4CF759CC79239F7B179B0FFACAA9A75D522B39400F PUSH1 0x20 DUP3 ADD MSTORE SWAP1 DUP2 ADD SWAP3 SWAP1 SWAP3 MSTORE PUSH1 0x60 DUP3 ADD MSTORE CHAINID PUSH1 0x80 DUP3 ADD MSTORE ADDRESS PUSH1 0xA0 DUP3 ADD MSTORE PUSH1 0x0 SWAP1 PUSH1 0xC0 ADD PUSH1 0x40 MLOAD PUSH1 0x20 DUP2 DUP4 SUB SUB DUP2 MSTORE SWAP1 PUSH1 0x40 MSTORE DUP1 MLOAD SWAP1 PUSH1 0x20 ADD KECCAK256 SWAP1 POP SWAP1 JUMP JUMPDEST PUSH1 0x80 MSTORE POP POP ADDRESS PUSH1 0xC0 MSTORE POP PUSH3 0x171 CALLER PUSH3 0x1DB JUMP JUMPDEST PUSH3 0x19C CALLER PUSH3 0x184 PUSH1 0x12 PUSH1 0xA PUSH3 0x5BF JUMP JUMPDEST PUSH3 0x196 SWAP1 PUSH6 0x5AF3107A4000 PUSH3 0x5D7 JUMP JUMPDEST PUSH3 0x22D JUMP JUMPDEST PUSH3 0x67C JUMP JUMPDEST PUSH1 0x0 PUSH1 0x20 DUP4 MLOAD LT ISZERO PUSH3 0x1C2 JUMPI PUSH3 0x1BA DUP4 PUSH3 0x2F4 JUMP JUMPDEST SWAP1 POP PUSH3 0x1D5 JUMP JUMPDEST DUP2 PUSH3 0x1CF DUP5 DUP3 PUSH3 0x3E0 JUMP JUMPDEST POP PUSH1 0xFF SWAP1 POP JUMPDEST SWAP3 SWAP2 POP POP JUMP JUMPDEST PUSH1 0x9 DUP1 SLOAD PUSH1 0x1 PUSH1 0x1 PUSH1 0xA0 SHL SUB DUP4 DUP2 AND PUSH1 0x1 PUSH1 0x1 PUSH1 0xA0 SHL SUB NOT DUP4 AND DUP2 OR SWAP1 SWAP4 SSTORE PUSH1 0x40 MLOAD SWAP2 AND SWAP2 SWAP1 DUP3 SWAP1 PUSH32 0x8BE0079C531659141344CD1FD0A4F28419497F9722A3DAAFE3B4186F6B6457E0 SWAP1 PUSH1 0x0 SWAP1 LOG3 POP POP JUMP JUMPDEST PUSH1 0x1 PUSH1 0x1 PUSH1 0xA0 SHL SUB DUP3 AND PUSH3 0x289 JUMPI PUSH1 0x40 MLOAD PUSH3 0x461BCD PUSH1 0xE5 SHL DUP2 MSTORE PUSH1 0x20 PUSH1 0x4 DUP3 ADD MSTORE PUSH1 0x1F PUSH1 0x24 DUP3 ADD MSTORE PUSH32 0x45524332303A206D696E7420746F20746865207A65726F206164647265737300 PUSH1 0x44 DUP3 ADD MSTORE PUSH1 0x64 ADD JUMPDEST PUSH1 0x40 MLOAD DUP1 SWAP2 SUB SWAP1 REVERT JUMPDEST DUP1 PUSH1 0x2 PUSH1 0x0 DUP3 DUP3 SLOAD PUSH3 0x29D SWAP2 SWAP1 PUSH3 0x5F1 JUMP JUMPDEST SWAP1 SWAP2 SSTORE POP POP PUSH1 0x1 PUSH1 0x1 PUSH1 0xA0 SHL SUB DUP3 AND PUSH1 0x0 DUP2 DUP2 MSTORE PUSH1 0x20 DUP2 DUP2 MSTORE PUSH1 0x40 DUP1 DUP4 KECCAK256 DUP1 SLOAD DUP7 ADD SWAP1 SSTORE MLOAD DUP5 DUP2 MSTORE PUSH32 0xDDF252AD1BE2C89B69C2B068FC378DAA952BA7F163C4A11628F55A4DF523B3EF SWAP2 ADD PUSH1 0x40 MLOAD DUP1 SWAP2 SUB SWAP1 LOG3 POP POP JUMP JUMPDEST PUSH1 0x0 DUP1 DUP3 SWAP1 POP PUSH1 0x1F DUP2 MLOAD GT ISZERO PUSH3 0x322 JUMPI DUP3 PUSH1 0x40 MLOAD PUSH4 0x305A27A9 PUSH1 0xE0 SHL DUP2 MSTORE PUSH1 0x4 ADD PUSH3 0x280 SWAP2 SWAP1 PUSH3 0x607 JUMP JUMPDEST DUP1 MLOAD PUSH3 0x32F DUP3 PUSH3 0x657 JUMP JUMPDEST OR SWAP4 SWAP3 POP POP POP JUMP JUMPDEST POP POP POP JUMP JUMPDEST PUSH4 0x4E487B71 PUSH1 0xE0 SHL PUSH1 0x0 MSTORE PUSH1 0x41 PUSH1 0x4 MSTORE PUSH1 0x24 PUSH1 0x0 REVERT JUMPDEST PUSH1 0x1 DUP2 DUP2 SHR SWAP1 DUP3 AND DUP1 PUSH3 0x367 JUMPI PUSH1 0x7F DUP3 AND SWAP2 POP JUMPDEST PUSH1 0x20 DUP3 LT DUP2 SUB PUSH3 0x388 JUMPI PUSH4 0x4E487B71 PUSH1 0xE0 SHL PUSH1 0x0 MSTORE PUSH1 0x22 PUSH1 0x4 MSTORE PUSH1 0x24 PUSH1 0x0 REVERT JUMPDEST POP SWAP2 SWAP1 POP JUMP JUMPDEST PUSH1 0x1F DUP3 GT ISZERO PUSH3 0x337 JUMPI PUSH1 0x0 DUP2 DUP2 MSTORE PUSH1 0x20 DUP2 KECCAK256 PUSH1 0x1F DUP6 ADD PUSH1 0x5 SHR DUP2 ADD PUSH1 0x20 DUP7 LT ISZERO PUSH3 0x3B7 JUMPI POP DUP1 JUMPDEST PUSH1 0x1F DUP6 ADD PUSH1 0x5 SHR DUP3 ADD SWAP2 POP JUMPDEST DUP2 DUP2 LT ISZERO PUSH3 0x3D8 JUMPI DUP3 DUP2 SSTORE PUSH1 0x1 ADD PUSH3 0x3C3 JUMP JUMPDEST POP POP POP POP POP POP JUMP JUMPDEST DUP2 MLOAD PUSH1 0x1 PUSH1 0x1 PUSH1 0x40 SHL SUB DUP2 GT ISZERO PUSH3 0x3FC JUMPI PUSH3 0x3FC PUSH3 0x33C JUMP JUMPDEST PUSH3 0x414 DUP2 PUSH3 0x40D DUP5 SLOAD PUSH3 0x352 JUMP JUMPDEST DUP5 PUSH3 0x38E JUMP JUMPDEST PUSH1 0x20 DUP1 PUSH1 0x1F DUP4 GT PUSH1 0x1 DUP2 EQ PUSH3 0x44C JUMPI PUSH1 0x0 DUP5 ISZERO PUSH3 0x433 JUMPI POP DUP6 DUP4 ADD MLOAD JUMPDEST PUSH1 0x0 NOT PUSH1 0x3 DUP7 SWAP1 SHL SHR NOT AND PUSH1 0x1 DUP6 SWAP1 SHL OR DUP6 SSTORE PUSH3 0x3D8 JUMP JUMPDEST PUSH1 0x0 DUP6 DUP2 MSTORE PUSH1 0x20 DUP2 KECCAK256 PUSH1 0x1F NOT DUP7 AND SWAP2 JUMPDEST DUP3 DUP2 LT ISZERO PUSH3 0x47D JUMPI DUP9 DUP7 ADD MLOAD DUP3 SSTORE SWAP5 DUP5 ADD SWAP5 PUSH1 0x1 SWAP1 SWAP2 ADD SWAP1 DUP5 ADD PUSH3 0x45C JUMP JUMPDEST POP DUP6 DUP3 LT ISZERO PUSH3 0x49C JUMPI DUP8 DUP6 ADD MLOAD PUSH1 0x0 NOT PUSH1 0x3 DUP9 SWAP1 SHL PUSH1 0xF8 AND SHR NOT AND DUP2 SSTORE JUMPDEST POP POP POP POP POP PUSH1 0x1 SWAP1 DUP2 SHL ADD SWAP1 SSTORE POP JUMP JUMPDEST PUSH4 0x4E487B71 PUSH1 0xE0 SHL PUSH1 0x0 MSTORE PUSH1 0x11 PUSH1 0x4 MSTORE PUSH1 0x24 PUSH1 0x0 REVERT JUMPDEST PUSH1 0x1 DUP2 DUP2 JUMPDEST DUP1 DUP6 GT ISZERO PUSH3 0x503 JUMPI DUP2 PUSH1 0x0 NOT DIV DUP3 GT ISZERO PUSH3 0x4E7 JUMPI PUSH3 0x4E7 PUSH3 0x4AC JUMP JUMPDEST DUP1 DUP6 AND ISZERO PUSH3 0x4F5 JUMPI SWAP2 DUP2 MUL SWAP2 JUMPDEST SWAP4 DUP5 SHR SWAP4 SWAP1 DUP1 MUL SWAP1 PUSH3 0x4C7 JUMP JUMPDEST POP SWAP3 POP SWAP3 SWAP1 POP JUMP JUMPDEST PUSH1 0x0 DUP3 PUSH3 0x51C JUMPI POP PUSH1 0x1 PUSH3 0x1D5 JUMP JUMPDEST DUP2 PUSH3 0x52B JUMPI POP PUSH1 0x0 PUSH3 0x1D5 JUMP JUMPDEST DUP2 PUSH1 0x1 DUP2 EQ PUSH3 0x544 JUMPI PUSH1 0x2 DUP2 EQ PUSH3 0x54F JUMPI PUSH3 0x56F JUMP JUMPDEST PUSH1 0x1 SWAP2 POP POP PUSH3 0x1D5 JUMP JUMPDEST PUSH1 0xFF DUP5 GT ISZERO PUSH3 0x563 JUMPI PUSH3 0x563 PUSH3 0x4AC JUMP JUMPDEST POP POP PUSH1 0x1 DUP3 SHL PUSH3 0x1D5 JUMP JUMPDEST POP PUSH1 0x20 DUP4 LT PUSH2 0x133 DUP4 LT AND PUSH1 0x4E DUP5 LT PUSH1 0xB DUP5 LT AND OR ISZERO PUSH3 0x594 JUMPI POP DUP2 DUP2 EXP PUSH3 0x1D5 JUMP JUMPDEST PUSH3 0x5A0 DUP4 DUP4 PUSH3 0x4C2 JUMP JUMPDEST DUP1 PUSH1 0x0 NOT DIV DUP3 GT ISZERO PUSH3 0x5B7 JUMPI PUSH3 0x5B7 PUSH3 0x4AC JUMP JUMPDEST MUL SWAP4 SWAP3 POP POP POP JUMP JUMPDEST PUSH1 0x0 PUSH3 0x5D0 PUSH1 0xFF DUP5 AND DUP4 PUSH3 0x50B JUMP JUMPDEST SWAP4 SWAP3 POP POP POP JUMP JUMPDEST DUP1 DUP3 MUL DUP2 ISZERO DUP3 DUP3 DIV DUP5 EQ OR PUSH3 0x1D5 JUMPI PUSH3 0x1D5 PUSH3 0x4AC JUMP JUMPDEST DUP1 DUP3 ADD DUP1 DUP3 GT ISZERO PUSH3 0x1D5 JUMPI PUSH3 0x1D5 PUSH3 0x4AC JUMP JUMPDEST PUSH1 0x0 PUSH1 0x20 DUP1 DUP4 MSTORE DUP4 MLOAD DUP1 DUP3 DUP6 ADD MSTORE PUSH1 0x0 JUMPDEST DUP2 DUP2 LT ISZERO PUSH3 0x636 JUMPI DUP6 DUP2 ADD DUP4 ADD MLOAD DUP6 DUP3 ADD PUSH1 0x40 ADD MSTORE DUP3 ADD PUSH3 0x618 JUMP JUMPDEST POP PUSH1 0x0 PUSH1 0x40 DUP3 DUP7 ADD ADD MSTORE PUSH1 0x40 PUSH1 0x1F NOT PUSH1 0x1F DUP4 ADD AND DUP6 ADD ADD SWAP3 POP POP POP SWAP3 SWAP2 POP POP JUMP JUMPDEST DUP1 MLOAD PUSH1 0x20 DUP1 DUP4 ADD MLOAD SWAP2 SWAP1 DUP2 LT ISZERO PUSH3 0x388 JUMPI PUSH1 0x0 NOT PUSH1 0x20 SWAP2 SWAP1 SWAP2 SUB PUSH1 0x3 SHL SHL AND SWAP2 SWAP1 POP JUMP JUMPDEST PUSH1 0x80 MLOAD PUSH1 0xA0 MLOAD PUSH1 0xC0 MLOAD PUSH1 0xE0 MLOAD PUSH2 0x100 MLOAD PUSH2 0x120 MLOAD PUSH2 0x140 MLOAD PUSH2 0x1422 PUSH3 0x6D7 PUSH1 0x0 CODECOPY PUSH1 0x0 PUSH2 0x45C ADD MSTORE PUSH1 0x0 PUSH2 0x431 ADD MSTORE PUSH1 0x0 PUSH2 0xB6B ADD MSTORE PUSH1 0x0 PUSH2 0xB43 ADD MSTORE PUSH1 0x0 PUSH2 0xA9E ADD MSTORE PUSH1 0x0 PUSH2 0xAC8 ADD MSTORE PUSH1 0x0 PUSH2 0xAF2 ADD MSTORE PUSH2 0x1422 PUSH1 0x0 RETURN INVALID PUSH1 0x80 PUSH1 0x40 MSTORE CALLVALUE DUP1 ISZERO PUSH2 0x10 JUMPI PUSH1 0x0 DUP1 REVERT JUMPDEST POP PUSH1 0x4 CALLDATASIZE LT PUSH2 0x12C JUMPI PUSH1 0x0 CALLDATALOAD PUSH1 0xE0 SHR DUP1 PUSH4 0x79CC6790 GT PUSH2 0xAD JUMPI DUP1 PUSH4 0xA457C2D7 GT PUSH2 0x71 JUMPI DUP1 PUSH4 0xA457C2D7 EQ PUSH2 0x26B JUMPI DUP1 PUSH4 0xA9059CBB EQ PUSH2 0x27E JUMPI DUP1 PUSH4 0xD505ACCF EQ PUSH2 0x291 JUMPI DUP1 PUSH4 0xDD62ED3E EQ PUSH2 0x2A4 JUMPI DUP1 PUSH4 0xF2FDE38B EQ PUSH2 0x2B7 JUMPI PUSH1 0x0 DUP1 REVERT JUMPDEST DUP1 PUSH4 0x79CC6790 EQ PUSH2 0x207 JUMPI DUP1 PUSH4 0x7ECEBE00 EQ PUSH2 0x21A JUMPI DUP1 PUSH4 0x84B0196E EQ PUSH2 0x22D JUMPI DUP1 PUSH4 0x8DA5CB5B EQ PUSH2 0x248 JUMPI DUP1 PUSH4 0x95D89B41 EQ PUSH2 0x263 JUMPI PUSH1 0x0 DUP1 REVERT JUMPDEST DUP1 PUSH4 0x3644E515 GT PUSH2 0xF4 JUMPI DUP1 PUSH4 0x3644E515 EQ PUSH2 0x1A6 JUMPI DUP1 PUSH4 0x39509351 EQ PUSH2 0x1AE JUMPI DUP1 PUSH4 0x42966C68 EQ PUSH2 0x1C1 JUMPI DUP1 PUSH4 0x70A08231 EQ PUSH2 0x1D6 JUMPI DUP1 PUSH4 0x715018A6 EQ PUSH2 0x1FF JUMPI PUSH1 0x0 DUP1 REVERT JUMPDEST DUP1 PUSH4 0x6FDDE03 EQ PUSH2 0x131 JUMPI DUP1 PUSH4 0x95EA7B3 EQ PUSH2 0x14F JUMPI DUP1 PUSH4 0x18160DDD EQ PUSH2 0x172 JUMPI DUP1 PUSH4 0x23B872DD EQ PUSH2 0x184 JUMPI DUP1 PUSH4 0x313CE567 EQ PUSH2 0x197 JUMPI JUMPDEST PUSH1 0x0 DUP1 REVERT JUMPDEST PUSH2 0x139 PUSH2 0x2CA JUMP JUMPDEST PUSH1 0x40 MLOAD PUSH2 0x146 SWAP2 SWAP1 PUSH2 0x1175 JUMP JUMPDEST PUSH1 0x40 MLOAD DUP1 SWAP2 SUB SWAP1 RETURN JUMPDEST PUSH2 0x162 PUSH2 0x15D CALLDATASIZE PUSH1 0x4 PUSH2 0x11AB JUMP JUMPDEST PUSH2 0x35C JUMP JUMPDEST PUSH1 0x40 MLOAD SWAP1 ISZERO ISZERO DUP2 MSTORE PUSH1 0x20 ADD PUSH2 0x146 JUMP JUMPDEST PUSH1 0x2 SLOAD JUMPDEST PUSH1 0x40 MLOAD SWAP1 DUP2 MSTORE PUSH1 0x20 ADD PUSH2 0x146 JUMP JUMPDEST PUSH2 0x162 PUSH2 0x192 CALLDATASIZE PUSH1 0x4 PUSH2 0x11D5 JUMP JUMPDEST PUSH2 0x376 JUMP JUMPDEST PUSH1 0x40 MLOAD PUSH1 0x12 DUP2 MSTORE PUSH1 0x20 ADD PUSH2 0x146 JUMP JUMPDEST PUSH2 0x176 PUSH2 0x39A JUMP JUMPDEST PUSH2 0x162 PUSH2 0x1BC CALLDATASIZE PUSH1 0x4 PUSH2 0x11AB JUMP JUMPDEST PUSH2 0x3A9 JUMP JUMPDEST PUSH2 0x1D4 PUSH2 0x1CF CALLDATASIZE PUSH1 0x4 PUSH2 0x1211 JUMP JUMPDEST PUSH2 0x3CB JUMP JUMPDEST STOP JUMPDEST PUSH2 0x176 PUSH2 0x1E4 CALLDATASIZE PUSH1 0x4 PUSH2 0x122A JUMP JUMPDEST PUSH1 0x1 PUSH1 0x1 PUSH1 0xA0 SHL SUB AND PUSH1 0x0 SWAP1 DUP2 MSTORE PUSH1 0x20 DUP2 SWAP1 MSTORE PUSH1 0x40 SWAP1 KECCAK256 SLOAD SWAP1 JUMP JUMPDEST PUSH2 0x1D4 PUSH2 0x3D8 JUMP JUMPDEST PUSH2 0x1D4 PUSH2 0x215 CALLDATASIZE PUSH1 0x4 PUSH2 0x11AB JUMP JUMPDEST PUSH2 0x3EC JUMP JUMPDEST PUSH2 0x176 PUSH2 0x228 CALLDATASIZE PUSH1 0x4 PUSH2 0x122A JUMP JUMPDEST PUSH2 0x405 JUMP JUMPDEST PUSH2 0x235 PUSH2 0x423 JUMP JUMPDEST PUSH1 0x40 MLOAD PUSH2 0x146 SWAP8 SWAP7 SWAP6 SWAP5 SWAP4 SWAP3 SWAP2 SWAP1 PUSH2 0x1245 JUMP JUMPDEST PUSH1 0x9 SLOAD PUSH1 0x40 MLOAD PUSH1 0x1 PUSH1 0x1 PUSH1 0xA0 SHL SUB SWAP1 SWAP2 AND DUP2 MSTORE PUSH1 0x20 ADD PUSH2 0x146 JUMP JUMPDEST PUSH2 0x139 PUSH2 0x4AC JUMP JUMPDEST PUSH2 0x162 PUSH2 0x279 CALLDATASIZE PUSH1 0x4 PUSH2 0x11AB JUMP JUMPDEST PUSH2 0x4BB JUMP JUMPDEST PUSH2 0x162 PUSH2 0x28C CALLDATASIZE PUSH1 0x4 PUSH2 0x11AB JUMP JUMPDEST PUSH2 0x53B JUMP JUMPDEST PUSH2 0x1D4 PUSH2 0x29F CALLDATASIZE PUSH1 0x4 PUSH2 0x12DB JUMP JUMPDEST PUSH2 0x549 JUMP JUMPDEST PUSH2 0x176 PUSH2 0x2B2 CALLDATASIZE PUSH1 0x4 PUSH2 0x134E JUMP JUMPDEST PUSH2 0x6AD JUMP JUMPDEST PUSH2 0x1D4 PUSH2 0x2C5 CALLDATASIZE PUSH1 0x4 PUSH2 0x122A JUMP JUMPDEST PUSH2 0x6D8 JUMP JUMPDEST PUSH1 0x60 PUSH1 0x3 DUP1 SLOAD PUSH2 0x2D9 SWAP1 PUSH2 0x1381 JUMP JUMPDEST DUP1 PUSH1 0x1F ADD PUSH1 0x20 DUP1 SWAP2 DIV MUL PUSH1 0x20 ADD PUSH1 0x40 MLOAD SWAP1 DUP2 ADD PUSH1 0x40 MSTORE DUP1 SWAP3 SWAP2 SWAP1 DUP2 DUP2 MSTORE PUSH1 0x20 ADD DUP3 DUP1 SLOAD PUSH2 0x305 SWAP1 PUSH2 0x1381 JUMP JUMPDEST DUP1 ISZERO PUSH2 0x352 JUMPI DUP1 PUSH1 0x1F LT PUSH2 0x327 JUMPI PUSH2 0x100 DUP1 DUP4 SLOAD DIV MUL DUP4 MSTORE SWAP2 PUSH1 0x20 ADD SWAP2 PUSH2 0x352 JUMP JUMPDEST DUP3 ADD SWAP2 SWAP1 PUSH1 0x0 MSTORE PUSH1 0x20 PUSH1 0x0 KECCAK256 SWAP1 JUMPDEST DUP2 SLOAD DUP2 MSTORE SWAP1 PUSH1 0x1 ADD SWAP1 PUSH1 0x20 ADD DUP1 DUP4 GT PUSH2 0x335 JUMPI DUP3 SWAP1 SUB PUSH1 0x1F AND DUP3 ADD SWAP2 JUMPDEST POP POP POP POP POP SWAP1 POP SWAP1 JUMP JUMPDEST PUSH1 0x0 CALLER PUSH2 0x36A DUP2 DUP6 DUP6 PUSH2 0x74E JUMP JUMPDEST PUSH1 0x1 SWAP2 POP POP JUMPDEST SWAP3 SWAP2 POP POP JUMP JUMPDEST PUSH1 0x0 CALLER PUSH2 0x384 DUP6 DUP3 DUP6 PUSH2 0x873 JUMP JUMPDEST PUSH2 0x38F DUP6 DUP6 DUP6 PUSH2 0x8ED JUMP JUMPDEST POP PUSH1 0x1 SWAP5 SWAP4 POP POP POP POP JUMP JUMPDEST PUSH1 0x0 PUSH2 0x3A4 PUSH2 0xA91 JUMP JUMPDEST SWAP1 POP SWAP1 JUMP JUMPDEST PUSH1 0x0 CALLER PUSH2 0x36A DUP2 DUP6 DUP6 PUSH2 0x3BC DUP4 DUP4 PUSH2 0x6AD JUMP JUMPDEST PUSH2 0x3C6 SWAP2 SWAP1 PUSH2 0x13B5 JUMP JUMPDEST PUSH2 0x74E JUMP JUMPDEST PUSH2 0x3D5 CALLER DUP3 PUSH2 0xBBC JUMP JUMPDEST POP JUMP JUMPDEST PUSH2 0x3E0 PUSH2 0xCE6 JUMP JUMPDEST PUSH2 0x3EA PUSH1 0x0 PUSH2 0xD40 JUMP JUMPDEST JUMP JUMPDEST PUSH2 0x3F7 DUP3 CALLER DUP4 PUSH2 0x873 JUMP JUMPDEST PUSH2 0x401 DUP3 DUP3 PUSH2 0xBBC JUMP JUMPDEST POP POP JUMP JUMPDEST PUSH1 0x1 PUSH1 0x1 PUSH1 0xA0 SHL SUB DUP2 AND PUSH1 0x0 SWAP1 DUP2 MSTORE PUSH1 0x7 PUSH1 0x20 MSTORE PUSH1 0x40 DUP2 KECCAK256 SLOAD PUSH2 0x370 JUMP JUMPDEST PUSH1 0x0 PUSH1 0x60 DUP1 DUP3 DUP1 DUP1 DUP4 PUSH2 0x457 PUSH32 0x0 PUSH1 0x5 PUSH2 0xD92 JUMP JUMPDEST PUSH2 0x482 PUSH32 0x0 PUSH1 0x6 PUSH2 0xD92 JUMP JUMPDEST PUSH1 0x40 DUP1 MLOAD PUSH1 0x0 DUP1 DUP3 MSTORE PUSH1 0x20 DUP3 ADD SWAP1 SWAP3 MSTORE PUSH1 0xF PUSH1 0xF8 SHL SWAP12 SWAP4 SWAP11 POP SWAP2 SWAP9 POP CHAINID SWAP8 POP ADDRESS SWAP7 POP SWAP5 POP SWAP3 POP SWAP1 POP JUMP JUMPDEST PUSH1 0x60 PUSH1 0x4 DUP1 SLOAD PUSH2 0x2D9 SWAP1 PUSH2 0x1381 JUMP JUMPDEST PUSH1 0x0 CALLER DUP2 PUSH2 0x4C9 DUP3 DUP7 PUSH2 0x6AD JUMP JUMPDEST SWAP1 POP DUP4 DUP2 LT ISZERO PUSH2 0x52E JUMPI PUSH1 0x40 MLOAD PUSH3 0x461BCD PUSH1 0xE5 SHL DUP2 MSTORE PUSH1 0x20 PUSH1 0x4 DUP3 ADD MSTORE PUSH1 0x25 PUSH1 0x24 DUP3 ADD MSTORE PUSH32 0x45524332303A2064656372656173656420616C6C6F77616E63652062656C6F77 PUSH1 0x44 DUP3 ADD MSTORE PUSH5 0x207A65726F PUSH1 0xD8 SHL PUSH1 0x64 DUP3 ADD MSTORE PUSH1 0x84 ADD JUMPDEST PUSH1 0x40 MLOAD DUP1 SWAP2 SUB SWAP1 REVERT JUMPDEST PUSH2 0x38F DUP3 DUP7 DUP7 DUP5 SUB PUSH2 0x74E JUMP JUMPDEST PUSH1 0x0 CALLER PUSH2 0x36A DUP2 DUP6 DUP6 PUSH2 0x8ED JUMP JUMPDEST DUP4 TIMESTAMP GT ISZERO PUSH2 0x599 JUMPI PUSH1 0x40 MLOAD PUSH3 0x461BCD PUSH1 0xE5 SHL DUP2 MSTORE PUSH1 0x20 PUSH1 0x4 DUP3 ADD MSTORE PUSH1 0x1D PUSH1 0x24 DUP3 ADD MSTORE PUSH32 0x45524332305065726D69743A206578706972656420646561646C696E65000000 PUSH1 0x44 DUP3 ADD MSTORE PUSH1 0x64 ADD PUSH2 0x525 JUMP JUMPDEST PUSH1 0x0 PUSH32 0x6E71EDAE12B1B97F4D1F60370FEF10105FA2FAAE0126114A169C64845D6126C9 DUP9 DUP9 DUP9 PUSH2 0x5C8 DUP13 PUSH2 0xE3D JUMP JUMPDEST PUSH1 0x40 DUP1 MLOAD PUSH1 0x20 DUP2 ADD SWAP7 SWAP1 SWAP7 MSTORE PUSH1 0x1 PUSH1 0x1 PUSH1 0xA0 SHL SUB SWAP5 DUP6 AND SWAP1 DUP7 ADD MSTORE SWAP3 SWAP1 SWAP2 AND PUSH1 0x60 DUP5 ADD MSTORE PUSH1 0x80 DUP4 ADD MSTORE PUSH1 0xA0 DUP3 ADD MSTORE PUSH1 0xC0 DUP2 ADD DUP7 SWAP1 MSTORE PUSH1 0xE0 ADD PUSH1 0x40 MLOAD PUSH1 0x20 DUP2 DUP4 SUB SUB DUP2 MSTORE SWAP1 PUSH1 0x40 MSTORE DUP1 MLOAD SWAP1 PUSH1 0x20 ADD KECCAK256 SWAP1 POP PUSH1 0x0 PUSH2 0x623 DUP3 PUSH2 0xE65 JUMP JUMPDEST SWAP1 POP PUSH1 0x0 PUSH2 0x633 DUP3 DUP8 DUP8 DUP8 PUSH2 0xE92 JUMP JUMPDEST SWAP1 POP DUP10 PUSH1 0x1 PUSH1 0x1 PUSH1 0xA0 SHL SUB AND DUP2 PUSH1 0x1 PUSH1 0x1 PUSH1 0xA0 SHL SUB AND EQ PUSH2 0x696 JUMPI PUSH1 0x40 MLOAD PUSH3 0x461BCD PUSH1 0xE5 SHL DUP2 MSTORE PUSH1 0x20 PUSH1 0x4 DUP3 ADD MSTORE PUSH1 0x1E PUSH1 0x24 DUP3 ADD MSTORE PUSH32 0x45524332305065726D69743A20696E76616C6964207369676E61747572650000 PUSH1 0x44 DUP3 ADD MSTORE PUSH1 0x64 ADD PUSH2 0x525 JUMP JUMPDEST PUSH2 0x6A1 DUP11 DUP11 DUP11 PUSH2 0x74E JUMP JUMPDEST POP POP POP POP POP POP POP POP POP POP JUMP JUMPDEST PUSH1 0x1 PUSH1 0x1 PUSH1 0xA0 SHL SUB SWAP2 DUP3 AND PUSH1 0x0 SWAP1 DUP2 MSTORE PUSH1 0x1 PUSH1 0x20 SWAP1 DUP2 MSTORE PUSH1 0x40 DUP1 DUP4 KECCAK256 SWAP4 SWAP1 SWAP5 AND DUP3 MSTORE SWAP2 SWAP1 SWAP2 MSTORE KECCAK256 SLOAD SWAP1 JUMP JUMPDEST PUSH2 0x6E0 PUSH2 0xCE6 JUMP JUMPDEST PUSH1 0x1 PUSH1 0x1 PUSH1 0xA0 SHL SUB DUP2 AND PUSH2 0x745 JUMPI PUSH1 0x40 MLOAD PUSH3 0x461BCD PUSH1 0xE5 SHL DUP2 MSTORE PUSH1 0x20 PUSH1 0x4 DUP3 ADD MSTORE PUSH1 0x26 PUSH1 0x24 DUP3 ADD MSTORE PUSH32 0x4F776E61626C653A206E6577206F776E657220697320746865207A65726F2061 PUSH1 0x44 DUP3 ADD MSTORE PUSH6 0x646472657373 PUSH1 0xD0 SHL PUSH1 0x64 DUP3 ADD MSTORE PUSH1 0x84 ADD PUSH2 0x525 JUMP JUMPDEST PUSH2 0x3D5 DUP2 PUSH2 0xD40 JUMP JUMPDEST PUSH1 0x1 PUSH1 0x1 PUSH1 0xA0 SHL SUB DUP4 AND PUSH2 0x7B0 JUMPI PUSH1 0x40 MLOAD PUSH3 0x461BCD PUSH1 0xE5 SHL DUP2 MSTORE PUSH1 0x20 PUSH1 0x4 DUP3 ADD MSTORE PUSH1 0x24 DUP1 DUP3 ADD MSTORE PUSH32 0x45524332303A20617070726F76652066726F6D20746865207A65726F20616464 PUSH1 0x44 DUP3 ADD MSTORE PUSH4 0x72657373 PUSH1 0xE0 SHL PUSH1 0x64 DUP3 ADD MSTORE PUSH1 0x84 ADD PUSH2 0x525 JUMP JUMPDEST PUSH1 0x1 PUSH1 0x1 PUSH1 0xA0 SHL SUB DUP3 AND PUSH2 0x811 JUMPI PUSH1 0x40 MLOAD PUSH3 0x461BCD PUSH1 0xE5 SHL DUP2 MSTORE PUSH1 0x20 PUSH1 0x4 DUP3 ADD MSTORE PUSH1 0x22 PUSH1 0x24 DUP3 ADD MSTORE PUSH32 0x45524332303A20617070726F766520746F20746865207A65726F206164647265 PUSH1 0x44 DUP3 ADD MSTORE PUSH2 0x7373 PUSH1 0xF0 SHL PUSH1 0x64 DUP3 ADD MSTORE PUSH1 0x84 ADD PUSH2 0x525 JUMP JUMPDEST PUSH1 0x1 PUSH1 0x1 PUSH1 0xA0 SHL SUB DUP4 DUP2 AND PUSH1 0x0 DUP2 DUP2 MSTORE PUSH1 0x1 PUSH1 0x20 SWAP1 DUP2 MSTORE PUSH1 0x40 DUP1 DUP4 KECCAK256 SWAP5 DUP8 AND DUP1 DUP5 MSTORE SWAP5 DUP3 MSTORE SWAP2 DUP3 SWAP1 KECCAK256 DUP6 SWAP1 SSTORE SWAP1 MLOAD DUP5 DUP2 MSTORE PUSH32 0x8C5BE1E5EBEC7D5BD14F71427D1E84F3DD0314C0F7B2291E5B200AC8C7C3B925 SWAP2 ADD JUMPDEST PUSH1 0x40 MLOAD DUP1 SWAP2 SUB SWAP1 LOG3 POP POP POP JUMP JUMPDEST PUSH1 0x0 PUSH2 0x87F DUP5 DUP5 PUSH2 0x6AD JUMP JUMPDEST SWAP1 POP PUSH1 0x0 NOT DUP2 EQ PUSH2 0x8E7 JUMPI DUP2 DUP2 LT ISZERO PUSH2 0x8DA JUMPI PUSH1 0x40 MLOAD PUSH3 0x461BCD PUSH1 0xE5 SHL DUP2 MSTORE PUSH1 0x20 PUSH1 0x4 DUP3 ADD MSTORE PUSH1 0x1D PUSH1 0x24 DUP3 ADD MSTORE PUSH32 0x45524332303A20696E73756666696369656E7420616C6C6F77616E6365000000 PUSH1 0x44 DUP3 ADD MSTORE PUSH1 0x64 ADD PUSH2 0x525 JUMP JUMPDEST PUSH2 0x8E7 DUP5 DUP5 DUP5 DUP5 SUB PUSH2 0x74E JUMP JUMPDEST POP POP POP POP JUMP JUMPDEST PUSH1 0x1 PUSH1 0x1 PUSH1 0xA0 SHL SUB DUP4 AND PUSH2 0x951 JUMPI PUSH1 0x40 MLOAD PUSH3 0x461BCD PUSH1 0xE5 SHL DUP2 MSTORE PUSH1 0x20 PUSH1 0x4 DUP3 ADD MSTORE PUSH1 0x25 PUSH1 0x24 DUP3 ADD MSTORE PUSH32 0x45524332303A207472616E736665722066726F6D20746865207A65726F206164 PUSH1 0x44 DUP3 ADD MSTORE PUSH5 0x6472657373 PUSH1 0xD8 SHL PUSH1 0x64 DUP3 ADD MSTORE PUSH1 0x84 ADD PUSH2 0x525 JUMP JUMPDEST PUSH1 0x1 PUSH1 0x1 PUSH1 0xA0 SHL SUB DUP3 AND PUSH2 0x9B3 JUMPI PUSH1 0x40 MLOAD PUSH3 0x461BCD PUSH1 0xE5 SHL DUP2 MSTORE PUSH1 0x20 PUSH1 0x4 DUP3 ADD MSTORE PUSH1 0x23 PUSH1 0x24 DUP3 ADD MSTORE PUSH32 0x45524332303A207472616E7366657220746F20746865207A65726F2061646472 PUSH1 0x44 DUP3 ADD MSTORE PUSH3 0x657373 PUSH1 0xE8 SHL PUSH1 0x64 DUP3 ADD MSTORE PUSH1 0x84 ADD PUSH2 0x525 JUMP JUMPDEST PUSH1 0x1 PUSH1 0x1 PUSH1 0xA0 SHL SUB DUP4 AND PUSH1 0x0 SWAP1 DUP2 MSTORE PUSH1 0x20 DUP2 SWAP1 MSTORE PUSH1 0x40 SWAP1 KECCAK256 SLOAD DUP2 DUP2 LT ISZERO PUSH2 0xA2B JUMPI PUSH1 0x40 MLOAD PUSH3 0x461BCD PUSH1 0xE5 SHL DUP2 MSTORE PUSH1 0x20 PUSH1 0x4 DUP3 ADD MSTORE PUSH1 0x26 PUSH1 0x24 DUP3 ADD MSTORE PUSH32 0x45524332303A207472616E7366657220616D6F756E7420657863656564732062 PUSH1 0x44 DUP3 ADD MSTORE PUSH6 0x616C616E6365 PUSH1 0xD0 SHL PUSH1 0x64 DUP3 ADD MSTORE PUSH1 0x84 ADD PUSH2 0x525 JUMP JUMPDEST PUSH1 0x1 PUSH1 0x1 PUSH1 0xA0 SHL SUB DUP5 DUP2 AND PUSH1 0x0 DUP2 DUP2 MSTORE PUSH1 0x20 DUP2 DUP2 MSTORE PUSH1 0x40 DUP1 DUP4 KECCAK256 DUP8 DUP8 SUB SWAP1 SSTORE SWAP4 DUP8 AND DUP1 DUP4 MSTORE SWAP2 DUP5 SWAP1 KECCAK256 DUP1 SLOAD DUP8 ADD SWAP1 SSTORE SWAP3 MLOAD DUP6 DUP2 MSTORE SWAP1 SWAP3 PUSH32 0xDDF252AD1BE2C89B69C2B068FC378DAA952BA7F163C4A11628F55A4DF523B3EF SWAP2 ADD PUSH1 0x40 MLOAD DUP1 SWAP2 SUB SWAP1 LOG3 PUSH2 0x8E7 JUMP JUMPDEST PUSH1 0x0 ADDRESS PUSH1 0x1 PUSH1 0x1 PUSH1 0xA0 SHL SUB PUSH32 0x0 AND EQ DUP1 ISZERO PUSH2 0xAEA JUMPI POP PUSH32 0x0 CHAINID EQ JUMPDEST ISZERO PUSH2 0xB14 JUMPI POP PUSH32 0x0 SWAP1 JUMP JUMPDEST PUSH2 0x3A4 PUSH1 0x40 DUP1 MLOAD PUSH32 0x8B73C3C69BB8FE3D512ECC4CF759CC79239F7B179B0FFACAA9A75D522B39400F PUSH1 0x20 DUP3 ADD MSTORE PUSH32 0x0 SWAP2 DUP2 ADD SWAP2 SWAP1 SWAP2 MSTORE PUSH32 0x0 PUSH1 0x60 DUP3 ADD MSTORE CHAINID PUSH1 0x80 DUP3 ADD MSTORE ADDRESS PUSH1 0xA0 DUP3 ADD MSTORE PUSH1 0x0 SWAP1 PUSH1 0xC0 ADD PUSH1 0x40 MLOAD PUSH1 0x20 DUP2 DUP4 SUB SUB DUP2 MSTORE SWAP1 PUSH1 0x40 MSTORE DUP1 MLOAD SWAP1 PUSH1 0x20 ADD KECCAK256 SWAP1 POP SWAP1 JUMP JUMPDEST PUSH1 0x1 PUSH1 0x1 PUSH1 0xA0 SHL SUB DUP3 AND PUSH2 0xC1C JUMPI PUSH1 0x40 MLOAD PUSH3 0x461BCD PUSH1 0xE5 SHL DUP2 MSTORE PUSH1 0x20 PUSH1 0x4 DUP3 ADD MSTORE PUSH1 0x21 PUSH1 0x24 DUP3 ADD MSTORE PUSH32 0x45524332303A206275726E2066726F6D20746865207A65726F20616464726573 PUSH1 0x44 DUP3 ADD MSTORE PUSH1 0x73 PUSH1 0xF8 SHL PUSH1 0x64 DUP3 ADD MSTORE PUSH1 0x84 ADD PUSH2 0x525 JUMP JUMPDEST PUSH1 0x1 PUSH1 0x1 PUSH1 0xA0 SHL SUB DUP3 AND PUSH1 0x0 SWAP1 DUP2 MSTORE PUSH1 0x20 DUP2 SWAP1 MSTORE PUSH1 0x40 SWAP1 KECCAK256 SLOAD DUP2 DUP2 LT ISZERO PUSH2 0xC90 JUMPI PUSH1 0x40 MLOAD PUSH3 0x461BCD PUSH1 0xE5 SHL DUP2 MSTORE PUSH1 0x20 PUSH1 0x4 DUP3 ADD MSTORE PUSH1 0x22 PUSH1 0x24 DUP3 ADD MSTORE PUSH32 0x45524332303A206275726E20616D6F756E7420657863656564732062616C616E PUSH1 0x44 DUP3 ADD MSTORE PUSH2 0x6365 PUSH1 0xF0 SHL PUSH1 0x64 DUP3 ADD MSTORE PUSH1 0x84 ADD PUSH2 0x525 JUMP JUMPDEST PUSH1 0x1 PUSH1 0x1 PUSH1 0xA0 SHL SUB DUP4 AND PUSH1 0x0 DUP2 DUP2 MSTORE PUSH1 0x20 DUP2 DUP2 MSTORE PUSH1 0x40 DUP1 DUP4 KECCAK256 DUP7 DUP7 SUB SWAP1 SSTORE PUSH1 0x2 DUP1 SLOAD DUP8 SWAP1 SUB SWAP1 SSTORE MLOAD DUP6 DUP2 MSTORE SWAP2 SWAP3 SWAP2 PUSH32 0xDDF252AD1BE2C89B69C2B068FC378DAA952BA7F163C4A11628F55A4DF523B3EF SWAP2 ADD PUSH2 0x866 JUMP JUMPDEST PUSH1 0x9 SLOAD PUSH1 0x1 PUSH1 0x1 PUSH1 0xA0 SHL SUB AND CALLER EQ PUSH2 0x3EA JUMPI PUSH1 0x40 MLOAD PUSH3 0x461BCD PUSH1 0xE5 SHL DUP2 MSTORE PUSH1 0x20 PUSH1 0x4 DUP3 ADD DUP2 SWAP1 MSTORE PUSH1 0x24 DUP3 ADD MSTORE PUSH32 0x4F776E61626C653A2063616C6C6572206973206E6F7420746865206F776E6572 PUSH1 0x44 DUP3 ADD MSTORE PUSH1 0x64 ADD PUSH2 0x525 JUMP JUMPDEST PUSH1 0x9 DUP1 SLOAD PUSH1 0x1 PUSH1 0x1 PUSH1 0xA0 SHL SUB DUP4 DUP2 AND PUSH1 0x1 PUSH1 0x1 PUSH1 0xA0 SHL SUB NOT DUP4 AND DUP2 OR SWAP1 SWAP4 SSTORE PUSH1 0x40 MLOAD SWAP2 AND SWAP2 SWAP1 DUP3 SWAP1 PUSH32 0x8BE0079C531659141344CD1FD0A4F28419497F9722A3DAAFE3B4186F6B6457E0 SWAP1 PUSH1 0x0 SWAP1 LOG3 POP POP JUMP JUMPDEST PUSH1 0x60 PUSH1 0xFF DUP4 EQ PUSH2 0xDAC JUMPI PUSH2 0xDA5 DUP4 PUSH2 0xEBA JUMP JUMPDEST SWAP1 POP PUSH2 0x370 JUMP JUMPDEST DUP2 DUP1 SLOAD PUSH2 0xDB8 SWAP1 PUSH2 0x1381 JUMP JUMPDEST DUP1 PUSH1 0x1F ADD PUSH1 0x20 DUP1 SWAP2 DIV MUL PUSH1 0x20 ADD PUSH1 0x40 MLOAD SWAP1 DUP2 ADD PUSH1 0x40 MSTORE DUP1 SWAP3 SWAP2 SWAP1 DUP2 DUP2 MSTORE PUSH1 0x20 ADD DUP3 DUP1 SLOAD PUSH2 0xDE4 SWAP1 PUSH2 0x1381 JUMP JUMPDEST DUP1 ISZERO PUSH2 0xE31 JUMPI DUP1 PUSH1 0x1F LT PUSH2 0xE06 JUMPI PUSH2 0x100 DUP1 DUP4 SLOAD DIV MUL DUP4 MSTORE SWAP2 PUSH1 0x20 ADD SWAP2 PUSH2 0xE31 JUMP JUMPDEST DUP3 ADD SWAP2 SWAP1 PUSH1 0x0 MSTORE PUSH1 0x20 PUSH1 0x0 KECCAK256 SWAP1 JUMPDEST DUP2 SLOAD DUP2 MSTORE SWAP1 PUSH1 0x1 ADD SWAP1 PUSH1 0x20 ADD DUP1 DUP4 GT PUSH2 0xE14 JUMPI DUP3 SWAP1 SUB PUSH1 0x1F AND DUP3 ADD SWAP2 JUMPDEST POP POP POP POP POP SWAP1 POP PUSH2 0x370 JUMP JUMPDEST PUSH1 0x1 PUSH1 0x1 PUSH1 0xA0 SHL SUB DUP2 AND PUSH1 0x0 SWAP1 DUP2 MSTORE PUSH1 0x7 PUSH1 0x20 MSTORE PUSH1 0x40 SWAP1 KECCAK256 DUP1 SLOAD PUSH1 0x1 DUP2 ADD DUP3 SSTORE SWAP1 JUMPDEST POP SWAP2 SWAP1 POP JUMP JUMPDEST PUSH1 0x0 PUSH2 0x370 PUSH2 0xE72 PUSH2 0xA91 JUMP JUMPDEST DUP4 PUSH1 0x40 MLOAD PUSH2 0x1901 PUSH1 0xF0 SHL DUP2 MSTORE PUSH1 0x2 DUP2 ADD SWAP3 SWAP1 SWAP3 MSTORE PUSH1 0x22 DUP3 ADD MSTORE PUSH1 0x42 SWAP1 KECCAK256 SWAP1 JUMP JUMPDEST PUSH1 0x0 DUP1 PUSH1 0x0 PUSH2 0xEA3 DUP8 DUP8 DUP8 DUP8 PUSH2 0xEF9 JUMP JUMPDEST SWAP2 POP SWAP2 POP PUSH2 0xEB0 DUP2 PUSH2 0xFBD JUMP JUMPDEST POP SWAP6 SWAP5 POP POP POP POP POP JUMP JUMPDEST PUSH1 0x60 PUSH1 0x0 PUSH2 0xEC7 DUP4 PUSH2 0x1107 JUMP JUMPDEST PUSH1 0x40 DUP1 MLOAD PUSH1 0x20 DUP1 DUP3 MSTORE DUP2 DUP4 ADD SWAP1 SWAP3 MSTORE SWAP2 SWAP3 POP PUSH1 0x0 SWAP2 SWAP1 PUSH1 0x20 DUP3 ADD DUP2 DUP1 CALLDATASIZE DUP4 CALLDATACOPY POP POP POP SWAP2 DUP3 MSTORE POP PUSH1 0x20 DUP2 ADD SWAP3 SWAP1 SWAP3 MSTORE POP SWAP1 JUMP JUMPDEST PUSH1 0x0 DUP1 PUSH32 0x7FFFFFFFFFFFFFFFFFFFFFFFFFFFFFFF5D576E7357A4501DDFE92F46681B20A0 DUP4 GT ISZERO PUSH2 0xF30 JUMPI POP PUSH1 0x0 SWAP1 POP PUSH1 0x3 PUSH2 0xFB4 JUMP JUMPDEST PUSH1 0x40 DUP1 MLOAD PUSH1 0x0 DUP1 DUP3 MSTORE PUSH1 0x20 DUP3 ADD DUP1 DUP5 MSTORE DUP10 SWAP1 MSTORE PUSH1 0xFF DUP9 AND SWAP3 DUP3 ADD SWAP3 SWAP1 SWAP3 MSTORE PUSH1 0x60 DUP2 ADD DUP7 SWAP1 MSTORE PUSH1 0x80 DUP2 ADD DUP6 SWAP1 MSTORE PUSH1 0x1 SWAP1 PUSH1 0xA0 ADD PUSH1 0x20 PUSH1 0x40 MLOAD PUSH1 0x20 DUP2 SUB SWAP1 DUP1 DUP5 SUB SWAP1 DUP6 GAS STATICCALL ISZERO DUP1 ISZERO PUSH2 0xF84 JUMPI RETURNDATASIZE PUSH1 0x0 DUP1 RETURNDATACOPY RETURNDATASIZE PUSH1 0x0 REVERT JUMPDEST POP POP PUSH1 0x40 MLOAD PUSH1 0x1F NOT ADD MLOAD SWAP2 POP POP PUSH1 0x1 PUSH1 0x1 PUSH1 0xA0 SHL SUB DUP2 AND PUSH2 0xFAD JUMPI PUSH1 0x0 PUSH1 0x1 SWAP3 POP SWAP3 POP POP PUSH2 0xFB4 JUMP JUMPDEST SWAP2 POP PUSH1 0x0 SWAP1 POP JUMPDEST SWAP5 POP SWAP5 SWAP3 POP POP POP JUMP JUMPDEST PUSH1 0x0 DUP2 PUSH1 0x4 DUP2 GT ISZERO PUSH2 0xFD1 JUMPI PUSH2 0xFD1 PUSH2 0x13D6 JUMP JUMPDEST SUB PUSH2 0xFD9 JUMPI POP JUMP JUMPDEST PUSH1 0x1 DUP2 PUSH1 0x4 DUP2 GT ISZERO PUSH2 0xFED JUMPI PUSH2 0xFED PUSH2 0x13D6 JUMP JUMPDEST SUB PUSH2 0x103A JUMPI PUSH1 0x40 MLOAD PUSH3 0x461BCD PUSH1 0xE5 SHL DUP2 MSTORE PUSH1 0x20 PUSH1 0x4 DUP3 ADD MSTORE PUSH1 0x18 PUSH1 0x24 DUP3 ADD MSTORE PUSH32 0x45434453413A20696E76616C6964207369676E61747572650000000000000000 PUSH1 0x44 DUP3 ADD MSTORE PUSH1 0x64 ADD PUSH2 0x525 JUMP JUMPDEST PUSH1 0x2 DUP2 PUSH1 0x4 DUP2 GT ISZERO PUSH2 0x104E JUMPI PUSH2 0x104E PUSH2 0x13D6 JUMP JUMPDEST SUB PUSH2 0x109B JUMPI PUSH1 0x40 MLOAD PUSH3 0x461BCD PUSH1 0xE5 SHL DUP2 MSTORE PUSH1 0x20 PUSH1 0x4 DUP3 ADD MSTORE PUSH1 0x1F PUSH1 0x24 DUP3 ADD MSTORE PUSH32 0x45434453413A20696E76616C6964207369676E6174757265206C656E67746800 PUSH1 0x44 DUP3 ADD MSTORE PUSH1 0x64 ADD PUSH2 0x525 JUMP JUMPDEST PUSH1 0x3 DUP2 PUSH1 0x4 DUP2 GT ISZERO PUSH2 0x10AF JUMPI PUSH2 0x10AF PUSH2 0x13D6 JUMP JUMPDEST SUB PUSH2 0x3D5 JUMPI PUSH1 0x40 MLOAD PUSH3 0x461BCD PUSH1 0xE5 SHL DUP2 MSTORE PUSH1 0x20 PUSH1 0x4 DUP3 ADD MSTORE PUSH1 0x22 PUSH1 0x24 DUP3 ADD MSTORE PUSH32 0x45434453413A20696E76616C6964207369676E6174757265202773272076616C PUSH1 0x44 DUP3 ADD MSTORE PUSH2 0x7565 PUSH1 0xF0 SHL PUSH1 0x64 DUP3 ADD MSTORE PUSH1 0x84 ADD PUSH2 0x525 JUMP JUMPDEST PUSH1 0x0 PUSH1 0xFF DUP3 AND PUSH1 0x1F DUP2 GT ISZERO PUSH2 0x370 JUMPI PUSH1 0x40 MLOAD PUSH4 0x2CD44AC3 PUSH1 0xE2 SHL DUP2 MSTORE PUSH1 0x4 ADD PUSH1 0x40 MLOAD DUP1 SWAP2 SUB SWAP1 REVERT JUMPDEST PUSH1 0x0 DUP2 MLOAD DUP1 DUP5 MSTORE PUSH1 0x0 JUMPDEST DUP2 DUP2 LT ISZERO PUSH2 0x1155 JUMPI PUSH1 0x20 DUP2 DUP6 ADD DUP2 ADD MLOAD DUP7 DUP4 ADD DUP3 ADD MSTORE ADD PUSH2 0x1139 JUMP JUMPDEST POP PUSH1 0x0 PUSH1 0x20 DUP3 DUP7 ADD ADD MSTORE PUSH1 0x20 PUSH1 0x1F NOT PUSH1 0x1F DUP4 ADD AND DUP6 ADD ADD SWAP2 POP POP SWAP3 SWAP2 POP POP JUMP JUMPDEST PUSH1 0x20 DUP2 MSTORE PUSH1 0x0 PUSH2 0x1188 PUSH1 0x20 DUP4 ADD DUP5 PUSH2 0x112F JUMP JUMPDEST SWAP4 SWAP3 POP POP POP JUMP JUMPDEST DUP1 CALLDATALOAD PUSH1 0x1 PUSH1 0x1 PUSH1 0xA0 SHL SUB DUP2 AND DUP2 EQ PUSH2 0x11A6 JUMPI PUSH1 0x0 DUP1 REVERT JUMPDEST SWAP2 SWAP1 POP JUMP JUMPDEST PUSH1 0x0 DUP1 PUSH1 0x40 DUP4 DUP6 SUB SLT ISZERO PUSH2 0x11BE JUMPI PUSH1 0x0 DUP1 REVERT JUMPDEST PUSH2 0x11C7 DUP4 PUSH2 0x118F JUMP JUMPDEST SWAP5 PUSH1 0x20 SWAP4 SWAP1 SWAP4 ADD CALLDATALOAD SWAP4 POP POP POP JUMP JUMPDEST PUSH1 0x0 DUP1 PUSH1 0x0 PUSH1 0x60 DUP5 DUP7 SUB SLT ISZERO PUSH2 0x11EA JUMPI PUSH1 0x0 DUP1 REVERT JUMPDEST PUSH2 0x11F3 DUP5 PUSH2 0x118F JUMP JUMPDEST SWAP3 POP PUSH2 0x1201 PUSH1 0x20 DUP6 ADD PUSH2 0x118F JUMP JUMPDEST SWAP2 POP PUSH1 0x40 DUP5 ADD CALLDATALOAD SWAP1 POP SWAP3 POP SWAP3 POP SWAP3 JUMP JUMPDEST PUSH1 0x0 PUSH1 0x20 DUP3 DUP5 SUB SLT ISZERO PUSH2 0x1223 JUMPI PUSH1 0x0 DUP1 REVERT JUMPDEST POP CALLDATALOAD SWAP2 SWAP1 POP JUMP JUMPDEST PUSH1 0x0 PUSH1 0x20 DUP3 DUP5 SUB SLT ISZERO PUSH2 0x123C JUMPI PUSH1 0x0 DUP1 REVERT JUMPDEST PUSH2 0x1188 DUP3 PUSH2 0x118F JUMP JUMPDEST PUSH1 0xFF PUSH1 0xF8 SHL DUP9 AND DUP2 MSTORE PUSH1 0x0 PUSH1 0x20 PUSH1 0xE0 DUP2 DUP5 ADD MSTORE PUSH2 0x1265 PUSH1 0xE0 DUP5 ADD DUP11 PUSH2 0x112F JUMP JUMPDEST DUP4 DUP2 SUB PUSH1 0x40 DUP6 ADD MSTORE PUSH2 0x1277 DUP2 DUP11 PUSH2 0x112F JUMP JUMPDEST PUSH1 0x60 DUP6 ADD DUP10 SWAP1 MSTORE PUSH1 0x1 PUSH1 0x1 PUSH1 0xA0 SHL SUB DUP9 AND PUSH1 0x80 DUP7 ADD MSTORE PUSH1 0xA0 DUP6 ADD DUP8 SWAP1 MSTORE DUP5 DUP2 SUB PUSH1 0xC0 DUP7 ADD MSTORE DUP6 MLOAD DUP1 DUP3 MSTORE DUP4 DUP8 ADD SWAP3 POP SWAP1 DUP4 ADD SWAP1 PUSH1 0x0 JUMPDEST DUP2 DUP2 LT ISZERO PUSH2 0x12C9 JUMPI DUP4 MLOAD DUP4 MSTORE SWAP3 DUP5 ADD SWAP3 SWAP2 DUP5 ADD SWAP2 PUSH1 0x1 ADD PUSH2 0x12AD JUMP JUMPDEST POP SWAP1 SWAP13 SWAP12 POP POP POP POP POP POP POP POP POP POP POP POP JUMP JUMPDEST PUSH1 0x0 DUP1 PUSH1 0x0 DUP1 PUSH1 0x0 DUP1 PUSH1 0x0 PUSH1 0xE0 DUP9 DUP11 SUB SLT ISZERO PUSH2 0x12F6 JUMPI PUSH1 0x0 DUP1 REVERT JUMPDEST PUSH2 0x12FF DUP9 PUSH2 0x118F JUMP JUMPDEST SWAP7 POP PUSH2 0x130D PUSH1 0x20 DUP10 ADD PUSH2 0x118F JUMP JUMPDEST SWAP6 POP PUSH1 0x40 DUP9 ADD CALLDATALOAD SWAP5 POP PUSH1 0x60 DUP9 ADD CALLDATALOAD SWAP4 POP PUSH1 0x80 DUP9 ADD CALLDATALOAD PUSH1 0xFF DUP2 AND DUP2 EQ PUSH2 0x1331 JUMPI PUSH1 0x0 DUP1 REVERT JUMPDEST SWAP7 SWAP10 SWAP6 SWAP9 POP SWAP4 SWAP7 SWAP3 SWAP6 SWAP5 PUSH1 0xA0 DUP5 ADD CALLDATALOAD SWAP5 POP PUSH1 0xC0 SWAP1 SWAP4 ADD CALLDATALOAD SWAP3 SWAP2 POP POP JUMP JUMPDEST PUSH1 0x0 DUP1 PUSH1 0x40 DUP4 DUP6 SUB SLT ISZERO PUSH2 0x1361 JUMPI PUSH1 0x0 DUP1 REVERT JUMPDEST PUSH2 0x136A DUP4 PUSH2 0x118F JUMP JUMPDEST SWAP2 POP PUSH2 0x1378 PUSH1 0x20 DUP5 ADD PUSH2 0x118F JUMP JUMPDEST SWAP1 POP SWAP3 POP SWAP3 SWAP1 POP JUMP JUMPDEST PUSH1 0x1 DUP2 DUP2 SHR SWAP1 DUP3 AND DUP1 PUSH2 0x1395 JUMPI PUSH1 0x7F DUP3 AND SWAP2 POP JUMPDEST PUSH1 0x20 DUP3 LT DUP2 SUB PUSH2 0xE5F JUMPI PUSH4 0x4E487B71 PUSH1 0xE0 SHL PUSH1 0x0 MSTORE PUSH1 0x22 PUSH1 0x4 MSTORE PUSH1 0x24 PUSH1 0x0 REVERT JUMPDEST DUP1 DUP3 ADD DUP1 DUP3 GT ISZERO PUSH2 0x370 JUMPI PUSH4 0x4E487B71 PUSH1 0xE0 SHL PUSH1 0x0 MSTORE PUSH1 0x11 PUSH1 0x4 MSTORE PUSH1 0x24 PUSH1 0x0 REVERT JUMPDEST PUSH4 0x4E487B71 PUSH1 0xE0 SHL PUSH1 0x0 MSTORE PUSH1 0x21 PUSH1 0x4 MSTORE PUSH1 0x24 PUSH1 0x0 REVERT INVALID LOG2 PUSH5 0x6970667358 0x22 SLT KECCAK256 ORIGIN PUSH30 0x976774B70BBB2AADE783F6253E80F70D8A3109BEDD37DFF3E2B5BFDED7FD PUSH5 0x736F6C6343 STOP ADDMOD SGT STOP CALLER "
				},
				"gasEstimates": {
					"creation": {
						"codeDepositCost": "1030800",
						"executionCost": "infinite",
						"totalCost": "infinite"
					},
					"external": {
						"DOMAIN_SEPARATOR()": "infinite",
						"allowance(address,address)": "infinite",
						"approve(address,uint256)": "24652",
						"balanceOf(address)": "2629",
						"burn(uint256)": "50827",
						"burnFrom(address,uint256)": "infinite",
						"decimals()": "289",
						"decreaseAllowance(address,uint256)": "26973",
						"eip712Domain()": "infinite",
						"increaseAllowance(address,uint256)": "infinite",
						"name()": "infinite",
						"nonces(address)": "2616",
						"owner()": "2390",
						"permit(address,address,uint256,uint256,uint8,bytes32,bytes32)": "infinite",
						"renounceOwnership()": "infinite",
						"symbol()": "infinite",
						"totalSupply()": "2349",
						"transfer(address,uint256)": "51094",
						"transferFrom(address,address,uint256)": "infinite",
						"transferOwnership(address)": "28446"
					}
				},
				"methodIdentifiers": {
					"DOMAIN_SEPARATOR()": "3644e515",
					"allowance(address,address)": "dd62ed3e",
					"approve(address,uint256)": "095ea7b3",
					"balanceOf(address)": "70a08231",
					"burn(uint256)": "42966c68",
					"burnFrom(address,uint256)": "79cc6790",
					"decimals()": "313ce567",
					"decreaseAllowance(address,uint256)": "a457c2d7",
					"eip712Domain()": "84b0196e",
					"increaseAllowance(address,uint256)": "39509351",
					"name()": "06fdde03",
					"nonces(address)": "7ecebe00",
					"owner()": "8da5cb5b",
					"permit(address,address,uint256,uint256,uint8,bytes32,bytes32)": "d505accf",
					"renounceOwnership()": "715018a6",
					"symbol()": "95d89b41",
					"totalSupply()": "18160ddd",
					"transfer(address,uint256)": "a9059cbb",
					"transferFrom(address,address,uint256)": "23b872dd",
					"transferOwnership(address)": "f2fde38b"
				}
			},
			"storageLayout": {
				"storage": [
					{
						"astId": 681,
						"contract": "token.sol:Phoenix",
						"label": "_balances",
						"offset": 0,
						"slot": "0",
						"type": "t_mapping(t_address,t_uint256)"
					},
					{
						"astId": 687,
						"contract": "token.sol:Phoenix",
						"label": "_allowances",
						"offset": 0,
						"slot": "1",
						"type": "t_mapping(t_address,t_mapping(t_address,t_uint256))"
					},
					{
						"astId": 689,
						"contract": "token.sol:Phoenix",
						"label": "_totalSupply",
						"offset": 0,
						"slot": "2",
						"type": "t_uint256"
					},
					{
						"astId": 691,
						"contract": "token.sol:Phoenix",
						"label": "_name",
						"offset": 0,
						"slot": "3",
						"type": "t_string_storage"
					},
					{
						"astId": 693,
						"contract": "token.sol:Phoenix",
						"label": "_symbol",
						"offset": 0,
						"slot": "4",
						"type": "t_string_storage"
					},
					{
						"astId": 494,
						"contract": "token.sol:Phoenix",
						"label": "_nameFallback",
						"offset": 0,
						"slot": "5",
						"type": "t_string_storage"
					},
					{
						"astId": 496,
						"contract": "token.sol:Phoenix",
						"label": "_versionFallback",
						"offset": 0,
						"slot": "6",
						"type": "t_string_storage"
					},
					{
						"astId": 1319,
						"contract": "token.sol:Phoenix",
						"label": "_nonces",
						"offset": 0,
						"slot": "7",
						"type": "t_mapping(t_address,t_struct(Counter)27_storage)"
					},
					{
						"astId": 1327,
						"contract": "token.sol:Phoenix",
						"label": "_PERMIT_TYPEHASH_DEPRECATED_SLOT",
						"offset": 0,
						"slot": "8",
						"type": "t_bytes32"
					},
					{
						"astId": 2506,
						"contract": "token.sol:Phoenix",
						"label": "_owner",
						"offset": 0,
						"slot": "9",
						"type": "t_address"
					}
				],
				"types": {
					"t_address": {
						"encoding": "inplace",
						"label": "address",
						"numberOfBytes": "20"
					},
					"t_bytes32": {
						"encoding": "inplace",
						"label": "bytes32",
						"numberOfBytes": "32"
					},
					"t_mapping(t_address,t_mapping(t_address,t_uint256))": {
						"encoding": "mapping",
						"key": "t_address",
						"label": "mapping(address => mapping(address => uint256))",
						"numberOfBytes": "32",
						"value": "t_mapping(t_address,t_uint256)"
					},
					"t_mapping(t_address,t_struct(Counter)27_storage)": {
						"encoding": "mapping",
						"key": "t_address",
						"label": "mapping(address => struct Counters.Counter)",
						"numberOfBytes": "32",
						"value": "t_struct(Counter)27_storage"
					},
					"t_mapping(t_address,t_uint256)": {
						"encoding": "mapping",
						"key": "t_address",
						"label": "mapping(address => uint256)",
						"numberOfBytes": "32",
						"value": "t_uint256"
					},
					"t_string_storage": {
						"encoding": "bytes",
						"label": "string",
						"numberOfBytes": "32"
					},
					"t_struct(Counter)27_storage": {
						"encoding": "inplace",
						"label": "struct Counters.Counter",
						"members": [
							{
								"astId": 26,
								"contract": "token.sol:Phoenix",
								"label": "_value",
								"offset": 0,
								"slot": "0",
								"type": "t_uint256"
							}
						],
						"numberOfBytes": "32"
					},
					"t_uint256": {
						"encoding": "inplace",
						"label": "uint256",
						"numberOfBytes": "32"
					}
				}
			},
			"userdoc": {
				"kind": "user",
				"methods": {},
				"version": 1
			}
		}
	}
}